{
	"contracts/proposal.sol": {
		"ProposalContract": {
			"abi": [
				{
					"inputs": [],
					"stateMutability": "nonpayable",
					"type": "constructor"
				},
				{
					"inputs": [
						{
							"internalType": "string",
							"name": "_title",
							"type": "string"
						},
						{
							"internalType": "string",
							"name": "_description",
							"type": "string"
						},
						{
							"internalType": "uint256",
							"name": "_total_vote_to_end",
							"type": "uint256"
						}
					],
					"name": "create",
					"outputs": [],
					"stateMutability": "nonpayable",
					"type": "function"
				},
				{
					"inputs": [],
					"name": "getCurrentProposal",
					"outputs": [
						{
							"components": [
								{
									"internalType": "string",
									"name": "title",
									"type": "string"
								},
								{
									"internalType": "string",
									"name": "description",
									"type": "string"
								},
								{
									"internalType": "uint256",
									"name": "approve",
									"type": "uint256"
								},
								{
									"internalType": "uint256",
									"name": "reject",
									"type": "uint256"
								},
								{
									"internalType": "uint256",
									"name": "pass",
									"type": "uint256"
								},
								{
									"internalType": "uint256",
									"name": "total_vote_to_end",
									"type": "uint256"
								},
								{
									"internalType": "bool",
									"name": "current_state",
									"type": "bool"
								},
								{
									"internalType": "bool",
									"name": "is_active",
									"type": "bool"
								}
							],
							"internalType": "struct ProposalContract.Proposal",
							"name": "",
							"type": "tuple"
						}
					],
					"stateMutability": "view",
					"type": "function"
				},
				{
					"inputs": [
						{
							"internalType": "uint256",
							"name": "number",
							"type": "uint256"
						}
					],
					"name": "getProposal",
					"outputs": [
						{
							"components": [
								{
									"internalType": "string",
									"name": "title",
									"type": "string"
								},
								{
									"internalType": "string",
									"name": "description",
									"type": "string"
								},
								{
									"internalType": "uint256",
									"name": "approve",
									"type": "uint256"
								},
								{
									"internalType": "uint256",
									"name": "reject",
									"type": "uint256"
								},
								{
									"internalType": "uint256",
									"name": "pass",
									"type": "uint256"
								},
								{
									"internalType": "uint256",
									"name": "total_vote_to_end",
									"type": "uint256"
								},
								{
									"internalType": "bool",
									"name": "current_state",
									"type": "bool"
								},
								{
									"internalType": "bool",
									"name": "is_active",
									"type": "bool"
								}
							],
							"internalType": "struct ProposalContract.Proposal",
							"name": "",
							"type": "tuple"
						}
					],
					"stateMutability": "view",
					"type": "function"
				},
				{
					"inputs": [
						{
							"internalType": "address",
							"name": "_address",
							"type": "address"
						}
					],
					"name": "isVoted",
					"outputs": [
						{
							"internalType": "bool",
							"name": "",
							"type": "bool"
						}
					],
					"stateMutability": "view",
					"type": "function"
				},
				{
					"inputs": [
						{
							"internalType": "address",
							"name": "new_owner",
							"type": "address"
						}
					],
					"name": "setOwner",
					"outputs": [],
					"stateMutability": "nonpayable",
					"type": "function"
				},
				{
					"inputs": [],
					"name": "teminateProposal",
					"outputs": [],
					"stateMutability": "nonpayable",
					"type": "function"
				},
				{
					"inputs": [
						{
							"internalType": "uint8",
							"name": "choice",
							"type": "uint8"
						}
					],
					"name": "vote",
					"outputs": [],
					"stateMutability": "nonpayable",
					"type": "function"
				}
			],
			"devdoc": {
				"kind": "dev",
				"methods": {},
				"version": 1
			},
			"evm": {
				"assembly": "    /* \"contracts/proposal.sol\":57:4215  contract ProposalContract {... */\n  mstore(0x40, 0x80)\n    /* \"contracts/proposal.sol\":1203:1295  constructor() {... */\n  callvalue\n  dup1\n  iszero\n  tag_1\n  jumpi\n  0x00\n  dup1\n  revert\ntag_1:\n  pop\n    /* \"contracts/proposal.sol\":1235:1246  msg .sender */\n  caller\n    /* \"contracts/proposal.sol\":1227:1232  owner */\n  0x01\n  0x00\n    /* \"contracts/proposal.sol\":1227:1246  owner = msg .sender */\n  0x0100\n  exp\n  dup2\n  sload\n  dup2\n  0xffffffffffffffffffffffffffffffffffffffff\n  mul\n  not\n  and\n  swap1\n  dup4\n  0xffffffffffffffffffffffffffffffffffffffff\n  and\n  mul\n  or\n  swap1\n  sstore\n  pop\n    /* \"contracts/proposal.sol\":1256:1271  voted_addresses */\n  0x02\n    /* \"contracts/proposal.sol\":1277:1287  msg.sender */\n  caller\n    /* \"contracts/proposal.sol\":1256:1288  voted_addresses.push(msg.sender) */\n  swap1\n  dup1\n  0x01\n  dup2\n  sload\n  add\n  dup1\n  dup3\n  sstore\n  dup1\n  swap2\n  pop\n  pop\n  0x01\n  swap1\n  sub\n  swap1\n  0x00\n  mstore\n  keccak256(0x00, 0x20)\n  add\n  0x00\n  swap1\n  swap2\n  swap1\n  swap2\n  swap1\n  swap2\n  0x0100\n  exp\n  dup2\n  sload\n  dup2\n  0xffffffffffffffffffffffffffffffffffffffff\n  mul\n  not\n  and\n  swap1\n  dup4\n  0xffffffffffffffffffffffffffffffffffffffff\n  and\n  mul\n  or\n  swap1\n  sstore\n  pop\n    /* \"contracts/proposal.sol\":57:4215  contract ProposalContract {... */\n  dataSize(sub_0)\n  dup1\n  dataOffset(sub_0)\n  0x00\n  codecopy\n  0x00\n  return\nstop\n\nsub_0: assembly {\n        /* \"contracts/proposal.sol\":57:4215  contract ProposalContract {... */\n      mstore(0x40, 0x80)\n      callvalue\n      dup1\n      iszero\n      tag_1\n      jumpi\n      0x00\n      dup1\n      revert\n    tag_1:\n      pop\n      jumpi(tag_2, lt(calldatasize, 0x04))\n      shr(0xe0, calldataload(0x00))\n      dup1\n      0x89190393\n      gt\n      tag_10\n      jumpi\n      dup1\n      0x89190393\n      eq\n      tag_6\n      jumpi\n      dup1\n      0xb3f98adc\n      eq\n      tag_7\n      jumpi\n      dup1\n      0xc7f758a8\n      eq\n      tag_8\n      jumpi\n      dup1\n      0xcbff75cb\n      eq\n      tag_9\n      jumpi\n      jump(tag_2)\n    tag_10:\n      dup1\n      0x13af4035\n      eq\n      tag_3\n      jumpi\n      dup1\n      0x3ca6d100\n      eq\n      tag_4\n      jumpi\n      dup1\n      0x41ec6870\n      eq\n      tag_5\n      jumpi\n    tag_2:\n      0x00\n      dup1\n      revert\n        /* \"contracts/proposal.sol\":1567:1653  function setOwner(address new_owner) external onlyOwner {... */\n    tag_3:\n      tag_11\n      0x04\n      dup1\n      calldatasize\n      sub\n      dup2\n      add\n      swap1\n      tag_12\n      swap2\n      swap1\n      tag_13\n      jump\t// in\n    tag_12:\n      tag_14\n      jump\t// in\n    tag_11:\n      stop\n        /* \"contracts/proposal.sol\":1307:1561  function create(string calldata _title,string calldata _description, uint256 _total_vote_to_end) external onlyOwner {... */\n    tag_4:\n      tag_15\n      0x04\n      dup1\n      calldatasize\n      sub\n      dup2\n      add\n      swap1\n      tag_16\n      swap2\n      swap1\n      tag_17\n      jump\t// in\n    tag_16:\n      tag_18\n      jump\t// in\n    tag_15:\n      stop\n        /* \"contracts/proposal.sol\":3958:4076  function getCurrentProposal() external view returns(Proposal memory) {... */\n    tag_5:\n      tag_19\n      tag_20\n      jump\t// in\n    tag_19:\n      mload(0x40)\n      tag_21\n      swap2\n      swap1\n      tag_22\n      jump\t// in\n    tag_21:\n      mload(0x40)\n      dup1\n      swap2\n      sub\n      swap1\n      return\n        /* \"contracts/proposal.sol\":3547:3663  function teminateProposal() external onlyOwner active {... */\n    tag_6:\n      tag_23\n      tag_24\n      jump\t// in\n    tag_23:\n      stop\n        /* \"contracts/proposal.sol\":1659:2554  function vote(uint8 choice) external {... */\n    tag_7:\n      tag_25\n      0x04\n      dup1\n      calldatasize\n      sub\n      dup2\n      add\n      swap1\n      tag_26\n      swap2\n      swap1\n      tag_27\n      jump\t// in\n    tag_26:\n      tag_28\n      jump\t// in\n    tag_25:\n      stop\n        /* \"contracts/proposal.sol\":4082:4206  function getProposal(uint256 number) external view returns(Proposal memory) {... */\n    tag_8:\n      tag_29\n      0x04\n      dup1\n      calldatasize\n      sub\n      dup2\n      add\n      swap1\n      tag_30\n      swap2\n      swap1\n      tag_31\n      jump\t// in\n    tag_30:\n      tag_32\n      jump\t// in\n    tag_29:\n      mload(0x40)\n      tag_33\n      swap2\n      swap1\n      tag_22\n      jump\t// in\n    tag_33:\n      mload(0x40)\n      dup1\n      swap2\n      sub\n      swap1\n      return\n        /* \"contracts/proposal.sol\":3669:3951  function isVoted(address _address) public view returns (bool) {... */\n    tag_9:\n      tag_34\n      0x04\n      dup1\n      calldatasize\n      sub\n      dup2\n      add\n      swap1\n      tag_35\n      swap2\n      swap1\n      tag_13\n      jump\t// in\n    tag_35:\n      tag_36\n      jump\t// in\n    tag_34:\n      mload(0x40)\n      tag_37\n      swap2\n      swap1\n      tag_38\n      jump\t// in\n    tag_37:\n      mload(0x40)\n      dup1\n      swap2\n      sub\n      swap1\n      return\n        /* \"contracts/proposal.sol\":1567:1653  function setOwner(address new_owner) external onlyOwner {... */\n    tag_14:\n        /* \"contracts/proposal.sol\":813:818  owner */\n      0x01\n      0x00\n      swap1\n      sload\n      swap1\n      0x0100\n      exp\n      swap1\n      div\n      0xffffffffffffffffffffffffffffffffffffffff\n      and\n        /* \"contracts/proposal.sol\":799:818  msg.sender == owner */\n      0xffffffffffffffffffffffffffffffffffffffff\n      and\n        /* \"contracts/proposal.sol\":799:809  msg.sender */\n      caller\n        /* \"contracts/proposal.sol\":799:818  msg.sender == owner */\n      0xffffffffffffffffffffffffffffffffffffffff\n      and\n      eq\n        /* \"contracts/proposal.sol\":791:819  require(msg.sender == owner) */\n      tag_40\n      jumpi\n      0x00\n      dup1\n      revert\n    tag_40:\n        /* \"contracts/proposal.sol\":1637:1646  new_owner */\n      dup1\n        /* \"contracts/proposal.sol\":1629:1634  owner */\n      0x01\n      0x00\n        /* \"contracts/proposal.sol\":1629:1646  owner = new_owner */\n      0x0100\n      exp\n      dup2\n      sload\n      dup2\n      0xffffffffffffffffffffffffffffffffffffffff\n      mul\n      not\n      and\n      swap1\n      dup4\n      0xffffffffffffffffffffffffffffffffffffffff\n      and\n      mul\n      or\n      swap1\n      sstore\n      pop\n        /* \"contracts/proposal.sol\":1567:1653  function setOwner(address new_owner) external onlyOwner {... */\n      pop\n      jump\t// out\n        /* \"contracts/proposal.sol\":1307:1561  function create(string calldata _title,string calldata _description, uint256 _total_vote_to_end) external onlyOwner {... */\n    tag_18:\n        /* \"contracts/proposal.sol\":813:818  owner */\n      0x01\n      0x00\n      swap1\n      sload\n      swap1\n      0x0100\n      exp\n      swap1\n      div\n      0xffffffffffffffffffffffffffffffffffffffff\n      and\n        /* \"contracts/proposal.sol\":799:818  msg.sender == owner */\n      0xffffffffffffffffffffffffffffffffffffffff\n      and\n        /* \"contracts/proposal.sol\":799:809  msg.sender */\n      caller\n        /* \"contracts/proposal.sol\":799:818  msg.sender == owner */\n      0xffffffffffffffffffffffffffffffffffffffff\n      and\n      eq\n        /* \"contracts/proposal.sol\":791:819  require(msg.sender == owner) */\n      tag_43\n      jumpi\n      0x00\n      dup1\n      revert\n    tag_43:\n        /* \"contracts/proposal.sol\":1444:1445  1 */\n      0x01\n        /* \"contracts/proposal.sol\":1433:1440  counter */\n      0x00\n      dup1\n        /* \"contracts/proposal.sol\":1433:1445  counter += 1 */\n      dup3\n      dup3\n      sload\n      tag_45\n      swap2\n      swap1\n      tag_46\n      jump\t// in\n    tag_45:\n      swap3\n      pop\n      pop\n      dup2\n      swap1\n      sstore\n      pop\n        /* \"contracts/proposal.sol\":1483:1554  Proposal(_title,_description, 0, 0, 0, _total_vote_to_end, false, true) */\n      mload(0x40)\n      dup1\n      0x0100\n      add\n      0x40\n      mstore\n      dup1\n        /* \"contracts/proposal.sol\":1492:1498  _title */\n      dup7\n      dup7\n        /* \"contracts/proposal.sol\":1483:1554  Proposal(_title,_description, 0, 0, 0, _total_vote_to_end, false, true) */\n      dup1\n      dup1\n      0x1f\n      add\n      0x20\n      dup1\n      swap2\n      div\n      mul\n      0x20\n      add\n      mload(0x40)\n      swap1\n      dup2\n      add\n      0x40\n      mstore\n      dup1\n      swap4\n      swap3\n      swap2\n      swap1\n      dup2\n      dup2\n      mstore\n      0x20\n      add\n      dup4\n      dup4\n      dup1\n      dup3\n      dup5\n      calldatacopy\n      0x00\n      dup2\n      dup5\n      add\n      mstore\n      not(0x1f)\n      0x1f\n      dup3\n      add\n      and\n      swap1\n      pop\n      dup1\n      dup4\n      add\n      swap3\n      pop\n      pop\n      pop\n      pop\n      pop\n      pop\n      pop\n      dup2\n      mstore\n      0x20\n      add\n        /* \"contracts/proposal.sol\":1499:1511  _description */\n      dup5\n      dup5\n        /* \"contracts/proposal.sol\":1483:1554  Proposal(_title,_description, 0, 0, 0, _total_vote_to_end, false, true) */\n      dup1\n      dup1\n      0x1f\n      add\n      0x20\n      dup1\n      swap2\n      div\n      mul\n      0x20\n      add\n      mload(0x40)\n      swap1\n      dup2\n      add\n      0x40\n      mstore\n      dup1\n      swap4\n      swap3\n      swap2\n      swap1\n      dup2\n      dup2\n      mstore\n      0x20\n      add\n      dup4\n      dup4\n      dup1\n      dup3\n      dup5\n      calldatacopy\n      0x00\n      dup2\n      dup5\n      add\n      mstore\n      not(0x1f)\n      0x1f\n      dup3\n      add\n      and\n      swap1\n      pop\n      dup1\n      dup4\n      add\n      swap3\n      pop\n      pop\n      pop\n      pop\n      pop\n      pop\n      pop\n      dup2\n      mstore\n      0x20\n      add\n        /* \"contracts/proposal.sol\":1513:1514  0 */\n      0x00\n        /* \"contracts/proposal.sol\":1483:1554  Proposal(_title,_description, 0, 0, 0, _total_vote_to_end, false, true) */\n      dup2\n      mstore\n      0x20\n      add\n        /* \"contracts/proposal.sol\":1516:1517  0 */\n      0x00\n        /* \"contracts/proposal.sol\":1483:1554  Proposal(_title,_description, 0, 0, 0, _total_vote_to_end, false, true) */\n      dup2\n      mstore\n      0x20\n      add\n        /* \"contracts/proposal.sol\":1519:1520  0 */\n      0x00\n        /* \"contracts/proposal.sol\":1483:1554  Proposal(_title,_description, 0, 0, 0, _total_vote_to_end, false, true) */\n      dup2\n      mstore\n      0x20\n      add\n        /* \"contracts/proposal.sol\":1522:1540  _total_vote_to_end */\n      dup3\n        /* \"contracts/proposal.sol\":1483:1554  Proposal(_title,_description, 0, 0, 0, _total_vote_to_end, false, true) */\n      dup2\n      mstore\n      0x20\n      add\n        /* \"contracts/proposal.sol\":1542:1547  false */\n      0x00\n        /* \"contracts/proposal.sol\":1483:1554  Proposal(_title,_description, 0, 0, 0, _total_vote_to_end, false, true) */\n      iszero\n      iszero\n      dup2\n      mstore\n      0x20\n      add\n        /* \"contracts/proposal.sol\":1549:1553  true */\n      0x01\n        /* \"contracts/proposal.sol\":1483:1554  Proposal(_title,_description, 0, 0, 0, _total_vote_to_end, false, true) */\n      iszero\n      iszero\n      dup2\n      mstore\n      pop\n        /* \"contracts/proposal.sol\":1455:1471  proposal_history */\n      0x03\n        /* \"contracts/proposal.sol\":1455:1480  proposal_history[counter] */\n      0x00\n        /* \"contracts/proposal.sol\":1472:1479  counter */\n      dup1\n      sload\n        /* \"contracts/proposal.sol\":1455:1480  proposal_history[counter] */\n      dup2\n      mstore\n      0x20\n      add\n      swap1\n      dup2\n      mstore\n      0x20\n      add\n      0x00\n      keccak256\n        /* \"contracts/proposal.sol\":1455:1554  proposal_history[counter] = Proposal(_title,_description, 0, 0, 0, _total_vote_to_end, false, true) */\n      0x00\n      dup3\n      add\n      mload\n      dup2\n      0x00\n      add\n      swap1\n      dup2\n      tag_47\n      swap2\n      swap1\n      tag_48\n      jump\t// in\n    tag_47:\n      pop\n      0x20\n      dup3\n      add\n      mload\n      dup2\n      0x01\n      add\n      swap1\n      dup2\n      tag_49\n      swap2\n      swap1\n      tag_48\n      jump\t// in\n    tag_49:\n      pop\n      0x40\n      dup3\n      add\n      mload\n      dup2\n      0x02\n      add\n      sstore\n      0x60\n      dup3\n      add\n      mload\n      dup2\n      0x03\n      add\n      sstore\n      0x80\n      dup3\n      add\n      mload\n      dup2\n      0x04\n      add\n      sstore\n      0xa0\n      dup3\n      add\n      mload\n      dup2\n      0x05\n      add\n      sstore\n      0xc0\n      dup3\n      add\n      mload\n      dup2\n      0x06\n      add\n      exp(0x0100, 0x00)\n      dup2\n      sload\n      dup2\n      0xff\n      mul\n      not\n      and\n      swap1\n      dup4\n      iszero\n      iszero\n      mul\n      or\n      swap1\n      sstore\n      pop\n      0xe0\n      dup3\n      add\n      mload\n      dup2\n      0x06\n      add\n      exp(0x0100, 0x01)\n      dup2\n      sload\n      dup2\n      0xff\n      mul\n      not\n      and\n      swap1\n      dup4\n      iszero\n      iszero\n      mul\n      or\n      swap1\n      sstore\n      pop\n      swap1\n      pop\n      pop\n        /* \"contracts/proposal.sol\":1307:1561  function create(string calldata _title,string calldata _description, uint256 _total_vote_to_end) external onlyOwner {... */\n      pop\n      pop\n      pop\n      pop\n      pop\n      jump\t// out\n        /* \"contracts/proposal.sol\":3958:4076  function getCurrentProposal() external view returns(Proposal memory) {... */\n    tag_20:\n        /* \"contracts/proposal.sol\":4010:4025  Proposal memory */\n      tag_50\n      tag_51\n      jump\t// in\n    tag_50:\n        /* \"contracts/proposal.sol\":4044:4060  proposal_history */\n      0x03\n        /* \"contracts/proposal.sol\":4044:4069  proposal_history[counter] */\n      0x00\n        /* \"contracts/proposal.sol\":4061:4068  counter */\n      dup1\n      sload\n        /* \"contracts/proposal.sol\":4044:4069  proposal_history[counter] */\n      dup2\n      mstore\n      0x20\n      add\n      swap1\n      dup2\n      mstore\n      0x20\n      add\n      0x00\n      keccak256\n        /* \"contracts/proposal.sol\":4037:4069  return proposal_history[counter] */\n      mload(0x40)\n      dup1\n      0x0100\n      add\n      0x40\n      mstore\n      swap1\n      dup2\n      0x00\n      dup3\n      add\n      dup1\n      sload\n      tag_53\n      swap1\n      tag_54\n      jump\t// in\n    tag_53:\n      dup1\n      0x1f\n      add\n      0x20\n      dup1\n      swap2\n      div\n      mul\n      0x20\n      add\n      mload(0x40)\n      swap1\n      dup2\n      add\n      0x40\n      mstore\n      dup1\n      swap3\n      swap2\n      swap1\n      dup2\n      dup2\n      mstore\n      0x20\n      add\n      dup3\n      dup1\n      sload\n      tag_55\n      swap1\n      tag_54\n      jump\t// in\n    tag_55:\n      dup1\n      iszero\n      tag_56\n      jumpi\n      dup1\n      0x1f\n      lt\n      tag_57\n      jumpi\n      0x0100\n      dup1\n      dup4\n      sload\n      div\n      mul\n      dup4\n      mstore\n      swap2\n      0x20\n      add\n      swap2\n      jump(tag_56)\n    tag_57:\n      dup3\n      add\n      swap2\n      swap1\n      0x00\n      mstore\n      keccak256(0x00, 0x20)\n      swap1\n    tag_58:\n      dup2\n      sload\n      dup2\n      mstore\n      swap1\n      0x01\n      add\n      swap1\n      0x20\n      add\n      dup1\n      dup4\n      gt\n      tag_58\n      jumpi\n      dup3\n      swap1\n      sub\n      0x1f\n      and\n      dup3\n      add\n      swap2\n    tag_56:\n      pop\n      pop\n      pop\n      pop\n      pop\n      dup2\n      mstore\n      0x20\n      add\n      0x01\n      dup3\n      add\n      dup1\n      sload\n      tag_59\n      swap1\n      tag_54\n      jump\t// in\n    tag_59:\n      dup1\n      0x1f\n      add\n      0x20\n      dup1\n      swap2\n      div\n      mul\n      0x20\n      add\n      mload(0x40)\n      swap1\n      dup2\n      add\n      0x40\n      mstore\n      dup1\n      swap3\n      swap2\n      swap1\n      dup2\n      dup2\n      mstore\n      0x20\n      add\n      dup3\n      dup1\n      sload\n      tag_60\n      swap1\n      tag_54\n      jump\t// in\n    tag_60:\n      dup1\n      iszero\n      tag_61\n      jumpi\n      dup1\n      0x1f\n      lt\n      tag_62\n      jumpi\n      0x0100\n      dup1\n      dup4\n      sload\n      div\n      mul\n      dup4\n      mstore\n      swap2\n      0x20\n      add\n      swap2\n      jump(tag_61)\n    tag_62:\n      dup3\n      add\n      swap2\n      swap1\n      0x00\n      mstore\n      keccak256(0x00, 0x20)\n      swap1\n    tag_63:\n      dup2\n      sload\n      dup2\n      mstore\n      swap1\n      0x01\n      add\n      swap1\n      0x20\n      add\n      dup1\n      dup4\n      gt\n      tag_63\n      jumpi\n      dup3\n      swap1\n      sub\n      0x1f\n      and\n      dup3\n      add\n      swap2\n    tag_61:\n      pop\n      pop\n      pop\n      pop\n      pop\n      dup2\n      mstore\n      0x20\n      add\n      0x02\n      dup3\n      add\n      sload\n      dup2\n      mstore\n      0x20\n      add\n      0x03\n      dup3\n      add\n      sload\n      dup2\n      mstore\n      0x20\n      add\n      0x04\n      dup3\n      add\n      sload\n      dup2\n      mstore\n      0x20\n      add\n      0x05\n      dup3\n      add\n      sload\n      dup2\n      mstore\n      0x20\n      add\n      0x06\n      dup3\n      add\n      0x00\n      swap1\n      sload\n      swap1\n      0x0100\n      exp\n      swap1\n      div\n      0xff\n      and\n      iszero\n      iszero\n      iszero\n      iszero\n      dup2\n      mstore\n      0x20\n      add\n      0x06\n      dup3\n      add\n      0x01\n      swap1\n      sload\n      swap1\n      0x0100\n      exp\n      swap1\n      div\n      0xff\n      and\n      iszero\n      iszero\n      iszero\n      iszero\n      dup2\n      mstore\n      pop\n      pop\n      swap1\n      pop\n        /* \"contracts/proposal.sol\":3958:4076  function getCurrentProposal() external view returns(Proposal memory) {... */\n      swap1\n      jump\t// out\n        /* \"contracts/proposal.sol\":3547:3663  function teminateProposal() external onlyOwner active {... */\n    tag_24:\n        /* \"contracts/proposal.sol\":813:818  owner */\n      0x01\n      0x00\n      swap1\n      sload\n      swap1\n      0x0100\n      exp\n      swap1\n      div\n      0xffffffffffffffffffffffffffffffffffffffff\n      and\n        /* \"contracts/proposal.sol\":799:818  msg.sender == owner */\n      0xffffffffffffffffffffffffffffffffffffffff\n      and\n        /* \"contracts/proposal.sol\":799:809  msg.sender */\n      caller\n        /* \"contracts/proposal.sol\":799:818  msg.sender == owner */\n      0xffffffffffffffffffffffffffffffffffffffff\n      and\n      eq\n        /* \"contracts/proposal.sol\":791:819  require(msg.sender == owner) */\n      tag_65\n      jumpi\n      0x00\n      dup1\n      revert\n    tag_65:\n        /* \"contracts/proposal.sol\":922:926  true */\n      0x01\n        /* \"contracts/proposal.sol\":883:926  proposal_history[counter].is_active == true */\n      iszero\n      iszero\n        /* \"contracts/proposal.sol\":883:899  proposal_history */\n      0x03\n        /* \"contracts/proposal.sol\":883:908  proposal_history[counter] */\n      0x00\n        /* \"contracts/proposal.sol\":900:907  counter */\n      dup1\n      sload\n        /* \"contracts/proposal.sol\":883:908  proposal_history[counter] */\n      dup2\n      mstore\n      0x20\n      add\n      swap1\n      dup2\n      mstore\n      0x20\n      add\n      0x00\n      keccak256\n        /* \"contracts/proposal.sol\":883:918  proposal_history[counter].is_active */\n      0x06\n      add\n      0x01\n      swap1\n      sload\n      swap1\n      0x0100\n      exp\n      swap1\n      div\n      0xff\n      and\n        /* \"contracts/proposal.sol\":883:926  proposal_history[counter].is_active == true */\n      iszero\n      iszero\n      eq\n        /* \"contracts/proposal.sol\":875:957  require(proposal_history[counter].is_active == true, \"The proposal is not active\") */\n      tag_67\n      jumpi\n      mload(0x40)\n      0x08c379a000000000000000000000000000000000000000000000000000000000\n      dup2\n      mstore\n      0x04\n      add\n      tag_68\n      swap1\n      tag_69\n      jump\t// in\n    tag_68:\n      mload(0x40)\n      dup1\n      swap2\n      sub\n      swap1\n      revert\n    tag_67:\n        /* \"contracts/proposal.sol\":3649:3654  false */\n      0x00\n        /* \"contracts/proposal.sol\":3611:3627  proposal_history */\n      0x03\n        /* \"contracts/proposal.sol\":3611:3636  proposal_history[counter] */\n      0x00\n        /* \"contracts/proposal.sol\":3628:3635  counter */\n      dup1\n      sload\n        /* \"contracts/proposal.sol\":3611:3636  proposal_history[counter] */\n      dup2\n      mstore\n      0x20\n      add\n      swap1\n      dup2\n      mstore\n      0x20\n      add\n      0x00\n      keccak256\n        /* \"contracts/proposal.sol\":3611:3646  proposal_history[counter].is_active */\n      0x06\n      add\n      0x01\n        /* \"contracts/proposal.sol\":3611:3654  proposal_history[counter].is_active = false */\n      0x0100\n      exp\n      dup2\n      sload\n      dup2\n      0xff\n      mul\n      not\n      and\n      swap1\n      dup4\n      iszero\n      iszero\n      mul\n      or\n      swap1\n      sstore\n      pop\n        /* \"contracts/proposal.sol\":3547:3663  function teminateProposal() external onlyOwner active {... */\n      jump\t// out\n        /* \"contracts/proposal.sol\":1659:2554  function vote(uint8 choice) external {... */\n    tag_28:\n        /* \"contracts/proposal.sol\":1724:1749  Proposal storage proposal */\n      0x00\n        /* \"contracts/proposal.sol\":1752:1768  proposal_history */\n      0x03\n        /* \"contracts/proposal.sol\":1752:1777  proposal_history[counter] */\n      0x00\n        /* \"contracts/proposal.sol\":1769:1776  counter */\n      dup1\n      sload\n        /* \"contracts/proposal.sol\":1752:1777  proposal_history[counter] */\n      dup2\n      mstore\n      0x20\n      add\n      swap1\n      dup2\n      mstore\n      0x20\n      add\n      0x00\n      keccak256\n        /* \"contracts/proposal.sol\":1724:1777  Proposal storage proposal = proposal_history[counter] */\n      swap1\n      pop\n        /* \"contracts/proposal.sol\":1787:1805  uint256 total_vote */\n      0x00\n        /* \"contracts/proposal.sol\":1845:1853  proposal */\n      dup2\n        /* \"contracts/proposal.sol\":1845:1858  proposal.pass */\n      0x04\n      add\n      sload\n        /* \"contracts/proposal.sol\":1827:1835  proposal */\n      dup3\n        /* \"contracts/proposal.sol\":1827:1842  proposal.reject */\n      0x03\n      add\n      sload\n        /* \"contracts/proposal.sol\":1808:1816  proposal */\n      dup4\n        /* \"contracts/proposal.sol\":1808:1824  proposal.approve */\n      0x02\n      add\n      sload\n        /* \"contracts/proposal.sol\":1808:1842  proposal.approve + proposal.reject */\n      tag_72\n      swap2\n      swap1\n      tag_46\n      jump\t// in\n    tag_72:\n        /* \"contracts/proposal.sol\":1808:1858  proposal.approve + proposal.reject + proposal.pass */\n      tag_73\n      swap2\n      swap1\n      tag_46\n      jump\t// in\n    tag_73:\n        /* \"contracts/proposal.sol\":1787:1858  uint256 total_vote = proposal.approve + proposal.reject + proposal.pass */\n      swap1\n      pop\n        /* \"contracts/proposal.sol\":1868:1883  voted_addresses */\n      0x02\n        /* \"contracts/proposal.sol\":1889:1899  msg.sender */\n      caller\n        /* \"contracts/proposal.sol\":1868:1900  voted_addresses.push(msg.sender) */\n      swap1\n      dup1\n      0x01\n      dup2\n      sload\n      add\n      dup1\n      dup3\n      sstore\n      dup1\n      swap2\n      pop\n      pop\n      0x01\n      swap1\n      sub\n      swap1\n      0x00\n      mstore\n      keccak256(0x00, 0x20)\n      add\n      0x00\n      swap1\n      swap2\n      swap1\n      swap2\n      swap1\n      swap2\n      0x0100\n      exp\n      dup2\n      sload\n      dup2\n      0xffffffffffffffffffffffffffffffffffffffff\n      mul\n      not\n      and\n      swap1\n      dup4\n      0xffffffffffffffffffffffffffffffffffffffff\n      and\n      mul\n      or\n      swap1\n      sstore\n      pop\n        /* \"contracts/proposal.sol\":1948:1949  1 */\n      0x01\n        /* \"contracts/proposal.sol\":1938:1944  choice */\n      dup4\n        /* \"contracts/proposal.sol\":1938:1949  choice == 1 */\n      0xff\n      and\n      sub\n        /* \"contracts/proposal.sol\":1934:2317  if (choice == 1) {... */\n      tag_75\n      jumpi\n        /* \"contracts/proposal.sol\":1985:1986  1 */\n      0x01\n        /* \"contracts/proposal.sol\":1965:1973  proposal */\n      dup3\n        /* \"contracts/proposal.sol\":1965:1981  proposal.approve */\n      0x02\n      add\n      0x00\n        /* \"contracts/proposal.sol\":1965:1986  proposal.approve += 1 */\n      dup3\n      dup3\n      sload\n      tag_76\n      swap2\n      swap1\n      tag_46\n      jump\t// in\n    tag_76:\n      swap3\n      pop\n      pop\n      dup2\n      swap1\n      sstore\n      pop\n        /* \"contracts/proposal.sol\":2025:2048  calculateCurrentState() */\n      tag_77\n        /* \"contracts/proposal.sol\":2025:2046  calculateCurrentState */\n      tag_78\n        /* \"contracts/proposal.sol\":2025:2048  calculateCurrentState() */\n      jump\t// in\n    tag_77:\n        /* \"contracts/proposal.sol\":2000:2008  proposal */\n      dup3\n        /* \"contracts/proposal.sol\":2000:2022  proposal.current_state */\n      0x06\n      add\n      0x00\n        /* \"contracts/proposal.sol\":2000:2048  proposal.current_state = calculateCurrentState() */\n      0x0100\n      exp\n      dup2\n      sload\n      dup2\n      0xff\n      mul\n      not\n      and\n      swap1\n      dup4\n      iszero\n      iszero\n      mul\n      or\n      swap1\n      sstore\n      pop\n        /* \"contracts/proposal.sol\":1934:2317  if (choice == 1) {... */\n      jump(tag_79)\n    tag_75:\n        /* \"contracts/proposal.sol\":2079:2080  2 */\n      0x02\n        /* \"contracts/proposal.sol\":2069:2075  choice */\n      dup4\n        /* \"contracts/proposal.sol\":2069:2080  choice == 2 */\n      0xff\n      and\n      sub\n        /* \"contracts/proposal.sol\":2065:2317  if (choice == 2) {... */\n      tag_80\n      jumpi\n        /* \"contracts/proposal.sol\":2115:2116  1 */\n      0x01\n        /* \"contracts/proposal.sol\":2096:2104  proposal */\n      dup3\n        /* \"contracts/proposal.sol\":2096:2111  proposal.reject */\n      0x03\n      add\n      0x00\n        /* \"contracts/proposal.sol\":2096:2116  proposal.reject += 1 */\n      dup3\n      dup3\n      sload\n      tag_81\n      swap2\n      swap1\n      tag_46\n      jump\t// in\n    tag_81:\n      swap3\n      pop\n      pop\n      dup2\n      swap1\n      sstore\n      pop\n        /* \"contracts/proposal.sol\":2155:2178  calculateCurrentState() */\n      tag_82\n        /* \"contracts/proposal.sol\":2155:2176  calculateCurrentState */\n      tag_78\n        /* \"contracts/proposal.sol\":2155:2178  calculateCurrentState() */\n      jump\t// in\n    tag_82:\n        /* \"contracts/proposal.sol\":2130:2138  proposal */\n      dup3\n        /* \"contracts/proposal.sol\":2130:2152  proposal.current_state */\n      0x06\n      add\n      0x00\n        /* \"contracts/proposal.sol\":2130:2178  proposal.current_state = calculateCurrentState() */\n      0x0100\n      exp\n      dup2\n      sload\n      dup2\n      0xff\n      mul\n      not\n      and\n      swap1\n      dup4\n      iszero\n      iszero\n      mul\n      or\n      swap1\n      sstore\n      pop\n        /* \"contracts/proposal.sol\":2065:2317  if (choice == 2) {... */\n      jump(tag_83)\n    tag_80:\n        /* \"contracts/proposal.sol\":2209:2210  0 */\n      0x00\n        /* \"contracts/proposal.sol\":2199:2205  choice */\n      dup4\n        /* \"contracts/proposal.sol\":2199:2210  choice == 0 */\n      0xff\n      and\n      sub\n        /* \"contracts/proposal.sol\":2195:2317  if (choice == 0) {... */\n      tag_84\n      jumpi\n        /* \"contracts/proposal.sol\":2243:2244  1 */\n      0x01\n        /* \"contracts/proposal.sol\":2226:2234  proposal */\n      dup3\n        /* \"contracts/proposal.sol\":2226:2239  proposal.pass */\n      0x04\n      add\n      0x00\n        /* \"contracts/proposal.sol\":2226:2244  proposal.pass += 1 */\n      dup3\n      dup3\n      sload\n      tag_85\n      swap2\n      swap1\n      tag_46\n      jump\t// in\n    tag_85:\n      swap3\n      pop\n      pop\n      dup2\n      swap1\n      sstore\n      pop\n        /* \"contracts/proposal.sol\":2283:2306  calculateCurrentState() */\n      tag_86\n        /* \"contracts/proposal.sol\":2283:2304  calculateCurrentState */\n      tag_78\n        /* \"contracts/proposal.sol\":2283:2306  calculateCurrentState() */\n      jump\t// in\n    tag_86:\n        /* \"contracts/proposal.sol\":2258:2266  proposal */\n      dup3\n        /* \"contracts/proposal.sol\":2258:2280  proposal.current_state */\n      0x06\n      add\n      0x00\n        /* \"contracts/proposal.sol\":2258:2306  proposal.current_state = calculateCurrentState() */\n      0x0100\n      exp\n      dup2\n      sload\n      dup2\n      0xff\n      mul\n      not\n      and\n      swap1\n      dup4\n      iszero\n      iszero\n      mul\n      or\n      swap1\n      sstore\n      pop\n        /* \"contracts/proposal.sol\":2195:2317  if (choice == 0) {... */\n    tag_84:\n        /* \"contracts/proposal.sol\":2065:2317  if (choice == 2) {... */\n    tag_83:\n        /* \"contracts/proposal.sol\":1934:2317  if (choice == 1) {... */\n    tag_79:\n        /* \"contracts/proposal.sol\":2397:2398  1 */\n      0x01\n        /* \"contracts/proposal.sol\":2383:2393  total_vote */\n      dup2\n        /* \"contracts/proposal.sol\":2354:2362  proposal */\n      dup4\n        /* \"contracts/proposal.sol\":2354:2380  proposal.total_vote_to_end */\n      0x05\n      add\n      sload\n        /* \"contracts/proposal.sol\":2354:2393  proposal.total_vote_to_end - total_vote */\n      tag_87\n      swap2\n      swap1\n      tag_88\n      jump\t// in\n    tag_87:\n        /* \"contracts/proposal.sol\":2354:2398  proposal.total_vote_to_end - total_vote == 1 */\n      eq\n        /* \"contracts/proposal.sol\":2353:2446  (proposal.total_vote_to_end - total_vote == 1) && (choice == 1 || choice == 2 || choice == 0) */\n      dup1\n      iszero\n      tag_89\n      jumpi\n      pop\n        /* \"contracts/proposal.sol\":2414:2415  1 */\n      0x01\n        /* \"contracts/proposal.sol\":2404:2410  choice */\n      dup4\n        /* \"contracts/proposal.sol\":2404:2415  choice == 1 */\n      0xff\n      and\n      eq\n        /* \"contracts/proposal.sol\":2404:2430  choice == 1 || choice == 2 */\n      dup1\n      tag_90\n      jumpi\n      pop\n        /* \"contracts/proposal.sol\":2429:2430  2 */\n      0x02\n        /* \"contracts/proposal.sol\":2419:2425  choice */\n      dup4\n        /* \"contracts/proposal.sol\":2419:2430  choice == 2 */\n      0xff\n      and\n      eq\n        /* \"contracts/proposal.sol\":2404:2430  choice == 1 || choice == 2 */\n    tag_90:\n        /* \"contracts/proposal.sol\":2404:2445  choice == 1 || choice == 2 || choice == 0 */\n      dup1\n      tag_91\n      jumpi\n      pop\n        /* \"contracts/proposal.sol\":2444:2445  0 */\n      0x00\n        /* \"contracts/proposal.sol\":2434:2440  choice */\n      dup4\n        /* \"contracts/proposal.sol\":2434:2445  choice == 0 */\n      0xff\n      and\n      eq\n        /* \"contracts/proposal.sol\":2404:2445  choice == 1 || choice == 2 || choice == 0 */\n    tag_91:\n        /* \"contracts/proposal.sol\":2353:2446  (proposal.total_vote_to_end - total_vote == 1) && (choice == 1 || choice == 2 || choice == 0) */\n    tag_89:\n        /* \"contracts/proposal.sol\":2349:2539  if ((proposal.total_vote_to_end - total_vote == 1) && (choice == 1 || choice == 2 || choice == 0)) {... */\n      iszero\n      tag_92\n      jumpi\n        /* \"contracts/proposal.sol\":2483:2488  false */\n      0x00\n        /* \"contracts/proposal.sol\":2462:2470  proposal */\n      dup3\n        /* \"contracts/proposal.sol\":2462:2480  proposal.is_active */\n      0x06\n      add\n      0x01\n        /* \"contracts/proposal.sol\":2462:2488  proposal.is_active = false */\n      0x0100\n      exp\n      dup2\n      sload\n      dup2\n      0xff\n      mul\n      not\n      and\n      swap1\n      dup4\n      iszero\n      iszero\n      mul\n      or\n      swap1\n      sstore\n      pop\n        /* \"contracts/proposal.sol\":2502:2527  voted_addresses = [owner] */\n      mload(0x40)\n      dup1\n      0x20\n      add\n      0x40\n      mstore\n      dup1\n        /* \"contracts/proposal.sol\":2521:2526  owner */\n      0x01\n      0x00\n      swap1\n      sload\n      swap1\n      0x0100\n      exp\n      swap1\n      div\n      0xffffffffffffffffffffffffffffffffffffffff\n      and\n        /* \"contracts/proposal.sol\":2502:2527  voted_addresses = [owner] */\n      0xffffffffffffffffffffffffffffffffffffffff\n      and\n      0xffffffffffffffffffffffffffffffffffffffff\n      and\n      dup2\n      mstore\n      pop\n        /* \"contracts/proposal.sol\":2502:2517  voted_addresses */\n      0x02\n        /* \"contracts/proposal.sol\":2502:2527  voted_addresses = [owner] */\n      swap1\n      0x01\n      tag_93\n      swap3\n      swap2\n      swap1\n      tag_94\n      jump\t// in\n    tag_93:\n      pop\n        /* \"contracts/proposal.sol\":2349:2539  if ((proposal.total_vote_to_end - total_vote == 1) && (choice == 1 || choice == 2 || choice == 0)) {... */\n    tag_92:\n        /* \"contracts/proposal.sol\":1696:2554  {... */\n      pop\n      pop\n        /* \"contracts/proposal.sol\":1659:2554  function vote(uint8 choice) external {... */\n      pop\n      jump\t// out\n        /* \"contracts/proposal.sol\":4082:4206  function getProposal(uint256 number) external view returns(Proposal memory) {... */\n    tag_32:\n        /* \"contracts/proposal.sol\":4141:4156  Proposal memory */\n      tag_95\n      tag_51\n      jump\t// in\n    tag_95:\n        /* \"contracts/proposal.sol\":4175:4191  proposal_history */\n      0x03\n        /* \"contracts/proposal.sol\":4175:4199  proposal_history[number] */\n      0x00\n        /* \"contracts/proposal.sol\":4192:4198  number */\n      dup4\n        /* \"contracts/proposal.sol\":4175:4199  proposal_history[number] */\n      dup2\n      mstore\n      0x20\n      add\n      swap1\n      dup2\n      mstore\n      0x20\n      add\n      0x00\n      keccak256\n        /* \"contracts/proposal.sol\":4168:4199  return proposal_history[number] */\n      mload(0x40)\n      dup1\n      0x0100\n      add\n      0x40\n      mstore\n      swap1\n      dup2\n      0x00\n      dup3\n      add\n      dup1\n      sload\n      tag_97\n      swap1\n      tag_54\n      jump\t// in\n    tag_97:\n      dup1\n      0x1f\n      add\n      0x20\n      dup1\n      swap2\n      div\n      mul\n      0x20\n      add\n      mload(0x40)\n      swap1\n      dup2\n      add\n      0x40\n      mstore\n      dup1\n      swap3\n      swap2\n      swap1\n      dup2\n      dup2\n      mstore\n      0x20\n      add\n      dup3\n      dup1\n      sload\n      tag_98\n      swap1\n      tag_54\n      jump\t// in\n    tag_98:\n      dup1\n      iszero\n      tag_99\n      jumpi\n      dup1\n      0x1f\n      lt\n      tag_100\n      jumpi\n      0x0100\n      dup1\n      dup4\n      sload\n      div\n      mul\n      dup4\n      mstore\n      swap2\n      0x20\n      add\n      swap2\n      jump(tag_99)\n    tag_100:\n      dup3\n      add\n      swap2\n      swap1\n      0x00\n      mstore\n      keccak256(0x00, 0x20)\n      swap1\n    tag_101:\n      dup2\n      sload\n      dup2\n      mstore\n      swap1\n      0x01\n      add\n      swap1\n      0x20\n      add\n      dup1\n      dup4\n      gt\n      tag_101\n      jumpi\n      dup3\n      swap1\n      sub\n      0x1f\n      and\n      dup3\n      add\n      swap2\n    tag_99:\n      pop\n      pop\n      pop\n      pop\n      pop\n      dup2\n      mstore\n      0x20\n      add\n      0x01\n      dup3\n      add\n      dup1\n      sload\n      tag_102\n      swap1\n      tag_54\n      jump\t// in\n    tag_102:\n      dup1\n      0x1f\n      add\n      0x20\n      dup1\n      swap2\n      div\n      mul\n      0x20\n      add\n      mload(0x40)\n      swap1\n      dup2\n      add\n      0x40\n      mstore\n      dup1\n      swap3\n      swap2\n      swap1\n      dup2\n      dup2\n      mstore\n      0x20\n      add\n      dup3\n      dup1\n      sload\n      tag_103\n      swap1\n      tag_54\n      jump\t// in\n    tag_103:\n      dup1\n      iszero\n      tag_104\n      jumpi\n      dup1\n      0x1f\n      lt\n      tag_105\n      jumpi\n      0x0100\n      dup1\n      dup4\n      sload\n      div\n      mul\n      dup4\n      mstore\n      swap2\n      0x20\n      add\n      swap2\n      jump(tag_104)\n    tag_105:\n      dup3\n      add\n      swap2\n      swap1\n      0x00\n      mstore\n      keccak256(0x00, 0x20)\n      swap1\n    tag_106:\n      dup2\n      sload\n      dup2\n      mstore\n      swap1\n      0x01\n      add\n      swap1\n      0x20\n      add\n      dup1\n      dup4\n      gt\n      tag_106\n      jumpi\n      dup3\n      swap1\n      sub\n      0x1f\n      and\n      dup3\n      add\n      swap2\n    tag_104:\n      pop\n      pop\n      pop\n      pop\n      pop\n      dup2\n      mstore\n      0x20\n      add\n      0x02\n      dup3\n      add\n      sload\n      dup2\n      mstore\n      0x20\n      add\n      0x03\n      dup3\n      add\n      sload\n      dup2\n      mstore\n      0x20\n      add\n      0x04\n      dup3\n      add\n      sload\n      dup2\n      mstore\n      0x20\n      add\n      0x05\n      dup3\n      add\n      sload\n      dup2\n      mstore\n      0x20\n      add\n      0x06\n      dup3\n      add\n      0x00\n      swap1\n      sload\n      swap1\n      0x0100\n      exp\n      swap1\n      div\n      0xff\n      and\n      iszero\n      iszero\n      iszero\n      iszero\n      dup2\n      mstore\n      0x20\n      add\n      0x06\n      dup3\n      add\n      0x01\n      swap1\n      sload\n      swap1\n      0x0100\n      exp\n      swap1\n      div\n      0xff\n      and\n      iszero\n      iszero\n      iszero\n      iszero\n      dup2\n      mstore\n      pop\n      pop\n      swap1\n      pop\n        /* \"contracts/proposal.sol\":4082:4206  function getProposal(uint256 number) external view returns(Proposal memory) {... */\n      swap2\n      swap1\n      pop\n      jump\t// out\n        /* \"contracts/proposal.sol\":3669:3951  function isVoted(address _address) public view returns (bool) {... */\n    tag_36:\n        /* \"contracts/proposal.sol\":3725:3729  bool */\n      0x00\n        /* \"contracts/proposal.sol\":3750:3756  uint i */\n      dup1\n        /* \"contracts/proposal.sol\":3759:3760  0 */\n      0x00\n        /* \"contracts/proposal.sol\":3750:3760  uint i = 0 */\n      swap1\n      pop\n        /* \"contracts/proposal.sol\":3745:3915  for (uint i = 0; i < voted_addresses.length; i++) {... */\n    tag_108:\n        /* \"contracts/proposal.sol\":3766:3781  voted_addresses */\n      0x02\n        /* \"contracts/proposal.sol\":3766:3788  voted_addresses.length */\n      dup1\n      sload\n      swap1\n      pop\n        /* \"contracts/proposal.sol\":3762:3763  i */\n      dup2\n        /* \"contracts/proposal.sol\":3762:3788  i < voted_addresses.length */\n      lt\n        /* \"contracts/proposal.sol\":3745:3915  for (uint i = 0; i < voted_addresses.length; i++) {... */\n      iszero\n      tag_109\n      jumpi\n        /* \"contracts/proposal.sol\":3839:3847  _address */\n      dup3\n        /* \"contracts/proposal.sol\":3817:3847  voted_addresses[i] == _address */\n      0xffffffffffffffffffffffffffffffffffffffff\n      and\n        /* \"contracts/proposal.sol\":3817:3832  voted_addresses */\n      0x02\n        /* \"contracts/proposal.sol\":3833:3834  i */\n      dup3\n        /* \"contracts/proposal.sol\":3817:3835  voted_addresses[i] */\n      dup2\n      sload\n      dup2\n      lt\n      tag_111\n      jumpi\n      tag_112\n      tag_113\n      jump\t// in\n    tag_112:\n    tag_111:\n      swap1\n      0x00\n      mstore\n      keccak256(0x00, 0x20)\n      add\n      0x00\n      swap1\n      sload\n      swap1\n      0x0100\n      exp\n      swap1\n      div\n      0xffffffffffffffffffffffffffffffffffffffff\n      and\n        /* \"contracts/proposal.sol\":3817:3847  voted_addresses[i] == _address */\n      0xffffffffffffffffffffffffffffffffffffffff\n      and\n      sub\n        /* \"contracts/proposal.sol\":3813:3901  if (voted_addresses[i] == _address) {... */\n      tag_115\n      jumpi\n        /* \"contracts/proposal.sol\":3878:3882  true */\n      0x01\n        /* \"contracts/proposal.sol\":3871:3882  return true */\n      swap2\n      pop\n      pop\n      jump(tag_107)\n        /* \"contracts/proposal.sol\":3813:3901  if (voted_addresses[i] == _address) {... */\n    tag_115:\n        /* \"contracts/proposal.sol\":3790:3793  i++ */\n      dup1\n      dup1\n      0x01\n      add\n      swap2\n      pop\n      pop\n        /* \"contracts/proposal.sol\":3745:3915  for (uint i = 0; i < voted_addresses.length; i++) {... */\n      jump(tag_108)\n    tag_109:\n      pop\n        /* \"contracts/proposal.sol\":3935:3940  false */\n      0x00\n        /* \"contracts/proposal.sol\":3928:3940  return false */\n      swap1\n      pop\n        /* \"contracts/proposal.sol\":3669:3951  function isVoted(address _address) public view returns (bool) {... */\n    tag_107:\n      swap2\n      swap1\n      pop\n      jump\t// out\n        /* \"contracts/proposal.sol\":2564:3034  function calculateCurrentState() private view returns(bool) {... */\n    tag_78:\n        /* \"contracts/proposal.sol\":2618:2622  bool */\n      0x00\n        /* \"contracts/proposal.sol\":2634:2659  Proposal storage proposal */\n      dup1\n        /* \"contracts/proposal.sol\":2662:2678  proposal_history */\n      0x03\n        /* \"contracts/proposal.sol\":2662:2687  proposal_history[counter] */\n      0x00\n        /* \"contracts/proposal.sol\":2679:2686  counter */\n      dup1\n      sload\n        /* \"contracts/proposal.sol\":2662:2687  proposal_history[counter] */\n      dup2\n      mstore\n      0x20\n      add\n      swap1\n      dup2\n      mstore\n      0x20\n      add\n      0x00\n      keccak256\n        /* \"contracts/proposal.sol\":2634:2687  Proposal storage proposal = proposal_history[counter] */\n      swap1\n      pop\n        /* \"contracts/proposal.sol\":2698:2713  uint256 approve */\n      0x00\n        /* \"contracts/proposal.sol\":2716:2724  proposal */\n      dup2\n        /* \"contracts/proposal.sol\":2716:2732  proposal.approve */\n      0x02\n      add\n      sload\n        /* \"contracts/proposal.sol\":2698:2732  uint256 approve = proposal.approve */\n      swap1\n      pop\n        /* \"contracts/proposal.sol\":2742:2756  uint256 reject */\n      0x00\n        /* \"contracts/proposal.sol\":2759:2767  proposal */\n      dup3\n        /* \"contracts/proposal.sol\":2759:2774  proposal.reject */\n      0x03\n      add\n      sload\n        /* \"contracts/proposal.sol\":2742:2774  uint256 reject = proposal.reject */\n      swap1\n      pop\n        /* \"contracts/proposal.sol\":2784:2796  uint256 pass */\n      0x00\n        /* \"contracts/proposal.sol\":2799:2807  proposal */\n      dup4\n        /* \"contracts/proposal.sol\":2799:2812  proposal.pass */\n      0x04\n      add\n      sload\n        /* \"contracts/proposal.sol\":2784:2812  uint256 pass = proposal.pass */\n      swap1\n      pop\n        /* \"contracts/proposal.sol\":2846:2847  1 */\n      0x01\n        /* \"contracts/proposal.sol\":2841:2842  2 */\n      0x02\n        /* \"contracts/proposal.sol\":2826:2834  proposal */\n      dup6\n        /* \"contracts/proposal.sol\":2826:2839  proposal.pass */\n      0x04\n      add\n      sload\n        /* \"contracts/proposal.sol\":2826:2842  proposal.pass %2 */\n      tag_117\n      swap2\n      swap1\n      tag_118\n      jump\t// in\n    tag_117:\n        /* \"contracts/proposal.sol\":2826:2847  proposal.pass %2 == 1 */\n      sub\n        /* \"contracts/proposal.sol\":2822:2883  if (proposal.pass %2 == 1) {... */\n      tag_119\n      jumpi\n        /* \"contracts/proposal.sol\":2871:2872  1 */\n      0x01\n        /* \"contracts/proposal.sol\":2863:2872  pass += 1 */\n      dup2\n      tag_120\n      swap2\n      swap1\n      tag_46\n      jump\t// in\n    tag_120:\n      swap1\n      pop\n        /* \"contracts/proposal.sol\":2822:2883  if (proposal.pass %2 == 1) {... */\n    tag_119:\n        /* \"contracts/proposal.sol\":2907:2908  2 */\n      0x02\n        /* \"contracts/proposal.sol\":2900:2904  pass */\n      dup2\n        /* \"contracts/proposal.sol\":2900:2908  pass / 2 */\n      tag_121\n      swap2\n      swap1\n      tag_122\n      jump\t// in\n    tag_121:\n        /* \"contracts/proposal.sol\":2893:2908  pass = pass / 2 */\n      swap1\n      pop\n        /* \"contracts/proposal.sol\":2942:2946  pass */\n      dup1\n        /* \"contracts/proposal.sol\":2933:2939  reject */\n      dup3\n        /* \"contracts/proposal.sol\":2933:2946  reject + pass */\n      tag_123\n      swap2\n      swap1\n      tag_46\n      jump\t// in\n    tag_123:\n        /* \"contracts/proposal.sol\":2923:2930  approve */\n      dup4\n        /* \"contracts/proposal.sol\":2923:2946  approve > reject + pass */\n      gt\n        /* \"contracts/proposal.sol\":2919:3027  if (approve > reject + pass) {... */\n      iszero\n      tag_124\n      jumpi\n        /* \"contracts/proposal.sol\":2969:2973  true */\n      0x01\n        /* \"contracts/proposal.sol\":2962:2973  return true */\n      swap5\n      pop\n      pop\n      pop\n      pop\n      pop\n      jump(tag_116)\n        /* \"contracts/proposal.sol\":2919:3027  if (approve > reject + pass) {... */\n    tag_124:\n        /* \"contracts/proposal.sol\":3011:3016  false */\n      0x00\n        /* \"contracts/proposal.sol\":3004:3016  return false */\n      swap5\n      pop\n      pop\n      pop\n      pop\n      pop\n        /* \"contracts/proposal.sol\":2564:3034  function calculateCurrentState() private view returns(bool) {... */\n    tag_116:\n      swap1\n      jump\t// out\n    tag_51:\n      mload(0x40)\n      dup1\n      0x0100\n      add\n      0x40\n      mstore\n      dup1\n      0x60\n      dup2\n      mstore\n      0x20\n      add\n      0x60\n      dup2\n      mstore\n      0x20\n      add\n      0x00\n      dup2\n      mstore\n      0x20\n      add\n      0x00\n      dup2\n      mstore\n      0x20\n      add\n      0x00\n      dup2\n      mstore\n      0x20\n      add\n      0x00\n      dup2\n      mstore\n      0x20\n      add\n      iszero(iszero(0x00))\n      dup2\n      mstore\n      0x20\n      add\n      iszero(iszero(0x00))\n      dup2\n      mstore\n      pop\n      swap1\n      jump\t// out\n    tag_94:\n      dup3\n      dup1\n      sload\n      dup3\n      dup3\n      sstore\n      swap1\n      0x00\n      mstore\n      keccak256(0x00, 0x20)\n      swap1\n      dup2\n      add\n      swap3\n      dup3\n      iszero\n      tag_126\n      jumpi\n      swap2\n      0x20\n      mul\n      dup3\n      add\n    tag_127:\n      dup3\n      dup2\n      gt\n      iszero\n      tag_128\n      jumpi\n      dup3\n      mload\n      dup3\n      exp(0x0100, 0x00)\n      dup2\n      sload\n      dup2\n      0xffffffffffffffffffffffffffffffffffffffff\n      mul\n      not\n      and\n      swap1\n      dup4\n      0xffffffffffffffffffffffffffffffffffffffff\n      and\n      mul\n      or\n      swap1\n      sstore\n      pop\n      swap2\n      0x20\n      add\n      swap2\n      swap1\n      0x01\n      add\n      swap1\n      jump(tag_127)\n    tag_128:\n    tag_126:\n      pop\n      swap1\n      pop\n      tag_129\n      swap2\n      swap1\n      tag_130\n      jump\t// in\n    tag_129:\n      pop\n      swap1\n      jump\t// out\n    tag_130:\n    tag_131:\n      dup1\n      dup3\n      gt\n      iszero\n      tag_132\n      jumpi\n      0x00\n      dup2\n      0x00\n      swap1\n      sstore\n      pop\n      0x01\n      add\n      jump(tag_131)\n    tag_132:\n      pop\n      swap1\n      jump\t// out\n        /* \"#utility.yul\":88:205   */\n    tag_134:\n        /* \"#utility.yul\":197:198   */\n      0x00\n        /* \"#utility.yul\":194:195   */\n      dup1\n        /* \"#utility.yul\":187:199   */\n      revert\n        /* \"#utility.yul\":211:328   */\n    tag_135:\n        /* \"#utility.yul\":320:321   */\n      0x00\n        /* \"#utility.yul\":317:318   */\n      dup1\n        /* \"#utility.yul\":310:322   */\n      revert\n        /* \"#utility.yul\":334:460   */\n    tag_136:\n        /* \"#utility.yul\":371:378   */\n      0x00\n        /* \"#utility.yul\":411:453   */\n      0xffffffffffffffffffffffffffffffffffffffff\n        /* \"#utility.yul\":404:409   */\n      dup3\n        /* \"#utility.yul\":400:454   */\n      and\n        /* \"#utility.yul\":389:454   */\n      swap1\n      pop\n        /* \"#utility.yul\":334:460   */\n      swap2\n      swap1\n      pop\n      jump\t// out\n        /* \"#utility.yul\":466:562   */\n    tag_137:\n        /* \"#utility.yul\":503:510   */\n      0x00\n        /* \"#utility.yul\":532:556   */\n      tag_188\n        /* \"#utility.yul\":550:555   */\n      dup3\n        /* \"#utility.yul\":532:556   */\n      tag_136\n      jump\t// in\n    tag_188:\n        /* \"#utility.yul\":521:556   */\n      swap1\n      pop\n        /* \"#utility.yul\":466:562   */\n      swap2\n      swap1\n      pop\n      jump\t// out\n        /* \"#utility.yul\":568:690   */\n    tag_138:\n        /* \"#utility.yul\":641:665   */\n      tag_190\n        /* \"#utility.yul\":659:664   */\n      dup2\n        /* \"#utility.yul\":641:665   */\n      tag_137\n      jump\t// in\n    tag_190:\n        /* \"#utility.yul\":634:639   */\n      dup2\n        /* \"#utility.yul\":631:666   */\n      eq\n        /* \"#utility.yul\":621:684   */\n      tag_191\n      jumpi\n        /* \"#utility.yul\":680:681   */\n      0x00\n        /* \"#utility.yul\":677:678   */\n      dup1\n        /* \"#utility.yul\":670:682   */\n      revert\n        /* \"#utility.yul\":621:684   */\n    tag_191:\n        /* \"#utility.yul\":568:690   */\n      pop\n      jump\t// out\n        /* \"#utility.yul\":696:835   */\n    tag_139:\n        /* \"#utility.yul\":742:747   */\n      0x00\n        /* \"#utility.yul\":780:786   */\n      dup2\n        /* \"#utility.yul\":767:787   */\n      calldataload\n        /* \"#utility.yul\":758:787   */\n      swap1\n      pop\n        /* \"#utility.yul\":796:829   */\n      tag_193\n        /* \"#utility.yul\":823:828   */\n      dup2\n        /* \"#utility.yul\":796:829   */\n      tag_138\n      jump\t// in\n    tag_193:\n        /* \"#utility.yul\":696:835   */\n      swap3\n      swap2\n      pop\n      pop\n      jump\t// out\n        /* \"#utility.yul\":841:1170   */\n    tag_13:\n        /* \"#utility.yul\":900:906   */\n      0x00\n        /* \"#utility.yul\":949:951   */\n      0x20\n        /* \"#utility.yul\":937:946   */\n      dup3\n        /* \"#utility.yul\":928:935   */\n      dup5\n        /* \"#utility.yul\":924:947   */\n      sub\n        /* \"#utility.yul\":920:952   */\n      slt\n        /* \"#utility.yul\":917:1036   */\n      iszero\n      tag_195\n      jumpi\n        /* \"#utility.yul\":955:1034   */\n      tag_196\n      tag_134\n      jump\t// in\n    tag_196:\n        /* \"#utility.yul\":917:1036   */\n    tag_195:\n        /* \"#utility.yul\":1075:1076   */\n      0x00\n        /* \"#utility.yul\":1100:1153   */\n      tag_197\n        /* \"#utility.yul\":1145:1152   */\n      dup5\n        /* \"#utility.yul\":1136:1142   */\n      dup3\n        /* \"#utility.yul\":1125:1134   */\n      dup6\n        /* \"#utility.yul\":1121:1143   */\n      add\n        /* \"#utility.yul\":1100:1153   */\n      tag_139\n      jump\t// in\n    tag_197:\n        /* \"#utility.yul\":1090:1153   */\n      swap2\n      pop\n        /* \"#utility.yul\":1046:1163   */\n      pop\n        /* \"#utility.yul\":841:1170   */\n      swap3\n      swap2\n      pop\n      pop\n      jump\t// out\n        /* \"#utility.yul\":1176:1293   */\n    tag_140:\n        /* \"#utility.yul\":1285:1286   */\n      0x00\n        /* \"#utility.yul\":1282:1283   */\n      dup1\n        /* \"#utility.yul\":1275:1287   */\n      revert\n        /* \"#utility.yul\":1299:1416   */\n    tag_141:\n        /* \"#utility.yul\":1408:1409   */\n      0x00\n        /* \"#utility.yul\":1405:1406   */\n      dup1\n        /* \"#utility.yul\":1398:1410   */\n      revert\n        /* \"#utility.yul\":1422:1539   */\n    tag_142:\n        /* \"#utility.yul\":1531:1532   */\n      0x00\n        /* \"#utility.yul\":1528:1529   */\n      dup1\n        /* \"#utility.yul\":1521:1533   */\n      revert\n        /* \"#utility.yul\":1559:2112   */\n    tag_143:\n        /* \"#utility.yul\":1617:1625   */\n      0x00\n        /* \"#utility.yul\":1627:1633   */\n      dup1\n        /* \"#utility.yul\":1677:1680   */\n      dup4\n        /* \"#utility.yul\":1670:1674   */\n      0x1f\n        /* \"#utility.yul\":1662:1668   */\n      dup5\n        /* \"#utility.yul\":1658:1675   */\n      add\n        /* \"#utility.yul\":1654:1681   */\n      slt\n        /* \"#utility.yul\":1644:1766   */\n      tag_202\n      jumpi\n        /* \"#utility.yul\":1685:1764   */\n      tag_203\n      tag_140\n      jump\t// in\n    tag_203:\n        /* \"#utility.yul\":1644:1766   */\n    tag_202:\n        /* \"#utility.yul\":1798:1804   */\n      dup3\n        /* \"#utility.yul\":1785:1805   */\n      calldataload\n        /* \"#utility.yul\":1775:1805   */\n      swap1\n      pop\n        /* \"#utility.yul\":1828:1846   */\n      0xffffffffffffffff\n        /* \"#utility.yul\":1820:1826   */\n      dup2\n        /* \"#utility.yul\":1817:1847   */\n      gt\n        /* \"#utility.yul\":1814:1931   */\n      iszero\n      tag_204\n      jumpi\n        /* \"#utility.yul\":1850:1929   */\n      tag_205\n      tag_141\n      jump\t// in\n    tag_205:\n        /* \"#utility.yul\":1814:1931   */\n    tag_204:\n        /* \"#utility.yul\":1964:1968   */\n      0x20\n        /* \"#utility.yul\":1956:1962   */\n      dup4\n        /* \"#utility.yul\":1952:1969   */\n      add\n        /* \"#utility.yul\":1940:1969   */\n      swap2\n      pop\n        /* \"#utility.yul\":2018:2021   */\n      dup4\n        /* \"#utility.yul\":2010:2014   */\n      0x01\n        /* \"#utility.yul\":2002:2008   */\n      dup3\n        /* \"#utility.yul\":1998:2015   */\n      mul\n        /* \"#utility.yul\":1988:1996   */\n      dup4\n        /* \"#utility.yul\":1984:2016   */\n      add\n        /* \"#utility.yul\":1981:2022   */\n      gt\n        /* \"#utility.yul\":1978:2106   */\n      iszero\n      tag_206\n      jumpi\n        /* \"#utility.yul\":2025:2104   */\n      tag_207\n      tag_142\n      jump\t// in\n    tag_207:\n        /* \"#utility.yul\":1978:2106   */\n    tag_206:\n        /* \"#utility.yul\":1559:2112   */\n      swap3\n      pop\n      swap3\n      swap1\n      pop\n      jump\t// out\n        /* \"#utility.yul\":2118:2195   */\n    tag_144:\n        /* \"#utility.yul\":2155:2162   */\n      0x00\n        /* \"#utility.yul\":2184:2189   */\n      dup2\n        /* \"#utility.yul\":2173:2189   */\n      swap1\n      pop\n        /* \"#utility.yul\":2118:2195   */\n      swap2\n      swap1\n      pop\n      jump\t// out\n        /* \"#utility.yul\":2201:2323   */\n    tag_145:\n        /* \"#utility.yul\":2274:2298   */\n      tag_210\n        /* \"#utility.yul\":2292:2297   */\n      dup2\n        /* \"#utility.yul\":2274:2298   */\n      tag_144\n      jump\t// in\n    tag_210:\n        /* \"#utility.yul\":2267:2272   */\n      dup2\n        /* \"#utility.yul\":2264:2299   */\n      eq\n        /* \"#utility.yul\":2254:2317   */\n      tag_211\n      jumpi\n        /* \"#utility.yul\":2313:2314   */\n      0x00\n        /* \"#utility.yul\":2310:2311   */\n      dup1\n        /* \"#utility.yul\":2303:2315   */\n      revert\n        /* \"#utility.yul\":2254:2317   */\n    tag_211:\n        /* \"#utility.yul\":2201:2323   */\n      pop\n      jump\t// out\n        /* \"#utility.yul\":2329:2468   */\n    tag_146:\n        /* \"#utility.yul\":2375:2380   */\n      0x00\n        /* \"#utility.yul\":2413:2419   */\n      dup2\n        /* \"#utility.yul\":2400:2420   */\n      calldataload\n        /* \"#utility.yul\":2391:2420   */\n      swap1\n      pop\n        /* \"#utility.yul\":2429:2462   */\n      tag_213\n        /* \"#utility.yul\":2456:2461   */\n      dup2\n        /* \"#utility.yul\":2429:2462   */\n      tag_145\n      jump\t// in\n    tag_213:\n        /* \"#utility.yul\":2329:2468   */\n      swap3\n      swap2\n      pop\n      pop\n      jump\t// out\n        /* \"#utility.yul\":2474:3493   */\n    tag_17:\n        /* \"#utility.yul\":2575:2581   */\n      0x00\n        /* \"#utility.yul\":2583:2589   */\n      dup1\n        /* \"#utility.yul\":2591:2597   */\n      0x00\n        /* \"#utility.yul\":2599:2605   */\n      dup1\n        /* \"#utility.yul\":2607:2613   */\n      0x00\n        /* \"#utility.yul\":2656:2658   */\n      0x60\n        /* \"#utility.yul\":2644:2653   */\n      dup7\n        /* \"#utility.yul\":2635:2642   */\n      dup9\n        /* \"#utility.yul\":2631:2654   */\n      sub\n        /* \"#utility.yul\":2627:2659   */\n      slt\n        /* \"#utility.yul\":2624:2743   */\n      iszero\n      tag_215\n      jumpi\n        /* \"#utility.yul\":2662:2741   */\n      tag_216\n      tag_134\n      jump\t// in\n    tag_216:\n        /* \"#utility.yul\":2624:2743   */\n    tag_215:\n        /* \"#utility.yul\":2810:2811   */\n      0x00\n        /* \"#utility.yul\":2799:2808   */\n      dup7\n        /* \"#utility.yul\":2795:2812   */\n      add\n        /* \"#utility.yul\":2782:2813   */\n      calldataload\n        /* \"#utility.yul\":2840:2858   */\n      0xffffffffffffffff\n        /* \"#utility.yul\":2832:2838   */\n      dup2\n        /* \"#utility.yul\":2829:2859   */\n      gt\n        /* \"#utility.yul\":2826:2943   */\n      iszero\n      tag_217\n      jumpi\n        /* \"#utility.yul\":2862:2941   */\n      tag_218\n      tag_135\n      jump\t// in\n    tag_218:\n        /* \"#utility.yul\":2826:2943   */\n    tag_217:\n        /* \"#utility.yul\":2975:3040   */\n      tag_219\n        /* \"#utility.yul\":3032:3039   */\n      dup9\n        /* \"#utility.yul\":3023:3029   */\n      dup3\n        /* \"#utility.yul\":3012:3021   */\n      dup10\n        /* \"#utility.yul\":3008:3030   */\n      add\n        /* \"#utility.yul\":2975:3040   */\n      tag_143\n      jump\t// in\n    tag_219:\n        /* \"#utility.yul\":2957:3040   */\n      swap6\n      pop\n      swap6\n      pop\n        /* \"#utility.yul\":2753:3050   */\n      pop\n        /* \"#utility.yul\":3117:3119   */\n      0x20\n        /* \"#utility.yul\":3106:3115   */\n      dup7\n        /* \"#utility.yul\":3102:3120   */\n      add\n        /* \"#utility.yul\":3089:3121   */\n      calldataload\n        /* \"#utility.yul\":3148:3166   */\n      0xffffffffffffffff\n        /* \"#utility.yul\":3140:3146   */\n      dup2\n        /* \"#utility.yul\":3137:3167   */\n      gt\n        /* \"#utility.yul\":3134:3251   */\n      iszero\n      tag_220\n      jumpi\n        /* \"#utility.yul\":3170:3249   */\n      tag_221\n      tag_135\n      jump\t// in\n    tag_221:\n        /* \"#utility.yul\":3134:3251   */\n    tag_220:\n        /* \"#utility.yul\":3283:3348   */\n      tag_222\n        /* \"#utility.yul\":3340:3347   */\n      dup9\n        /* \"#utility.yul\":3331:3337   */\n      dup3\n        /* \"#utility.yul\":3320:3329   */\n      dup10\n        /* \"#utility.yul\":3316:3338   */\n      add\n        /* \"#utility.yul\":3283:3348   */\n      tag_143\n      jump\t// in\n    tag_222:\n        /* \"#utility.yul\":3265:3348   */\n      swap4\n      pop\n      swap4\n      pop\n        /* \"#utility.yul\":3060:3358   */\n      pop\n        /* \"#utility.yul\":3397:3399   */\n      0x40\n        /* \"#utility.yul\":3423:3476   */\n      tag_223\n        /* \"#utility.yul\":3468:3475   */\n      dup9\n        /* \"#utility.yul\":3459:3465   */\n      dup3\n        /* \"#utility.yul\":3448:3457   */\n      dup10\n        /* \"#utility.yul\":3444:3466   */\n      add\n        /* \"#utility.yul\":3423:3476   */\n      tag_146\n      jump\t// in\n    tag_223:\n        /* \"#utility.yul\":3413:3476   */\n      swap2\n      pop\n        /* \"#utility.yul\":3368:3486   */\n      pop\n        /* \"#utility.yul\":2474:3493   */\n      swap3\n      swap6\n      pop\n      swap3\n      swap6\n      swap1\n      swap4\n      pop\n      jump\t// out\n        /* \"#utility.yul\":3499:3598   */\n    tag_147:\n        /* \"#utility.yul\":3551:3557   */\n      0x00\n        /* \"#utility.yul\":3585:3590   */\n      dup2\n        /* \"#utility.yul\":3579:3591   */\n      mload\n        /* \"#utility.yul\":3569:3591   */\n      swap1\n      pop\n        /* \"#utility.yul\":3499:3598   */\n      swap2\n      swap1\n      pop\n      jump\t// out\n        /* \"#utility.yul\":3604:3763   */\n    tag_148:\n        /* \"#utility.yul\":3678:3689   */\n      0x00\n        /* \"#utility.yul\":3712:3718   */\n      dup3\n        /* \"#utility.yul\":3707:3710   */\n      dup3\n        /* \"#utility.yul\":3700:3719   */\n      mstore\n        /* \"#utility.yul\":3752:3756   */\n      0x20\n        /* \"#utility.yul\":3747:3750   */\n      dup3\n        /* \"#utility.yul\":3743:3757   */\n      add\n        /* \"#utility.yul\":3728:3757   */\n      swap1\n      pop\n        /* \"#utility.yul\":3604:3763   */\n      swap3\n      swap2\n      pop\n      pop\n      jump\t// out\n        /* \"#utility.yul\":3769:4015   */\n    tag_149:\n        /* \"#utility.yul\":3850:3851   */\n      0x00\n        /* \"#utility.yul\":3860:3973   */\n    tag_227:\n        /* \"#utility.yul\":3874:3880   */\n      dup4\n        /* \"#utility.yul\":3871:3872   */\n      dup2\n        /* \"#utility.yul\":3868:3881   */\n      lt\n        /* \"#utility.yul\":3860:3973   */\n      iszero\n      tag_229\n      jumpi\n        /* \"#utility.yul\":3959:3960   */\n      dup1\n        /* \"#utility.yul\":3954:3957   */\n      dup3\n        /* \"#utility.yul\":3950:3961   */\n      add\n        /* \"#utility.yul\":3944:3962   */\n      mload\n        /* \"#utility.yul\":3940:3941   */\n      dup2\n        /* \"#utility.yul\":3935:3938   */\n      dup5\n        /* \"#utility.yul\":3931:3942   */\n      add\n        /* \"#utility.yul\":3924:3963   */\n      mstore\n        /* \"#utility.yul\":3896:3898   */\n      0x20\n        /* \"#utility.yul\":3893:3894   */\n      dup2\n        /* \"#utility.yul\":3889:3899   */\n      add\n        /* \"#utility.yul\":3884:3899   */\n      swap1\n      pop\n        /* \"#utility.yul\":3860:3973   */\n      jump(tag_227)\n    tag_229:\n        /* \"#utility.yul\":4007:4008   */\n      0x00\n        /* \"#utility.yul\":3998:4004   */\n      dup5\n        /* \"#utility.yul\":3993:3996   */\n      dup5\n        /* \"#utility.yul\":3989:4005   */\n      add\n        /* \"#utility.yul\":3982:4009   */\n      mstore\n        /* \"#utility.yul\":3831:4015   */\n      pop\n        /* \"#utility.yul\":3769:4015   */\n      pop\n      pop\n      pop\n      jump\t// out\n        /* \"#utility.yul\":4021:4123   */\n    tag_150:\n        /* \"#utility.yul\":4062:4068   */\n      0x00\n        /* \"#utility.yul\":4113:4115   */\n      0x1f\n        /* \"#utility.yul\":4109:4116   */\n      not\n        /* \"#utility.yul\":4104:4106   */\n      0x1f\n        /* \"#utility.yul\":4097:4102   */\n      dup4\n        /* \"#utility.yul\":4093:4107   */\n      add\n        /* \"#utility.yul\":4089:4117   */\n      and\n        /* \"#utility.yul\":4079:4117   */\n      swap1\n      pop\n        /* \"#utility.yul\":4021:4123   */\n      swap2\n      swap1\n      pop\n      jump\t// out\n        /* \"#utility.yul\":4129:4486   */\n    tag_151:\n        /* \"#utility.yul\":4207:4210   */\n      0x00\n        /* \"#utility.yul\":4235:4274   */\n      tag_232\n        /* \"#utility.yul\":4268:4273   */\n      dup3\n        /* \"#utility.yul\":4235:4274   */\n      tag_147\n      jump\t// in\n    tag_232:\n        /* \"#utility.yul\":4290:4351   */\n      tag_233\n        /* \"#utility.yul\":4344:4350   */\n      dup2\n        /* \"#utility.yul\":4339:4342   */\n      dup6\n        /* \"#utility.yul\":4290:4351   */\n      tag_148\n      jump\t// in\n    tag_233:\n        /* \"#utility.yul\":4283:4351   */\n      swap4\n      pop\n        /* \"#utility.yul\":4360:4425   */\n      tag_234\n        /* \"#utility.yul\":4418:4424   */\n      dup2\n        /* \"#utility.yul\":4413:4416   */\n      dup6\n        /* \"#utility.yul\":4406:4410   */\n      0x20\n        /* \"#utility.yul\":4399:4404   */\n      dup7\n        /* \"#utility.yul\":4395:4411   */\n      add\n        /* \"#utility.yul\":4360:4425   */\n      tag_149\n      jump\t// in\n    tag_234:\n        /* \"#utility.yul\":4450:4479   */\n      tag_235\n        /* \"#utility.yul\":4472:4478   */\n      dup2\n        /* \"#utility.yul\":4450:4479   */\n      tag_150\n      jump\t// in\n    tag_235:\n        /* \"#utility.yul\":4445:4448   */\n      dup5\n        /* \"#utility.yul\":4441:4480   */\n      add\n        /* \"#utility.yul\":4434:4480   */\n      swap2\n      pop\n        /* \"#utility.yul\":4211:4486   */\n      pop\n        /* \"#utility.yul\":4129:4486   */\n      swap3\n      swap2\n      pop\n      pop\n      jump\t// out\n        /* \"#utility.yul\":4492:4600   */\n    tag_152:\n        /* \"#utility.yul\":4569:4593   */\n      tag_237\n        /* \"#utility.yul\":4587:4592   */\n      dup2\n        /* \"#utility.yul\":4569:4593   */\n      tag_144\n      jump\t// in\n    tag_237:\n        /* \"#utility.yul\":4564:4567   */\n      dup3\n        /* \"#utility.yul\":4557:4594   */\n      mstore\n        /* \"#utility.yul\":4492:4600   */\n      pop\n      pop\n      jump\t// out\n        /* \"#utility.yul\":4606:4696   */\n    tag_153:\n        /* \"#utility.yul\":4640:4647   */\n      0x00\n        /* \"#utility.yul\":4683:4688   */\n      dup2\n        /* \"#utility.yul\":4676:4689   */\n      iszero\n        /* \"#utility.yul\":4669:4690   */\n      iszero\n        /* \"#utility.yul\":4658:4690   */\n      swap1\n      pop\n        /* \"#utility.yul\":4606:4696   */\n      swap2\n      swap1\n      pop\n      jump\t// out\n        /* \"#utility.yul\":4702:4801   */\n    tag_154:\n        /* \"#utility.yul\":4773:4794   */\n      tag_240\n        /* \"#utility.yul\":4788:4793   */\n      dup2\n        /* \"#utility.yul\":4773:4794   */\n      tag_153\n      jump\t// in\n    tag_240:\n        /* \"#utility.yul\":4768:4771   */\n      dup3\n        /* \"#utility.yul\":4761:4795   */\n      mstore\n        /* \"#utility.yul\":4702:4801   */\n      pop\n      pop\n      jump\t// out\n        /* \"#utility.yul\":4883:6632   */\n    tag_155:\n        /* \"#utility.yul\":5000:5003   */\n      0x00\n        /* \"#utility.yul\":5036:5042   */\n      0x0100\n        /* \"#utility.yul\":5031:5034   */\n      dup4\n        /* \"#utility.yul\":5027:5043   */\n      add\n        /* \"#utility.yul\":5126:5130   */\n      0x00\n        /* \"#utility.yul\":5119:5124   */\n      dup4\n        /* \"#utility.yul\":5115:5131   */\n      add\n        /* \"#utility.yul\":5109:5132   */\n      mload\n        /* \"#utility.yul\":5179:5182   */\n      dup5\n        /* \"#utility.yul\":5173:5177   */\n      dup3\n        /* \"#utility.yul\":5169:5183   */\n      sub\n        /* \"#utility.yul\":5162:5166   */\n      0x00\n        /* \"#utility.yul\":5157:5160   */\n      dup7\n        /* \"#utility.yul\":5153:5167   */\n      add\n        /* \"#utility.yul\":5146:5184   */\n      mstore\n        /* \"#utility.yul\":5205:5278   */\n      tag_242\n        /* \"#utility.yul\":5273:5277   */\n      dup3\n        /* \"#utility.yul\":5259:5271   */\n      dup3\n        /* \"#utility.yul\":5205:5278   */\n      tag_151\n      jump\t// in\n    tag_242:\n        /* \"#utility.yul\":5197:5278   */\n      swap2\n      pop\n        /* \"#utility.yul\":5053:5289   */\n      pop\n        /* \"#utility.yul\":5378:5382   */\n      0x20\n        /* \"#utility.yul\":5371:5376   */\n      dup4\n        /* \"#utility.yul\":5367:5383   */\n      add\n        /* \"#utility.yul\":5361:5384   */\n      mload\n        /* \"#utility.yul\":5431:5434   */\n      dup5\n        /* \"#utility.yul\":5425:5429   */\n      dup3\n        /* \"#utility.yul\":5421:5435   */\n      sub\n        /* \"#utility.yul\":5414:5418   */\n      0x20\n        /* \"#utility.yul\":5409:5412   */\n      dup7\n        /* \"#utility.yul\":5405:5419   */\n      add\n        /* \"#utility.yul\":5398:5436   */\n      mstore\n        /* \"#utility.yul\":5457:5530   */\n      tag_243\n        /* \"#utility.yul\":5525:5529   */\n      dup3\n        /* \"#utility.yul\":5511:5523   */\n      dup3\n        /* \"#utility.yul\":5457:5530   */\n      tag_151\n      jump\t// in\n    tag_243:\n        /* \"#utility.yul\":5449:5530   */\n      swap2\n      pop\n        /* \"#utility.yul\":5299:5541   */\n      pop\n        /* \"#utility.yul\":5626:5630   */\n      0x40\n        /* \"#utility.yul\":5619:5624   */\n      dup4\n        /* \"#utility.yul\":5615:5631   */\n      add\n        /* \"#utility.yul\":5609:5632   */\n      mload\n        /* \"#utility.yul\":5645:5708   */\n      tag_244\n        /* \"#utility.yul\":5702:5706   */\n      0x40\n        /* \"#utility.yul\":5697:5700   */\n      dup7\n        /* \"#utility.yul\":5693:5707   */\n      add\n        /* \"#utility.yul\":5679:5691   */\n      dup3\n        /* \"#utility.yul\":5645:5708   */\n      tag_152\n      jump\t// in\n    tag_244:\n        /* \"#utility.yul\":5551:5718   */\n      pop\n        /* \"#utility.yul\":5802:5806   */\n      0x60\n        /* \"#utility.yul\":5795:5800   */\n      dup4\n        /* \"#utility.yul\":5791:5807   */\n      add\n        /* \"#utility.yul\":5785:5808   */\n      mload\n        /* \"#utility.yul\":5821:5884   */\n      tag_245\n        /* \"#utility.yul\":5878:5882   */\n      0x60\n        /* \"#utility.yul\":5873:5876   */\n      dup7\n        /* \"#utility.yul\":5869:5883   */\n      add\n        /* \"#utility.yul\":5855:5867   */\n      dup3\n        /* \"#utility.yul\":5821:5884   */\n      tag_152\n      jump\t// in\n    tag_245:\n        /* \"#utility.yul\":5728:5894   */\n      pop\n        /* \"#utility.yul\":5976:5980   */\n      0x80\n        /* \"#utility.yul\":5969:5974   */\n      dup4\n        /* \"#utility.yul\":5965:5981   */\n      add\n        /* \"#utility.yul\":5959:5982   */\n      mload\n        /* \"#utility.yul\":5995:6058   */\n      tag_246\n        /* \"#utility.yul\":6052:6056   */\n      0x80\n        /* \"#utility.yul\":6047:6050   */\n      dup7\n        /* \"#utility.yul\":6043:6057   */\n      add\n        /* \"#utility.yul\":6029:6041   */\n      dup3\n        /* \"#utility.yul\":5995:6058   */\n      tag_152\n      jump\t// in\n    tag_246:\n        /* \"#utility.yul\":5904:6068   */\n      pop\n        /* \"#utility.yul\":6163:6167   */\n      0xa0\n        /* \"#utility.yul\":6156:6161   */\n      dup4\n        /* \"#utility.yul\":6152:6168   */\n      add\n        /* \"#utility.yul\":6146:6169   */\n      mload\n        /* \"#utility.yul\":6182:6245   */\n      tag_247\n        /* \"#utility.yul\":6239:6243   */\n      0xa0\n        /* \"#utility.yul\":6234:6237   */\n      dup7\n        /* \"#utility.yul\":6230:6244   */\n      add\n        /* \"#utility.yul\":6216:6228   */\n      dup3\n        /* \"#utility.yul\":6182:6245   */\n      tag_152\n      jump\t// in\n    tag_247:\n        /* \"#utility.yul\":6078:6255   */\n      pop\n        /* \"#utility.yul\":6346:6350   */\n      0xc0\n        /* \"#utility.yul\":6339:6344   */\n      dup4\n        /* \"#utility.yul\":6335:6351   */\n      add\n        /* \"#utility.yul\":6329:6352   */\n      mload\n        /* \"#utility.yul\":6365:6422   */\n      tag_248\n        /* \"#utility.yul\":6416:6420   */\n      0xc0\n        /* \"#utility.yul\":6411:6414   */\n      dup7\n        /* \"#utility.yul\":6407:6421   */\n      add\n        /* \"#utility.yul\":6393:6405   */\n      dup3\n        /* \"#utility.yul\":6365:6422   */\n      tag_154\n      jump\t// in\n    tag_248:\n        /* \"#utility.yul\":6265:6432   */\n      pop\n        /* \"#utility.yul\":6519:6523   */\n      0xe0\n        /* \"#utility.yul\":6512:6517   */\n      dup4\n        /* \"#utility.yul\":6508:6524   */\n      add\n        /* \"#utility.yul\":6502:6525   */\n      mload\n        /* \"#utility.yul\":6538:6595   */\n      tag_249\n        /* \"#utility.yul\":6589:6593   */\n      0xe0\n        /* \"#utility.yul\":6584:6587   */\n      dup7\n        /* \"#utility.yul\":6580:6594   */\n      add\n        /* \"#utility.yul\":6566:6578   */\n      dup3\n        /* \"#utility.yul\":6538:6595   */\n      tag_154\n      jump\t// in\n    tag_249:\n        /* \"#utility.yul\":6442:6605   */\n      pop\n        /* \"#utility.yul\":6622:6626   */\n      dup1\n        /* \"#utility.yul\":6615:6626   */\n      swap2\n      pop\n        /* \"#utility.yul\":5005:6632   */\n      pop\n        /* \"#utility.yul\":4883:6632   */\n      swap3\n      swap2\n      pop\n      pop\n      jump\t// out\n        /* \"#utility.yul\":6638:7007   */\n    tag_22:\n        /* \"#utility.yul\":6779:6783   */\n      0x00\n        /* \"#utility.yul\":6817:6819   */\n      0x20\n        /* \"#utility.yul\":6806:6815   */\n      dup3\n        /* \"#utility.yul\":6802:6820   */\n      add\n        /* \"#utility.yul\":6794:6820   */\n      swap1\n      pop\n        /* \"#utility.yul\":6866:6875   */\n      dup2\n        /* \"#utility.yul\":6860:6864   */\n      dup2\n        /* \"#utility.yul\":6856:6876   */\n      sub\n        /* \"#utility.yul\":6852:6853   */\n      0x00\n        /* \"#utility.yul\":6841:6850   */\n      dup4\n        /* \"#utility.yul\":6837:6854   */\n      add\n        /* \"#utility.yul\":6830:6877   */\n      mstore\n        /* \"#utility.yul\":6894:7000   */\n      tag_251\n        /* \"#utility.yul\":6995:6999   */\n      dup2\n        /* \"#utility.yul\":6986:6992   */\n      dup5\n        /* \"#utility.yul\":6894:7000   */\n      tag_155\n      jump\t// in\n    tag_251:\n        /* \"#utility.yul\":6886:7000   */\n      swap1\n      pop\n        /* \"#utility.yul\":6638:7007   */\n      swap3\n      swap2\n      pop\n      pop\n      jump\t// out\n        /* \"#utility.yul\":7013:7099   */\n    tag_156:\n        /* \"#utility.yul\":7048:7055   */\n      0x00\n        /* \"#utility.yul\":7088:7092   */\n      0xff\n        /* \"#utility.yul\":7081:7086   */\n      dup3\n        /* \"#utility.yul\":7077:7093   */\n      and\n        /* \"#utility.yul\":7066:7093   */\n      swap1\n      pop\n        /* \"#utility.yul\":7013:7099   */\n      swap2\n      swap1\n      pop\n      jump\t// out\n        /* \"#utility.yul\":7105:7223   */\n    tag_157:\n        /* \"#utility.yul\":7176:7198   */\n      tag_254\n        /* \"#utility.yul\":7192:7197   */\n      dup2\n        /* \"#utility.yul\":7176:7198   */\n      tag_156\n      jump\t// in\n    tag_254:\n        /* \"#utility.yul\":7169:7174   */\n      dup2\n        /* \"#utility.yul\":7166:7199   */\n      eq\n        /* \"#utility.yul\":7156:7217   */\n      tag_255\n      jumpi\n        /* \"#utility.yul\":7213:7214   */\n      0x00\n        /* \"#utility.yul\":7210:7211   */\n      dup1\n        /* \"#utility.yul\":7203:7215   */\n      revert\n        /* \"#utility.yul\":7156:7217   */\n    tag_255:\n        /* \"#utility.yul\":7105:7223   */\n      pop\n      jump\t// out\n        /* \"#utility.yul\":7229:7364   */\n    tag_158:\n        /* \"#utility.yul\":7273:7278   */\n      0x00\n        /* \"#utility.yul\":7311:7317   */\n      dup2\n        /* \"#utility.yul\":7298:7318   */\n      calldataload\n        /* \"#utility.yul\":7289:7318   */\n      swap1\n      pop\n        /* \"#utility.yul\":7327:7358   */\n      tag_257\n        /* \"#utility.yul\":7352:7357   */\n      dup2\n        /* \"#utility.yul\":7327:7358   */\n      tag_157\n      jump\t// in\n    tag_257:\n        /* \"#utility.yul\":7229:7364   */\n      swap3\n      swap2\n      pop\n      pop\n      jump\t// out\n        /* \"#utility.yul\":7370:7695   */\n    tag_27:\n        /* \"#utility.yul\":7427:7433   */\n      0x00\n        /* \"#utility.yul\":7476:7478   */\n      0x20\n        /* \"#utility.yul\":7464:7473   */\n      dup3\n        /* \"#utility.yul\":7455:7462   */\n      dup5\n        /* \"#utility.yul\":7451:7474   */\n      sub\n        /* \"#utility.yul\":7447:7479   */\n      slt\n        /* \"#utility.yul\":7444:7563   */\n      iszero\n      tag_259\n      jumpi\n        /* \"#utility.yul\":7482:7561   */\n      tag_260\n      tag_134\n      jump\t// in\n    tag_260:\n        /* \"#utility.yul\":7444:7563   */\n    tag_259:\n        /* \"#utility.yul\":7602:7603   */\n      0x00\n        /* \"#utility.yul\":7627:7678   */\n      tag_261\n        /* \"#utility.yul\":7670:7677   */\n      dup5\n        /* \"#utility.yul\":7661:7667   */\n      dup3\n        /* \"#utility.yul\":7650:7659   */\n      dup6\n        /* \"#utility.yul\":7646:7668   */\n      add\n        /* \"#utility.yul\":7627:7678   */\n      tag_158\n      jump\t// in\n    tag_261:\n        /* \"#utility.yul\":7617:7678   */\n      swap2\n      pop\n        /* \"#utility.yul\":7573:7688   */\n      pop\n        /* \"#utility.yul\":7370:7695   */\n      swap3\n      swap2\n      pop\n      pop\n      jump\t// out\n        /* \"#utility.yul\":7701:8030   */\n    tag_31:\n        /* \"#utility.yul\":7760:7766   */\n      0x00\n        /* \"#utility.yul\":7809:7811   */\n      0x20\n        /* \"#utility.yul\":7797:7806   */\n      dup3\n        /* \"#utility.yul\":7788:7795   */\n      dup5\n        /* \"#utility.yul\":7784:7807   */\n      sub\n        /* \"#utility.yul\":7780:7812   */\n      slt\n        /* \"#utility.yul\":7777:7896   */\n      iszero\n      tag_263\n      jumpi\n        /* \"#utility.yul\":7815:7894   */\n      tag_264\n      tag_134\n      jump\t// in\n    tag_264:\n        /* \"#utility.yul\":7777:7896   */\n    tag_263:\n        /* \"#utility.yul\":7935:7936   */\n      0x00\n        /* \"#utility.yul\":7960:8013   */\n      tag_265\n        /* \"#utility.yul\":8005:8012   */\n      dup5\n        /* \"#utility.yul\":7996:8002   */\n      dup3\n        /* \"#utility.yul\":7985:7994   */\n      dup6\n        /* \"#utility.yul\":7981:8003   */\n      add\n        /* \"#utility.yul\":7960:8013   */\n      tag_146\n      jump\t// in\n    tag_265:\n        /* \"#utility.yul\":7950:8013   */\n      swap2\n      pop\n        /* \"#utility.yul\":7906:8023   */\n      pop\n        /* \"#utility.yul\":7701:8030   */\n      swap3\n      swap2\n      pop\n      pop\n      jump\t// out\n        /* \"#utility.yul\":8036:8145   */\n    tag_159:\n        /* \"#utility.yul\":8117:8138   */\n      tag_267\n        /* \"#utility.yul\":8132:8137   */\n      dup2\n        /* \"#utility.yul\":8117:8138   */\n      tag_153\n      jump\t// in\n    tag_267:\n        /* \"#utility.yul\":8112:8115   */\n      dup3\n        /* \"#utility.yul\":8105:8139   */\n      mstore\n        /* \"#utility.yul\":8036:8145   */\n      pop\n      pop\n      jump\t// out\n        /* \"#utility.yul\":8151:8361   */\n    tag_38:\n        /* \"#utility.yul\":8238:8242   */\n      0x00\n        /* \"#utility.yul\":8276:8278   */\n      0x20\n        /* \"#utility.yul\":8265:8274   */\n      dup3\n        /* \"#utility.yul\":8261:8279   */\n      add\n        /* \"#utility.yul\":8253:8279   */\n      swap1\n      pop\n        /* \"#utility.yul\":8289:8354   */\n      tag_269\n        /* \"#utility.yul\":8351:8352   */\n      0x00\n        /* \"#utility.yul\":8340:8349   */\n      dup4\n        /* \"#utility.yul\":8336:8353   */\n      add\n        /* \"#utility.yul\":8327:8333   */\n      dup5\n        /* \"#utility.yul\":8289:8354   */\n      tag_159\n      jump\t// in\n    tag_269:\n        /* \"#utility.yul\":8151:8361   */\n      swap3\n      swap2\n      pop\n      pop\n      jump\t// out\n        /* \"#utility.yul\":8367:8547   */\n    tag_160:\n        /* \"#utility.yul\":8415:8492   */\n      0x4e487b7100000000000000000000000000000000000000000000000000000000\n        /* \"#utility.yul\":8412:8413   */\n      0x00\n        /* \"#utility.yul\":8405:8493   */\n      mstore\n        /* \"#utility.yul\":8512:8516   */\n      0x11\n        /* \"#utility.yul\":8509:8510   */\n      0x04\n        /* \"#utility.yul\":8502:8517   */\n      mstore\n        /* \"#utility.yul\":8536:8540   */\n      0x24\n        /* \"#utility.yul\":8533:8534   */\n      0x00\n        /* \"#utility.yul\":8526:8541   */\n      revert\n        /* \"#utility.yul\":8553:8744   */\n    tag_46:\n        /* \"#utility.yul\":8593:8596   */\n      0x00\n        /* \"#utility.yul\":8612:8632   */\n      tag_272\n        /* \"#utility.yul\":8630:8631   */\n      dup3\n        /* \"#utility.yul\":8612:8632   */\n      tag_144\n      jump\t// in\n    tag_272:\n        /* \"#utility.yul\":8607:8632   */\n      swap2\n      pop\n        /* \"#utility.yul\":8646:8666   */\n      tag_273\n        /* \"#utility.yul\":8664:8665   */\n      dup4\n        /* \"#utility.yul\":8646:8666   */\n      tag_144\n      jump\t// in\n    tag_273:\n        /* \"#utility.yul\":8641:8666   */\n      swap3\n      pop\n        /* \"#utility.yul\":8689:8690   */\n      dup3\n        /* \"#utility.yul\":8686:8687   */\n      dup3\n        /* \"#utility.yul\":8682:8691   */\n      add\n        /* \"#utility.yul\":8675:8691   */\n      swap1\n      pop\n        /* \"#utility.yul\":8710:8713   */\n      dup1\n        /* \"#utility.yul\":8707:8708   */\n      dup3\n        /* \"#utility.yul\":8704:8714   */\n      gt\n        /* \"#utility.yul\":8701:8737   */\n      iszero\n      tag_274\n      jumpi\n        /* \"#utility.yul\":8717:8735   */\n      tag_275\n      tag_160\n      jump\t// in\n    tag_275:\n        /* \"#utility.yul\":8701:8737   */\n    tag_274:\n        /* \"#utility.yul\":8553:8744   */\n      swap3\n      swap2\n      pop\n      pop\n      jump\t// out\n        /* \"#utility.yul\":8750:8930   */\n    tag_161:\n        /* \"#utility.yul\":8798:8875   */\n      0x4e487b7100000000000000000000000000000000000000000000000000000000\n        /* \"#utility.yul\":8795:8796   */\n      0x00\n        /* \"#utility.yul\":8788:8876   */\n      mstore\n        /* \"#utility.yul\":8895:8899   */\n      0x41\n        /* \"#utility.yul\":8892:8893   */\n      0x04\n        /* \"#utility.yul\":8885:8900   */\n      mstore\n        /* \"#utility.yul\":8919:8923   */\n      0x24\n        /* \"#utility.yul\":8916:8917   */\n      0x00\n        /* \"#utility.yul\":8909:8924   */\n      revert\n        /* \"#utility.yul\":8936:9116   */\n    tag_162:\n        /* \"#utility.yul\":8984:9061   */\n      0x4e487b7100000000000000000000000000000000000000000000000000000000\n        /* \"#utility.yul\":8981:8982   */\n      0x00\n        /* \"#utility.yul\":8974:9062   */\n      mstore\n        /* \"#utility.yul\":9081:9085   */\n      0x22\n        /* \"#utility.yul\":9078:9079   */\n      0x04\n        /* \"#utility.yul\":9071:9086   */\n      mstore\n        /* \"#utility.yul\":9105:9109   */\n      0x24\n        /* \"#utility.yul\":9102:9103   */\n      0x00\n        /* \"#utility.yul\":9095:9110   */\n      revert\n        /* \"#utility.yul\":9122:9442   */\n    tag_54:\n        /* \"#utility.yul\":9166:9172   */\n      0x00\n        /* \"#utility.yul\":9203:9204   */\n      0x02\n        /* \"#utility.yul\":9197:9201   */\n      dup3\n        /* \"#utility.yul\":9193:9205   */\n      div\n        /* \"#utility.yul\":9183:9205   */\n      swap1\n      pop\n        /* \"#utility.yul\":9250:9251   */\n      0x01\n        /* \"#utility.yul\":9244:9248   */\n      dup3\n        /* \"#utility.yul\":9240:9252   */\n      and\n        /* \"#utility.yul\":9271:9289   */\n      dup1\n        /* \"#utility.yul\":9261:9342   */\n      tag_279\n      jumpi\n        /* \"#utility.yul\":9327:9331   */\n      0x7f\n        /* \"#utility.yul\":9319:9325   */\n      dup3\n        /* \"#utility.yul\":9315:9332   */\n      and\n        /* \"#utility.yul\":9305:9332   */\n      swap2\n      pop\n        /* \"#utility.yul\":9261:9342   */\n    tag_279:\n        /* \"#utility.yul\":9389:9391   */\n      0x20\n        /* \"#utility.yul\":9381:9387   */\n      dup3\n        /* \"#utility.yul\":9378:9392   */\n      lt\n        /* \"#utility.yul\":9358:9376   */\n      dup2\n        /* \"#utility.yul\":9355:9393   */\n      sub\n        /* \"#utility.yul\":9352:9436   */\n      tag_280\n      jumpi\n        /* \"#utility.yul\":9408:9426   */\n      tag_281\n      tag_162\n      jump\t// in\n    tag_281:\n        /* \"#utility.yul\":9352:9436   */\n    tag_280:\n        /* \"#utility.yul\":9173:9442   */\n      pop\n        /* \"#utility.yul\":9122:9442   */\n      swap2\n      swap1\n      pop\n      jump\t// out\n        /* \"#utility.yul\":9448:9589   */\n    tag_163:\n        /* \"#utility.yul\":9497:9501   */\n      0x00\n        /* \"#utility.yul\":9520:9523   */\n      dup2\n        /* \"#utility.yul\":9512:9523   */\n      swap1\n      pop\n        /* \"#utility.yul\":9543:9546   */\n      dup2\n        /* \"#utility.yul\":9540:9541   */\n      0x00\n        /* \"#utility.yul\":9533:9547   */\n      mstore\n        /* \"#utility.yul\":9577:9581   */\n      0x20\n        /* \"#utility.yul\":9574:9575   */\n      0x00\n        /* \"#utility.yul\":9564:9582   */\n      keccak256\n        /* \"#utility.yul\":9556:9582   */\n      swap1\n      pop\n        /* \"#utility.yul\":9448:9589   */\n      swap2\n      swap1\n      pop\n      jump\t// out\n        /* \"#utility.yul\":9595:9688   */\n    tag_164:\n        /* \"#utility.yul\":9632:9638   */\n      0x00\n        /* \"#utility.yul\":9679:9681   */\n      0x20\n        /* \"#utility.yul\":9674:9676   */\n      0x1f\n        /* \"#utility.yul\":9667:9672   */\n      dup4\n        /* \"#utility.yul\":9663:9677   */\n      add\n        /* \"#utility.yul\":9659:9682   */\n      div\n        /* \"#utility.yul\":9649:9682   */\n      swap1\n      pop\n        /* \"#utility.yul\":9595:9688   */\n      swap2\n      swap1\n      pop\n      jump\t// out\n        /* \"#utility.yul\":9694:9801   */\n    tag_165:\n        /* \"#utility.yul\":9738:9746   */\n      0x00\n        /* \"#utility.yul\":9788:9793   */\n      dup3\n        /* \"#utility.yul\":9782:9786   */\n      dup3\n        /* \"#utility.yul\":9778:9794   */\n      shl\n        /* \"#utility.yul\":9757:9794   */\n      swap1\n      pop\n        /* \"#utility.yul\":9694:9801   */\n      swap3\n      swap2\n      pop\n      pop\n      jump\t// out\n        /* \"#utility.yul\":9807:10200   */\n    tag_166:\n        /* \"#utility.yul\":9876:9882   */\n      0x00\n        /* \"#utility.yul\":9926:9927   */\n      0x08\n        /* \"#utility.yul\":9914:9924   */\n      dup4\n        /* \"#utility.yul\":9910:9928   */\n      mul\n        /* \"#utility.yul\":9949:10046   */\n      tag_286\n        /* \"#utility.yul\":9979:10045   */\n      0xffffffffffffffffffffffffffffffffffffffffffffffffffffffffffffffff\n        /* \"#utility.yul\":9968:9977   */\n      dup3\n        /* \"#utility.yul\":9949:10046   */\n      tag_165\n      jump\t// in\n    tag_286:\n        /* \"#utility.yul\":10067:10106   */\n      tag_287\n        /* \"#utility.yul\":10097:10105   */\n      dup7\n        /* \"#utility.yul\":10086:10095   */\n      dup4\n        /* \"#utility.yul\":10067:10106   */\n      tag_165\n      jump\t// in\n    tag_287:\n        /* \"#utility.yul\":10055:10106   */\n      swap6\n      pop\n        /* \"#utility.yul\":10139:10143   */\n      dup1\n        /* \"#utility.yul\":10135:10144   */\n      not\n        /* \"#utility.yul\":10128:10133   */\n      dup5\n        /* \"#utility.yul\":10124:10145   */\n      and\n        /* \"#utility.yul\":10115:10145   */\n      swap4\n      pop\n        /* \"#utility.yul\":10188:10192   */\n      dup1\n        /* \"#utility.yul\":10178:10186   */\n      dup7\n        /* \"#utility.yul\":10174:10193   */\n      and\n        /* \"#utility.yul\":10167:10172   */\n      dup5\n        /* \"#utility.yul\":10164:10194   */\n      or\n        /* \"#utility.yul\":10154:10194   */\n      swap3\n      pop\n        /* \"#utility.yul\":9883:10200   */\n      pop\n      pop\n        /* \"#utility.yul\":9807:10200   */\n      swap4\n      swap3\n      pop\n      pop\n      pop\n      jump\t// out\n        /* \"#utility.yul\":10206:10266   */\n    tag_167:\n        /* \"#utility.yul\":10234:10237   */\n      0x00\n        /* \"#utility.yul\":10255:10260   */\n      dup2\n        /* \"#utility.yul\":10248:10260   */\n      swap1\n      pop\n        /* \"#utility.yul\":10206:10266   */\n      swap2\n      swap1\n      pop\n      jump\t// out\n        /* \"#utility.yul\":10272:10414   */\n    tag_168:\n        /* \"#utility.yul\":10322:10331   */\n      0x00\n        /* \"#utility.yul\":10355:10408   */\n      tag_290\n        /* \"#utility.yul\":10373:10407   */\n      tag_291\n        /* \"#utility.yul\":10382:10406   */\n      tag_292\n        /* \"#utility.yul\":10400:10405   */\n      dup5\n        /* \"#utility.yul\":10382:10406   */\n      tag_144\n      jump\t// in\n    tag_292:\n        /* \"#utility.yul\":10373:10407   */\n      tag_167\n      jump\t// in\n    tag_291:\n        /* \"#utility.yul\":10355:10408   */\n      tag_144\n      jump\t// in\n    tag_290:\n        /* \"#utility.yul\":10342:10408   */\n      swap1\n      pop\n        /* \"#utility.yul\":10272:10414   */\n      swap2\n      swap1\n      pop\n      jump\t// out\n        /* \"#utility.yul\":10420:10495   */\n    tag_169:\n        /* \"#utility.yul\":10463:10466   */\n      0x00\n        /* \"#utility.yul\":10484:10489   */\n      dup2\n        /* \"#utility.yul\":10477:10489   */\n      swap1\n      pop\n        /* \"#utility.yul\":10420:10495   */\n      swap2\n      swap1\n      pop\n      jump\t// out\n        /* \"#utility.yul\":10501:10770   */\n    tag_170:\n        /* \"#utility.yul\":10611:10650   */\n      tag_295\n        /* \"#utility.yul\":10642:10649   */\n      dup4\n        /* \"#utility.yul\":10611:10650   */\n      tag_168\n      jump\t// in\n    tag_295:\n        /* \"#utility.yul\":10672:10763   */\n      tag_296\n        /* \"#utility.yul\":10721:10762   */\n      tag_297\n        /* \"#utility.yul\":10745:10761   */\n      dup3\n        /* \"#utility.yul\":10721:10762   */\n      tag_169\n      jump\t// in\n    tag_297:\n        /* \"#utility.yul\":10713:10719   */\n      dup5\n        /* \"#utility.yul\":10706:10710   */\n      dup5\n        /* \"#utility.yul\":10700:10711   */\n      sload\n        /* \"#utility.yul\":10672:10763   */\n      tag_166\n      jump\t// in\n    tag_296:\n        /* \"#utility.yul\":10666:10670   */\n      dup3\n        /* \"#utility.yul\":10659:10764   */\n      sstore\n        /* \"#utility.yul\":10577:10770   */\n      pop\n        /* \"#utility.yul\":10501:10770   */\n      pop\n      pop\n      pop\n      jump\t// out\n        /* \"#utility.yul\":10776:10849   */\n    tag_171:\n        /* \"#utility.yul\":10821:10824   */\n      0x00\n        /* \"#utility.yul\":10776:10849   */\n      swap1\n      jump\t// out\n        /* \"#utility.yul\":10855:11044   */\n    tag_172:\n        /* \"#utility.yul\":10932:10964   */\n      tag_300\n      tag_171\n      jump\t// in\n    tag_300:\n        /* \"#utility.yul\":10973:11038   */\n      tag_301\n        /* \"#utility.yul\":11031:11037   */\n      dup2\n        /* \"#utility.yul\":11023:11029   */\n      dup5\n        /* \"#utility.yul\":11017:11021   */\n      dup5\n        /* \"#utility.yul\":10973:11038   */\n      tag_170\n      jump\t// in\n    tag_301:\n        /* \"#utility.yul\":10908:11044   */\n      pop\n        /* \"#utility.yul\":10855:11044   */\n      pop\n      pop\n      jump\t// out\n        /* \"#utility.yul\":11050:11236   */\n    tag_173:\n        /* \"#utility.yul\":11110:11230   */\n    tag_303:\n        /* \"#utility.yul\":11127:11130   */\n      dup2\n        /* \"#utility.yul\":11120:11125   */\n      dup2\n        /* \"#utility.yul\":11117:11131   */\n      lt\n        /* \"#utility.yul\":11110:11230   */\n      iszero\n      tag_305\n      jumpi\n        /* \"#utility.yul\":11181:11220   */\n      tag_306\n        /* \"#utility.yul\":11218:11219   */\n      0x00\n        /* \"#utility.yul\":11211:11216   */\n      dup3\n        /* \"#utility.yul\":11181:11220   */\n      tag_172\n      jump\t// in\n    tag_306:\n        /* \"#utility.yul\":11154:11155   */\n      0x01\n        /* \"#utility.yul\":11147:11152   */\n      dup2\n        /* \"#utility.yul\":11143:11156   */\n      add\n        /* \"#utility.yul\":11134:11156   */\n      swap1\n      pop\n        /* \"#utility.yul\":11110:11230   */\n      jump(tag_303)\n    tag_305:\n        /* \"#utility.yul\":11050:11236   */\n      pop\n      pop\n      jump\t// out\n        /* \"#utility.yul\":11242:11785   */\n    tag_174:\n        /* \"#utility.yul\":11343:11345   */\n      0x1f\n        /* \"#utility.yul\":11338:11341   */\n      dup3\n        /* \"#utility.yul\":11335:11346   */\n      gt\n        /* \"#utility.yul\":11332:11778   */\n      iszero\n      tag_308\n      jumpi\n        /* \"#utility.yul\":11377:11415   */\n      tag_309\n        /* \"#utility.yul\":11409:11414   */\n      dup2\n        /* \"#utility.yul\":11377:11415   */\n      tag_163\n      jump\t// in\n    tag_309:\n        /* \"#utility.yul\":11461:11490   */\n      tag_310\n        /* \"#utility.yul\":11479:11489   */\n      dup5\n        /* \"#utility.yul\":11461:11490   */\n      tag_164\n      jump\t// in\n    tag_310:\n        /* \"#utility.yul\":11451:11459   */\n      dup2\n        /* \"#utility.yul\":11447:11491   */\n      add\n        /* \"#utility.yul\":11644:11646   */\n      0x20\n        /* \"#utility.yul\":11632:11642   */\n      dup6\n        /* \"#utility.yul\":11629:11647   */\n      lt\n        /* \"#utility.yul\":11626:11675   */\n      iszero\n      tag_311\n      jumpi\n        /* \"#utility.yul\":11665:11673   */\n      dup2\n        /* \"#utility.yul\":11650:11673   */\n      swap1\n      pop\n        /* \"#utility.yul\":11626:11675   */\n    tag_311:\n        /* \"#utility.yul\":11688:11768   */\n      tag_312\n        /* \"#utility.yul\":11744:11766   */\n      tag_313\n        /* \"#utility.yul\":11762:11765   */\n      dup6\n        /* \"#utility.yul\":11744:11766   */\n      tag_164\n      jump\t// in\n    tag_313:\n        /* \"#utility.yul\":11734:11742   */\n      dup4\n        /* \"#utility.yul\":11730:11767   */\n      add\n        /* \"#utility.yul\":11717:11728   */\n      dup3\n        /* \"#utility.yul\":11688:11768   */\n      tag_173\n      jump\t// in\n    tag_312:\n        /* \"#utility.yul\":11347:11778   */\n      pop\n      pop\n        /* \"#utility.yul\":11332:11778   */\n    tag_308:\n        /* \"#utility.yul\":11242:11785   */\n      pop\n      pop\n      pop\n      jump\t// out\n        /* \"#utility.yul\":11791:11908   */\n    tag_175:\n        /* \"#utility.yul\":11845:11853   */\n      0x00\n        /* \"#utility.yul\":11895:11900   */\n      dup3\n        /* \"#utility.yul\":11889:11893   */\n      dup3\n        /* \"#utility.yul\":11885:11901   */\n      shr\n        /* \"#utility.yul\":11864:11901   */\n      swap1\n      pop\n        /* \"#utility.yul\":11791:11908   */\n      swap3\n      swap2\n      pop\n      pop\n      jump\t// out\n        /* \"#utility.yul\":11914:12083   */\n    tag_176:\n        /* \"#utility.yul\":11958:11964   */\n      0x00\n        /* \"#utility.yul\":11991:12042   */\n      tag_316\n        /* \"#utility.yul\":12039:12040   */\n      0x00\n        /* \"#utility.yul\":12035:12041   */\n      not\n        /* \"#utility.yul\":12027:12032   */\n      dup5\n        /* \"#utility.yul\":12024:12025   */\n      0x08\n        /* \"#utility.yul\":12020:12033   */\n      mul\n        /* \"#utility.yul\":11991:12042   */\n      tag_175\n      jump\t// in\n    tag_316:\n        /* \"#utility.yul\":11987:12043   */\n      not\n        /* \"#utility.yul\":12072:12076   */\n      dup1\n        /* \"#utility.yul\":12066:12070   */\n      dup4\n        /* \"#utility.yul\":12062:12077   */\n      and\n        /* \"#utility.yul\":12052:12077   */\n      swap2\n      pop\n        /* \"#utility.yul\":11965:12083   */\n      pop\n        /* \"#utility.yul\":11914:12083   */\n      swap3\n      swap2\n      pop\n      pop\n      jump\t// out\n        /* \"#utility.yul\":12088:12383   */\n    tag_177:\n        /* \"#utility.yul\":12164:12168   */\n      0x00\n        /* \"#utility.yul\":12310:12339   */\n      tag_318\n        /* \"#utility.yul\":12335:12338   */\n      dup4\n        /* \"#utility.yul\":12329:12333   */\n      dup4\n        /* \"#utility.yul\":12310:12339   */\n      tag_176\n      jump\t// in\n    tag_318:\n        /* \"#utility.yul\":12302:12339   */\n      swap2\n      pop\n        /* \"#utility.yul\":12372:12375   */\n      dup3\n        /* \"#utility.yul\":12369:12370   */\n      0x02\n        /* \"#utility.yul\":12365:12376   */\n      mul\n        /* \"#utility.yul\":12359:12363   */\n      dup3\n        /* \"#utility.yul\":12356:12377   */\n      or\n        /* \"#utility.yul\":12348:12377   */\n      swap1\n      pop\n        /* \"#utility.yul\":12088:12383   */\n      swap3\n      swap2\n      pop\n      pop\n      jump\t// out\n        /* \"#utility.yul\":12388:13783   */\n    tag_48:\n        /* \"#utility.yul\":12505:12542   */\n      tag_320\n        /* \"#utility.yul\":12538:12541   */\n      dup3\n        /* \"#utility.yul\":12505:12542   */\n      tag_147\n      jump\t// in\n    tag_320:\n        /* \"#utility.yul\":12607:12625   */\n      0xffffffffffffffff\n        /* \"#utility.yul\":12599:12605   */\n      dup2\n        /* \"#utility.yul\":12596:12626   */\n      gt\n        /* \"#utility.yul\":12593:12649   */\n      iszero\n      tag_321\n      jumpi\n        /* \"#utility.yul\":12629:12647   */\n      tag_322\n      tag_161\n      jump\t// in\n    tag_322:\n        /* \"#utility.yul\":12593:12649   */\n    tag_321:\n        /* \"#utility.yul\":12673:12711   */\n      tag_323\n        /* \"#utility.yul\":12705:12709   */\n      dup3\n        /* \"#utility.yul\":12699:12710   */\n      sload\n        /* \"#utility.yul\":12673:12711   */\n      tag_54\n      jump\t// in\n    tag_323:\n        /* \"#utility.yul\":12758:12825   */\n      tag_324\n        /* \"#utility.yul\":12818:12824   */\n      dup3\n        /* \"#utility.yul\":12810:12816   */\n      dup3\n        /* \"#utility.yul\":12804:12808   */\n      dup6\n        /* \"#utility.yul\":12758:12825   */\n      tag_174\n      jump\t// in\n    tag_324:\n        /* \"#utility.yul\":12852:12853   */\n      0x00\n        /* \"#utility.yul\":12876:12880   */\n      0x20\n        /* \"#utility.yul\":12863:12880   */\n      swap1\n      pop\n        /* \"#utility.yul\":12908:12910   */\n      0x1f\n        /* \"#utility.yul\":12900:12906   */\n      dup4\n        /* \"#utility.yul\":12897:12911   */\n      gt\n        /* \"#utility.yul\":12925:12926   */\n      0x01\n        /* \"#utility.yul\":12920:13538   */\n      dup2\n      eq\n      tag_326\n      jumpi\n        /* \"#utility.yul\":13582:13583   */\n      0x00\n        /* \"#utility.yul\":13599:13605   */\n      dup5\n        /* \"#utility.yul\":13596:13673   */\n      iszero\n      tag_327\n      jumpi\n        /* \"#utility.yul\":13648:13657   */\n      dup3\n        /* \"#utility.yul\":13643:13646   */\n      dup8\n        /* \"#utility.yul\":13639:13658   */\n      add\n        /* \"#utility.yul\":13633:13659   */\n      mload\n        /* \"#utility.yul\":13624:13659   */\n      swap1\n      pop\n        /* \"#utility.yul\":13596:13673   */\n    tag_327:\n        /* \"#utility.yul\":13699:13766   */\n      tag_328\n        /* \"#utility.yul\":13759:13765   */\n      dup6\n        /* \"#utility.yul\":13752:13757   */\n      dup3\n        /* \"#utility.yul\":13699:13766   */\n      tag_177\n      jump\t// in\n    tag_328:\n        /* \"#utility.yul\":13693:13697   */\n      dup7\n        /* \"#utility.yul\":13686:13767   */\n      sstore\n        /* \"#utility.yul\":13555:13777   */\n      pop\n        /* \"#utility.yul\":12890:13777   */\n      jump(tag_325)\n        /* \"#utility.yul\":12920:13538   */\n    tag_326:\n        /* \"#utility.yul\":12972:12976   */\n      0x1f\n        /* \"#utility.yul\":12968:12977   */\n      not\n        /* \"#utility.yul\":12960:12966   */\n      dup5\n        /* \"#utility.yul\":12956:12978   */\n      and\n        /* \"#utility.yul\":13006:13043   */\n      tag_329\n        /* \"#utility.yul\":13038:13042   */\n      dup7\n        /* \"#utility.yul\":13006:13043   */\n      tag_163\n      jump\t// in\n    tag_329:\n        /* \"#utility.yul\":13065:13066   */\n      0x00\n        /* \"#utility.yul\":13079:13287   */\n    tag_330:\n        /* \"#utility.yul\":13093:13100   */\n      dup3\n        /* \"#utility.yul\":13090:13091   */\n      dup2\n        /* \"#utility.yul\":13087:13101   */\n      lt\n        /* \"#utility.yul\":13079:13287   */\n      iszero\n      tag_332\n      jumpi\n        /* \"#utility.yul\":13172:13181   */\n      dup5\n        /* \"#utility.yul\":13167:13170   */\n      dup10\n        /* \"#utility.yul\":13163:13182   */\n      add\n        /* \"#utility.yul\":13157:13183   */\n      mload\n        /* \"#utility.yul\":13149:13155   */\n      dup3\n        /* \"#utility.yul\":13142:13184   */\n      sstore\n        /* \"#utility.yul\":13223:13224   */\n      0x01\n        /* \"#utility.yul\":13215:13221   */\n      dup3\n        /* \"#utility.yul\":13211:13225   */\n      add\n        /* \"#utility.yul\":13201:13225   */\n      swap2\n      pop\n        /* \"#utility.yul\":13270:13272   */\n      0x20\n        /* \"#utility.yul\":13259:13268   */\n      dup6\n        /* \"#utility.yul\":13255:13273   */\n      add\n        /* \"#utility.yul\":13242:13273   */\n      swap5\n      pop\n        /* \"#utility.yul\":13116:13120   */\n      0x20\n        /* \"#utility.yul\":13113:13114   */\n      dup2\n        /* \"#utility.yul\":13109:13121   */\n      add\n        /* \"#utility.yul\":13104:13121   */\n      swap1\n      pop\n        /* \"#utility.yul\":13079:13287   */\n      jump(tag_330)\n    tag_332:\n        /* \"#utility.yul\":13315:13321   */\n      dup7\n        /* \"#utility.yul\":13306:13313   */\n      dup4\n        /* \"#utility.yul\":13303:13322   */\n      lt\n        /* \"#utility.yul\":13300:13479   */\n      iszero\n      tag_333\n      jumpi\n        /* \"#utility.yul\":13373:13382   */\n      dup5\n        /* \"#utility.yul\":13368:13371   */\n      dup10\n        /* \"#utility.yul\":13364:13383   */\n      add\n        /* \"#utility.yul\":13358:13384   */\n      mload\n        /* \"#utility.yul\":13416:13464   */\n      tag_334\n        /* \"#utility.yul\":13458:13462   */\n      0x1f\n        /* \"#utility.yul\":13450:13456   */\n      dup10\n        /* \"#utility.yul\":13446:13463   */\n      and\n        /* \"#utility.yul\":13435:13444   */\n      dup3\n        /* \"#utility.yul\":13416:13464   */\n      tag_176\n      jump\t// in\n    tag_334:\n        /* \"#utility.yul\":13408:13414   */\n      dup4\n        /* \"#utility.yul\":13401:13465   */\n      sstore\n        /* \"#utility.yul\":13323:13479   */\n      pop\n        /* \"#utility.yul\":13300:13479   */\n    tag_333:\n        /* \"#utility.yul\":13525:13526   */\n      0x01\n        /* \"#utility.yul\":13521:13522   */\n      0x02\n        /* \"#utility.yul\":13513:13519   */\n      dup9\n        /* \"#utility.yul\":13509:13523   */\n      mul\n        /* \"#utility.yul\":13505:13527   */\n      add\n        /* \"#utility.yul\":13499:13503   */\n      dup9\n        /* \"#utility.yul\":13492:13528   */\n      sstore\n        /* \"#utility.yul\":12927:13538   */\n      pop\n      pop\n      pop\n        /* \"#utility.yul\":12890:13777   */\n    tag_325:\n      pop\n        /* \"#utility.yul\":12480:13783   */\n      pop\n      pop\n      pop\n        /* \"#utility.yul\":12388:13783   */\n      pop\n      pop\n      jump\t// out\n        /* \"#utility.yul\":13789:13958   */\n    tag_178:\n        /* \"#utility.yul\":13873:13884   */\n      0x00\n        /* \"#utility.yul\":13907:13913   */\n      dup3\n        /* \"#utility.yul\":13902:13905   */\n      dup3\n        /* \"#utility.yul\":13895:13914   */\n      mstore\n        /* \"#utility.yul\":13947:13951   */\n      0x20\n        /* \"#utility.yul\":13942:13945   */\n      dup3\n        /* \"#utility.yul\":13938:13952   */\n      add\n        /* \"#utility.yul\":13923:13952   */\n      swap1\n      pop\n        /* \"#utility.yul\":13789:13958   */\n      swap3\n      swap2\n      pop\n      pop\n      jump\t// out\n        /* \"#utility.yul\":13964:14140   */\n    tag_179:\n        /* \"#utility.yul\":14104:14132   */\n      0x5468652070726f706f73616c206973206e6f7420616374697665000000000000\n        /* \"#utility.yul\":14100:14101   */\n      0x00\n        /* \"#utility.yul\":14092:14098   */\n      dup3\n        /* \"#utility.yul\":14088:14102   */\n      add\n        /* \"#utility.yul\":14081:14133   */\n      mstore\n        /* \"#utility.yul\":13964:14140   */\n      pop\n      jump\t// out\n        /* \"#utility.yul\":14146:14512   */\n    tag_180:\n        /* \"#utility.yul\":14288:14291   */\n      0x00\n        /* \"#utility.yul\":14309:14376   */\n      tag_338\n        /* \"#utility.yul\":14373:14375   */\n      0x1a\n        /* \"#utility.yul\":14368:14371   */\n      dup4\n        /* \"#utility.yul\":14309:14376   */\n      tag_178\n      jump\t// in\n    tag_338:\n        /* \"#utility.yul\":14302:14376   */\n      swap2\n      pop\n        /* \"#utility.yul\":14385:14478   */\n      tag_339\n        /* \"#utility.yul\":14474:14477   */\n      dup3\n        /* \"#utility.yul\":14385:14478   */\n      tag_179\n      jump\t// in\n    tag_339:\n        /* \"#utility.yul\":14503:14505   */\n      0x20\n        /* \"#utility.yul\":14498:14501   */\n      dup3\n        /* \"#utility.yul\":14494:14506   */\n      add\n        /* \"#utility.yul\":14487:14506   */\n      swap1\n      pop\n        /* \"#utility.yul\":14146:14512   */\n      swap2\n      swap1\n      pop\n      jump\t// out\n        /* \"#utility.yul\":14518:14937   */\n    tag_69:\n        /* \"#utility.yul\":14684:14688   */\n      0x00\n        /* \"#utility.yul\":14722:14724   */\n      0x20\n        /* \"#utility.yul\":14711:14720   */\n      dup3\n        /* \"#utility.yul\":14707:14725   */\n      add\n        /* \"#utility.yul\":14699:14725   */\n      swap1\n      pop\n        /* \"#utility.yul\":14771:14780   */\n      dup2\n        /* \"#utility.yul\":14765:14769   */\n      dup2\n        /* \"#utility.yul\":14761:14781   */\n      sub\n        /* \"#utility.yul\":14757:14758   */\n      0x00\n        /* \"#utility.yul\":14746:14755   */\n      dup4\n        /* \"#utility.yul\":14742:14759   */\n      add\n        /* \"#utility.yul\":14735:14782   */\n      mstore\n        /* \"#utility.yul\":14799:14930   */\n      tag_341\n        /* \"#utility.yul\":14925:14929   */\n      dup2\n        /* \"#utility.yul\":14799:14930   */\n      tag_180\n      jump\t// in\n    tag_341:\n        /* \"#utility.yul\":14791:14930   */\n      swap1\n      pop\n        /* \"#utility.yul\":14518:14937   */\n      swap2\n      swap1\n      pop\n      jump\t// out\n        /* \"#utility.yul\":14943:15137   */\n    tag_88:\n        /* \"#utility.yul\":14983:14987   */\n      0x00\n        /* \"#utility.yul\":15003:15023   */\n      tag_343\n        /* \"#utility.yul\":15021:15022   */\n      dup3\n        /* \"#utility.yul\":15003:15023   */\n      tag_144\n      jump\t// in\n    tag_343:\n        /* \"#utility.yul\":14998:15023   */\n      swap2\n      pop\n        /* \"#utility.yul\":15037:15057   */\n      tag_344\n        /* \"#utility.yul\":15055:15056   */\n      dup4\n        /* \"#utility.yul\":15037:15057   */\n      tag_144\n      jump\t// in\n    tag_344:\n        /* \"#utility.yul\":15032:15057   */\n      swap3\n      pop\n        /* \"#utility.yul\":15081:15082   */\n      dup3\n        /* \"#utility.yul\":15078:15079   */\n      dup3\n        /* \"#utility.yul\":15074:15083   */\n      sub\n        /* \"#utility.yul\":15066:15083   */\n      swap1\n      pop\n        /* \"#utility.yul\":15105:15106   */\n      dup2\n        /* \"#utility.yul\":15099:15103   */\n      dup2\n        /* \"#utility.yul\":15096:15107   */\n      gt\n        /* \"#utility.yul\":15093:15130   */\n      iszero\n      tag_345\n      jumpi\n        /* \"#utility.yul\":15110:15128   */\n      tag_346\n      tag_160\n      jump\t// in\n    tag_346:\n        /* \"#utility.yul\":15093:15130   */\n    tag_345:\n        /* \"#utility.yul\":14943:15137   */\n      swap3\n      swap2\n      pop\n      pop\n      jump\t// out\n        /* \"#utility.yul\":15143:15323   */\n    tag_113:\n        /* \"#utility.yul\":15191:15268   */\n      0x4e487b7100000000000000000000000000000000000000000000000000000000\n        /* \"#utility.yul\":15188:15189   */\n      0x00\n        /* \"#utility.yul\":15181:15269   */\n      mstore\n        /* \"#utility.yul\":15288:15292   */\n      0x32\n        /* \"#utility.yul\":15285:15286   */\n      0x04\n        /* \"#utility.yul\":15278:15293   */\n      mstore\n        /* \"#utility.yul\":15312:15316   */\n      0x24\n        /* \"#utility.yul\":15309:15310   */\n      0x00\n        /* \"#utility.yul\":15302:15317   */\n      revert\n        /* \"#utility.yul\":15329:15509   */\n    tag_181:\n        /* \"#utility.yul\":15377:15454   */\n      0x4e487b7100000000000000000000000000000000000000000000000000000000\n        /* \"#utility.yul\":15374:15375   */\n      0x00\n        /* \"#utility.yul\":15367:15455   */\n      mstore\n        /* \"#utility.yul\":15474:15478   */\n      0x12\n        /* \"#utility.yul\":15471:15472   */\n      0x04\n        /* \"#utility.yul\":15464:15479   */\n      mstore\n        /* \"#utility.yul\":15498:15502   */\n      0x24\n        /* \"#utility.yul\":15495:15496   */\n      0x00\n        /* \"#utility.yul\":15488:15503   */\n      revert\n        /* \"#utility.yul\":15515:15691   */\n    tag_118:\n        /* \"#utility.yul\":15547:15548   */\n      0x00\n        /* \"#utility.yul\":15564:15584   */\n      tag_350\n        /* \"#utility.yul\":15582:15583   */\n      dup3\n        /* \"#utility.yul\":15564:15584   */\n      tag_144\n      jump\t// in\n    tag_350:\n        /* \"#utility.yul\":15559:15584   */\n      swap2\n      pop\n        /* \"#utility.yul\":15598:15618   */\n      tag_351\n        /* \"#utility.yul\":15616:15617   */\n      dup4\n        /* \"#utility.yul\":15598:15618   */\n      tag_144\n      jump\t// in\n    tag_351:\n        /* \"#utility.yul\":15593:15618   */\n      swap3\n      pop\n        /* \"#utility.yul\":15637:15638   */\n      dup3\n        /* \"#utility.yul\":15627:15662   */\n      tag_352\n      jumpi\n        /* \"#utility.yul\":15642:15660   */\n      tag_353\n      tag_181\n      jump\t// in\n    tag_353:\n        /* \"#utility.yul\":15627:15662   */\n    tag_352:\n        /* \"#utility.yul\":15683:15684   */\n      dup3\n        /* \"#utility.yul\":15680:15681   */\n      dup3\n        /* \"#utility.yul\":15676:15685   */\n      mod\n        /* \"#utility.yul\":15671:15685   */\n      swap1\n      pop\n        /* \"#utility.yul\":15515:15691   */\n      swap3\n      swap2\n      pop\n      pop\n      jump\t// out\n        /* \"#utility.yul\":15697:15882   */\n    tag_122:\n        /* \"#utility.yul\":15737:15738   */\n      0x00\n        /* \"#utility.yul\":15754:15774   */\n      tag_355\n        /* \"#utility.yul\":15772:15773   */\n      dup3\n        /* \"#utility.yul\":15754:15774   */\n      tag_144\n      jump\t// in\n    tag_355:\n        /* \"#utility.yul\":15749:15774   */\n      swap2\n      pop\n        /* \"#utility.yul\":15788:15808   */\n      tag_356\n        /* \"#utility.yul\":15806:15807   */\n      dup4\n        /* \"#utility.yul\":15788:15808   */\n      tag_144\n      jump\t// in\n    tag_356:\n        /* \"#utility.yul\":15783:15808   */\n      swap3\n      pop\n        /* \"#utility.yul\":15827:15828   */\n      dup3\n        /* \"#utility.yul\":15817:15852   */\n      tag_357\n      jumpi\n        /* \"#utility.yul\":15832:15850   */\n      tag_358\n      tag_181\n      jump\t// in\n    tag_358:\n        /* \"#utility.yul\":15817:15852   */\n    tag_357:\n        /* \"#utility.yul\":15874:15875   */\n      dup3\n        /* \"#utility.yul\":15871:15872   */\n      dup3\n        /* \"#utility.yul\":15867:15876   */\n      div\n        /* \"#utility.yul\":15862:15876   */\n      swap1\n      pop\n        /* \"#utility.yul\":15697:15882   */\n      swap3\n      swap2\n      pop\n      pop\n      jump\t// out\n\n    auxdata: 0xa2646970667358221220cceb9453dff08c500fc6f97b2206d1c7551e2177237b098950e2c26eae1b5adc64736f6c63430008160033\n}\n",
				"bytecode": {
					"linkReferences": {},
					"object": "608060405234801561000f575f80fd5b503360015f6101000a81548173ffffffffffffffffffffffffffffffffffffffff021916908373ffffffffffffffffffffffffffffffffffffffff160217905550600233908060018154018082558091505060019003905f5260205f20015f9091909190916101000a81548173ffffffffffffffffffffffffffffffffffffffff021916908373ffffffffffffffffffffffffffffffffffffffff16021790555061155c806100bd5f395ff3fe608060405234801561000f575f80fd5b506004361061007b575f3560e01c8063891903931161005957806389190393146100d5578063b3f98adc146100df578063c7f758a8146100fb578063cbff75cb1461012b5761007b565b806313af40351461007f5780633ca6d1001461009b57806341ec6870146100b7575b5f80fd5b61009960048036038101906100949190610ce0565b61015b565b005b6100b560048036038101906100b09190610d9f565b6101f6565b005b6100bf6103d8565b6040516100cc9190610f97565b60405180910390f35b6100dd61057f565b005b6100f960048036038101906100f49190610fed565b61066f565b005b61011560048036038101906101109190611018565b6108bf565b6040516101229190610f97565b60405180910390f35b61014560048036038101906101409190610ce0565b610a67565b6040516101529190611052565b60405180910390f35b60015f9054906101000a900473ffffffffffffffffffffffffffffffffffffffff1673ffffffffffffffffffffffffffffffffffffffff163373ffffffffffffffffffffffffffffffffffffffff16146101b3575f80fd5b8060015f6101000a81548173ffffffffffffffffffffffffffffffffffffffff021916908373ffffffffffffffffffffffffffffffffffffffff16021790555050565b60015f9054906101000a900473ffffffffffffffffffffffffffffffffffffffff1673ffffffffffffffffffffffffffffffffffffffff163373ffffffffffffffffffffffffffffffffffffffff161461024e575f80fd5b60015f8082825461025f9190611098565b9250508190555060405180610100016040528086868080601f0160208091040260200160405190810160405280939291908181526020018383808284375f81840152601f19601f82011690508083019250505050505050815260200184848080601f0160208091040260200160405190810160405280939291908181526020018383808284375f81840152601f19601f8201169050808301925050505050505081526020015f81526020015f81526020015f81526020018281526020015f151581526020016001151581525060035f805481526020019081526020015f205f820151815f01908161035091906112f2565b50602082015181600101908161036691906112f2565b5060408201518160020155606082015181600301556080820151816004015560a0820151816005015560c0820151816006015f6101000a81548160ff02191690831515021790555060e08201518160060160016101000a81548160ff0219169083151502179055509050505050505050565b6103e0610b99565b60035f805481526020019081526020015f20604051806101000160405290815f8201805461040d90611125565b80601f016020809104026020016040519081016040528092919081815260200182805461043990611125565b80156104845780601f1061045b57610100808354040283529160200191610484565b820191905f5260205f20905b81548152906001019060200180831161046757829003601f168201915b5050505050815260200160018201805461049d90611125565b80601f01602080910402602001604051908101604052809291908181526020018280546104c990611125565b80156105145780601f106104eb57610100808354040283529160200191610514565b820191905f5260205f20905b8154815290600101906020018083116104f757829003601f168201915b5050505050815260200160028201548152602001600382015481526020016004820154815260200160058201548152602001600682015f9054906101000a900460ff161515151581526020016006820160019054906101000a900460ff161515151581525050905090565b60015f9054906101000a900473ffffffffffffffffffffffffffffffffffffffff1673ffffffffffffffffffffffffffffffffffffffff163373ffffffffffffffffffffffffffffffffffffffff16146105d7575f80fd5b6001151560035f805481526020019081526020015f2060060160019054906101000a900460ff16151514610640576040517f08c379a00000000000000000000000000000000000000000000000000000000081526004016106379061141b565b60405180910390fd5b5f60035f805481526020019081526020015f2060060160016101000a81548160ff021916908315150217905550565b5f60035f805481526020019081526020015f2090505f81600401548260030154836002015461069e9190611098565b6106a89190611098565b9050600233908060018154018082558091505060019003905f5260205f20015f9091909190916101000a81548173ffffffffffffffffffffffffffffffffffffffff021916908373ffffffffffffffffffffffffffffffffffffffff16021790555060018360ff1603610757576001826002015f8282546107299190611098565b92505081905550610738610b09565b826006015f6101000a81548160ff0219169083151502179055506107ee565b60028360ff16036107a4576001826003015f8282546107769190611098565b92505081905550610785610b09565b826006015f6101000a81548160ff0219169083151502179055506107ed565b5f8360ff16036107ec576001826004015f8282546107c29190611098565b925050819055506107d1610b09565b826006015f6101000a81548160ff0219169083151502179055505b5b5b60018183600501546108009190611439565b14801561082b575060018360ff16148061081d575060028360ff16145b8061082a57505f8360ff16145b5b156108ba575f8260060160016101000a81548160ff021916908315150217905550604051806020016040528060015f9054906101000a900473ffffffffffffffffffffffffffffffffffffffff1673ffffffffffffffffffffffffffffffffffffffff1673ffffffffffffffffffffffffffffffffffffffff1681525060029060016108b8929190610bdc565b505b505050565b6108c7610b99565b60035f8381526020019081526020015f20604051806101000160405290815f820180546108f390611125565b80601f016020809104026020016040519081016040528092919081815260200182805461091f90611125565b801561096a5780601f106109415761010080835404028352916020019161096a565b820191905f5260205f20905b81548152906001019060200180831161094d57829003601f168201915b5050505050815260200160018201805461098390611125565b80601f01602080910402602001604051908101604052809291908181526020018280546109af90611125565b80156109fa5780601f106109d1576101008083540402835291602001916109fa565b820191905f5260205f20905b8154815290600101906020018083116109dd57829003601f168201915b5050505050815260200160028201548152602001600382015481526020016004820154815260200160058201548152602001600682015f9054906101000a900460ff161515151581526020016006820160019054906101000a900460ff1615151515815250509050919050565b5f805f90505b600280549050811015610aff578273ffffffffffffffffffffffffffffffffffffffff1660028281548110610aa557610aa461146c565b5b905f5260205f20015f9054906101000a900473ffffffffffffffffffffffffffffffffffffffff1673ffffffffffffffffffffffffffffffffffffffff1603610af2576001915050610b04565b8080600101915050610a6d565b505f90505b919050565b5f8060035f805481526020019081526020015f2090505f816002015490505f826003015490505f83600401549050600160028560040154610b4a91906114c6565b03610b5f57600181610b5c9190611098565b90505b600281610b6c91906114f6565b90508082610b7a9190611098565b831115610b8e576001945050505050610b96565b5f9450505050505b90565b60405180610100016040528060608152602001606081526020015f81526020015f81526020015f81526020015f81526020015f151581526020015f151581525090565b828054828255905f5260205f20908101928215610c52579160200282015b82811115610c51578251825f6101000a81548173ffffffffffffffffffffffffffffffffffffffff021916908373ffffffffffffffffffffffffffffffffffffffff16021790555091602001919060010190610bfa565b5b509050610c5f9190610c63565b5090565b5b80821115610c7a575f815f905550600101610c64565b5090565b5f80fd5b5f80fd5b5f73ffffffffffffffffffffffffffffffffffffffff82169050919050565b5f610caf82610c86565b9050919050565b610cbf81610ca5565b8114610cc9575f80fd5b50565b5f81359050610cda81610cb6565b92915050565b5f60208284031215610cf557610cf4610c7e565b5b5f610d0284828501610ccc565b91505092915050565b5f80fd5b5f80fd5b5f80fd5b5f8083601f840112610d2c57610d2b610d0b565b5b8235905067ffffffffffffffff811115610d4957610d48610d0f565b5b602083019150836001820283011115610d6557610d64610d13565b5b9250929050565b5f819050919050565b610d7e81610d6c565b8114610d88575f80fd5b50565b5f81359050610d9981610d75565b92915050565b5f805f805f60608688031215610db857610db7610c7e565b5b5f86013567ffffffffffffffff811115610dd557610dd4610c82565b5b610de188828901610d17565b9550955050602086013567ffffffffffffffff811115610e0457610e03610c82565b5b610e1088828901610d17565b93509350506040610e2388828901610d8b565b9150509295509295909350565b5f81519050919050565b5f82825260208201905092915050565b5f5b83811015610e67578082015181840152602081019050610e4c565b5f8484015250505050565b5f601f19601f8301169050919050565b5f610e8c82610e30565b610e968185610e3a565b9350610ea6818560208601610e4a565b610eaf81610e72565b840191505092915050565b610ec381610d6c565b82525050565b5f8115159050919050565b610edd81610ec9565b82525050565b5f61010083015f8301518482035f860152610efe8282610e82565b91505060208301518482036020860152610f188282610e82565b9150506040830151610f2d6040860182610eba565b506060830151610f406060860182610eba565b506080830151610f536080860182610eba565b5060a0830151610f6660a0860182610eba565b5060c0830151610f7960c0860182610ed4565b5060e0830151610f8c60e0860182610ed4565b508091505092915050565b5f6020820190508181035f830152610faf8184610ee3565b905092915050565b5f60ff82169050919050565b610fcc81610fb7565b8114610fd6575f80fd5b50565b5f81359050610fe781610fc3565b92915050565b5f6020828403121561100257611001610c7e565b5b5f61100f84828501610fd9565b91505092915050565b5f6020828403121561102d5761102c610c7e565b5b5f61103a84828501610d8b565b91505092915050565b61104c81610ec9565b82525050565b5f6020820190506110655f830184611043565b92915050565b7f4e487b71000000000000000000000000000000000000000000000000000000005f52601160045260245ffd5b5f6110a282610d6c565b91506110ad83610d6c565b92508282019050808211156110c5576110c461106b565b5b92915050565b7f4e487b71000000000000000000000000000000000000000000000000000000005f52604160045260245ffd5b7f4e487b71000000000000000000000000000000000000000000000000000000005f52602260045260245ffd5b5f600282049050600182168061113c57607f821691505b60208210810361114f5761114e6110f8565b5b50919050565b5f819050815f5260205f209050919050565b5f6020601f8301049050919050565b5f82821b905092915050565b5f600883026111b17fffffffffffffffffffffffffffffffffffffffffffffffffffffffffffffffff82611176565b6111bb8683611176565b95508019841693508086168417925050509392505050565b5f819050919050565b5f6111f66111f16111ec84610d6c565b6111d3565b610d6c565b9050919050565b5f819050919050565b61120f836111dc565b61122361121b826111fd565b848454611182565b825550505050565b5f90565b61123761122b565b611242818484611206565b505050565b5b818110156112655761125a5f8261122f565b600181019050611248565b5050565b601f8211156112aa5761127b81611155565b61128484611167565b81016020851015611293578190505b6112a761129f85611167565b830182611247565b50505b505050565b5f82821c905092915050565b5f6112ca5f19846008026112af565b1980831691505092915050565b5f6112e283836112bb565b9150826002028217905092915050565b6112fb82610e30565b67ffffffffffffffff811115611314576113136110cb565b5b61131e8254611125565b611329828285611269565b5f60209050601f83116001811461135a575f8415611348578287015190505b61135285826112d7565b8655506113b9565b601f19841661136886611155565b5f5b8281101561138f5784890151825560018201915060208501945060208101905061136a565b868310156113ac57848901516113a8601f8916826112bb565b8355505b6001600288020188555050505b505050505050565b5f82825260208201905092915050565b7f5468652070726f706f73616c206973206e6f74206163746976650000000000005f82015250565b5f611405601a836113c1565b9150611410826113d1565b602082019050919050565b5f6020820190508181035f830152611432816113f9565b9050919050565b5f61144382610d6c565b915061144e83610d6c565b92508282039050818111156114665761146561106b565b5b92915050565b7f4e487b71000000000000000000000000000000000000000000000000000000005f52603260045260245ffd5b7f4e487b71000000000000000000000000000000000000000000000000000000005f52601260045260245ffd5b5f6114d082610d6c565b91506114db83610d6c565b9250826114eb576114ea611499565b5b828206905092915050565b5f61150082610d6c565b915061150b83610d6c565b92508261151b5761151a611499565b5b82820490509291505056fea2646970667358221220cceb9453dff08c500fc6f97b2206d1c7551e2177237b098950e2c26eae1b5adc64736f6c63430008160033",
					"opcodes": "PUSH1 0x80 PUSH1 0x40 MSTORE CALLVALUE DUP1 ISZERO PUSH2 0xF JUMPI PUSH0 DUP1 REVERT JUMPDEST POP CALLER PUSH1 0x1 PUSH0 PUSH2 0x100 EXP DUP2 SLOAD DUP2 PUSH20 0xFFFFFFFFFFFFFFFFFFFFFFFFFFFFFFFFFFFFFFFF MUL NOT AND SWAP1 DUP4 PUSH20 0xFFFFFFFFFFFFFFFFFFFFFFFFFFFFFFFFFFFFFFFF AND MUL OR SWAP1 SSTORE POP PUSH1 0x2 CALLER SWAP1 DUP1 PUSH1 0x1 DUP2 SLOAD ADD DUP1 DUP3 SSTORE DUP1 SWAP2 POP POP PUSH1 0x1 SWAP1 SUB SWAP1 PUSH0 MSTORE PUSH1 0x20 PUSH0 KECCAK256 ADD PUSH0 SWAP1 SWAP2 SWAP1 SWAP2 SWAP1 SWAP2 PUSH2 0x100 EXP DUP2 SLOAD DUP2 PUSH20 0xFFFFFFFFFFFFFFFFFFFFFFFFFFFFFFFFFFFFFFFF MUL NOT AND SWAP1 DUP4 PUSH20 0xFFFFFFFFFFFFFFFFFFFFFFFFFFFFFFFFFFFFFFFF AND MUL OR SWAP1 SSTORE POP PUSH2 0x155C DUP1 PUSH2 0xBD PUSH0 CODECOPY PUSH0 RETURN INVALID PUSH1 0x80 PUSH1 0x40 MSTORE CALLVALUE DUP1 ISZERO PUSH2 0xF JUMPI PUSH0 DUP1 REVERT JUMPDEST POP PUSH1 0x4 CALLDATASIZE LT PUSH2 0x7B JUMPI PUSH0 CALLDATALOAD PUSH1 0xE0 SHR DUP1 PUSH4 0x89190393 GT PUSH2 0x59 JUMPI DUP1 PUSH4 0x89190393 EQ PUSH2 0xD5 JUMPI DUP1 PUSH4 0xB3F98ADC EQ PUSH2 0xDF JUMPI DUP1 PUSH4 0xC7F758A8 EQ PUSH2 0xFB JUMPI DUP1 PUSH4 0xCBFF75CB EQ PUSH2 0x12B JUMPI PUSH2 0x7B JUMP JUMPDEST DUP1 PUSH4 0x13AF4035 EQ PUSH2 0x7F JUMPI DUP1 PUSH4 0x3CA6D100 EQ PUSH2 0x9B JUMPI DUP1 PUSH4 0x41EC6870 EQ PUSH2 0xB7 JUMPI JUMPDEST PUSH0 DUP1 REVERT JUMPDEST PUSH2 0x99 PUSH1 0x4 DUP1 CALLDATASIZE SUB DUP2 ADD SWAP1 PUSH2 0x94 SWAP2 SWAP1 PUSH2 0xCE0 JUMP JUMPDEST PUSH2 0x15B JUMP JUMPDEST STOP JUMPDEST PUSH2 0xB5 PUSH1 0x4 DUP1 CALLDATASIZE SUB DUP2 ADD SWAP1 PUSH2 0xB0 SWAP2 SWAP1 PUSH2 0xD9F JUMP JUMPDEST PUSH2 0x1F6 JUMP JUMPDEST STOP JUMPDEST PUSH2 0xBF PUSH2 0x3D8 JUMP JUMPDEST PUSH1 0x40 MLOAD PUSH2 0xCC SWAP2 SWAP1 PUSH2 0xF97 JUMP JUMPDEST PUSH1 0x40 MLOAD DUP1 SWAP2 SUB SWAP1 RETURN JUMPDEST PUSH2 0xDD PUSH2 0x57F JUMP JUMPDEST STOP JUMPDEST PUSH2 0xF9 PUSH1 0x4 DUP1 CALLDATASIZE SUB DUP2 ADD SWAP1 PUSH2 0xF4 SWAP2 SWAP1 PUSH2 0xFED JUMP JUMPDEST PUSH2 0x66F JUMP JUMPDEST STOP JUMPDEST PUSH2 0x115 PUSH1 0x4 DUP1 CALLDATASIZE SUB DUP2 ADD SWAP1 PUSH2 0x110 SWAP2 SWAP1 PUSH2 0x1018 JUMP JUMPDEST PUSH2 0x8BF JUMP JUMPDEST PUSH1 0x40 MLOAD PUSH2 0x122 SWAP2 SWAP1 PUSH2 0xF97 JUMP JUMPDEST PUSH1 0x40 MLOAD DUP1 SWAP2 SUB SWAP1 RETURN JUMPDEST PUSH2 0x145 PUSH1 0x4 DUP1 CALLDATASIZE SUB DUP2 ADD SWAP1 PUSH2 0x140 SWAP2 SWAP1 PUSH2 0xCE0 JUMP JUMPDEST PUSH2 0xA67 JUMP JUMPDEST PUSH1 0x40 MLOAD PUSH2 0x152 SWAP2 SWAP1 PUSH2 0x1052 JUMP JUMPDEST PUSH1 0x40 MLOAD DUP1 SWAP2 SUB SWAP1 RETURN JUMPDEST PUSH1 0x1 PUSH0 SWAP1 SLOAD SWAP1 PUSH2 0x100 EXP SWAP1 DIV PUSH20 0xFFFFFFFFFFFFFFFFFFFFFFFFFFFFFFFFFFFFFFFF AND PUSH20 0xFFFFFFFFFFFFFFFFFFFFFFFFFFFFFFFFFFFFFFFF AND CALLER PUSH20 0xFFFFFFFFFFFFFFFFFFFFFFFFFFFFFFFFFFFFFFFF AND EQ PUSH2 0x1B3 JUMPI PUSH0 DUP1 REVERT JUMPDEST DUP1 PUSH1 0x1 PUSH0 PUSH2 0x100 EXP DUP2 SLOAD DUP2 PUSH20 0xFFFFFFFFFFFFFFFFFFFFFFFFFFFFFFFFFFFFFFFF MUL NOT AND SWAP1 DUP4 PUSH20 0xFFFFFFFFFFFFFFFFFFFFFFFFFFFFFFFFFFFFFFFF AND MUL OR SWAP1 SSTORE POP POP JUMP JUMPDEST PUSH1 0x1 PUSH0 SWAP1 SLOAD SWAP1 PUSH2 0x100 EXP SWAP1 DIV PUSH20 0xFFFFFFFFFFFFFFFFFFFFFFFFFFFFFFFFFFFFFFFF AND PUSH20 0xFFFFFFFFFFFFFFFFFFFFFFFFFFFFFFFFFFFFFFFF AND CALLER PUSH20 0xFFFFFFFFFFFFFFFFFFFFFFFFFFFFFFFFFFFFFFFF AND EQ PUSH2 0x24E JUMPI PUSH0 DUP1 REVERT JUMPDEST PUSH1 0x1 PUSH0 DUP1 DUP3 DUP3 SLOAD PUSH2 0x25F SWAP2 SWAP1 PUSH2 0x1098 JUMP JUMPDEST SWAP3 POP POP DUP2 SWAP1 SSTORE POP PUSH1 0x40 MLOAD DUP1 PUSH2 0x100 ADD PUSH1 0x40 MSTORE DUP1 DUP7 DUP7 DUP1 DUP1 PUSH1 0x1F ADD PUSH1 0x20 DUP1 SWAP2 DIV MUL PUSH1 0x20 ADD PUSH1 0x40 MLOAD SWAP1 DUP2 ADD PUSH1 0x40 MSTORE DUP1 SWAP4 SWAP3 SWAP2 SWAP1 DUP2 DUP2 MSTORE PUSH1 0x20 ADD DUP4 DUP4 DUP1 DUP3 DUP5 CALLDATACOPY PUSH0 DUP2 DUP5 ADD MSTORE PUSH1 0x1F NOT PUSH1 0x1F DUP3 ADD AND SWAP1 POP DUP1 DUP4 ADD SWAP3 POP POP POP POP POP POP POP DUP2 MSTORE PUSH1 0x20 ADD DUP5 DUP5 DUP1 DUP1 PUSH1 0x1F ADD PUSH1 0x20 DUP1 SWAP2 DIV MUL PUSH1 0x20 ADD PUSH1 0x40 MLOAD SWAP1 DUP2 ADD PUSH1 0x40 MSTORE DUP1 SWAP4 SWAP3 SWAP2 SWAP1 DUP2 DUP2 MSTORE PUSH1 0x20 ADD DUP4 DUP4 DUP1 DUP3 DUP5 CALLDATACOPY PUSH0 DUP2 DUP5 ADD MSTORE PUSH1 0x1F NOT PUSH1 0x1F DUP3 ADD AND SWAP1 POP DUP1 DUP4 ADD SWAP3 POP POP POP POP POP POP POP DUP2 MSTORE PUSH1 0x20 ADD PUSH0 DUP2 MSTORE PUSH1 0x20 ADD PUSH0 DUP2 MSTORE PUSH1 0x20 ADD PUSH0 DUP2 MSTORE PUSH1 0x20 ADD DUP3 DUP2 MSTORE PUSH1 0x20 ADD PUSH0 ISZERO ISZERO DUP2 MSTORE PUSH1 0x20 ADD PUSH1 0x1 ISZERO ISZERO DUP2 MSTORE POP PUSH1 0x3 PUSH0 DUP1 SLOAD DUP2 MSTORE PUSH1 0x20 ADD SWAP1 DUP2 MSTORE PUSH1 0x20 ADD PUSH0 KECCAK256 PUSH0 DUP3 ADD MLOAD DUP2 PUSH0 ADD SWAP1 DUP2 PUSH2 0x350 SWAP2 SWAP1 PUSH2 0x12F2 JUMP JUMPDEST POP PUSH1 0x20 DUP3 ADD MLOAD DUP2 PUSH1 0x1 ADD SWAP1 DUP2 PUSH2 0x366 SWAP2 SWAP1 PUSH2 0x12F2 JUMP JUMPDEST POP PUSH1 0x40 DUP3 ADD MLOAD DUP2 PUSH1 0x2 ADD SSTORE PUSH1 0x60 DUP3 ADD MLOAD DUP2 PUSH1 0x3 ADD SSTORE PUSH1 0x80 DUP3 ADD MLOAD DUP2 PUSH1 0x4 ADD SSTORE PUSH1 0xA0 DUP3 ADD MLOAD DUP2 PUSH1 0x5 ADD SSTORE PUSH1 0xC0 DUP3 ADD MLOAD DUP2 PUSH1 0x6 ADD PUSH0 PUSH2 0x100 EXP DUP2 SLOAD DUP2 PUSH1 0xFF MUL NOT AND SWAP1 DUP4 ISZERO ISZERO MUL OR SWAP1 SSTORE POP PUSH1 0xE0 DUP3 ADD MLOAD DUP2 PUSH1 0x6 ADD PUSH1 0x1 PUSH2 0x100 EXP DUP2 SLOAD DUP2 PUSH1 0xFF MUL NOT AND SWAP1 DUP4 ISZERO ISZERO MUL OR SWAP1 SSTORE POP SWAP1 POP POP POP POP POP POP POP JUMP JUMPDEST PUSH2 0x3E0 PUSH2 0xB99 JUMP JUMPDEST PUSH1 0x3 PUSH0 DUP1 SLOAD DUP2 MSTORE PUSH1 0x20 ADD SWAP1 DUP2 MSTORE PUSH1 0x20 ADD PUSH0 KECCAK256 PUSH1 0x40 MLOAD DUP1 PUSH2 0x100 ADD PUSH1 0x40 MSTORE SWAP1 DUP2 PUSH0 DUP3 ADD DUP1 SLOAD PUSH2 0x40D SWAP1 PUSH2 0x1125 JUMP JUMPDEST DUP1 PUSH1 0x1F ADD PUSH1 0x20 DUP1 SWAP2 DIV MUL PUSH1 0x20 ADD PUSH1 0x40 MLOAD SWAP1 DUP2 ADD PUSH1 0x40 MSTORE DUP1 SWAP3 SWAP2 SWAP1 DUP2 DUP2 MSTORE PUSH1 0x20 ADD DUP3 DUP1 SLOAD PUSH2 0x439 SWAP1 PUSH2 0x1125 JUMP JUMPDEST DUP1 ISZERO PUSH2 0x484 JUMPI DUP1 PUSH1 0x1F LT PUSH2 0x45B JUMPI PUSH2 0x100 DUP1 DUP4 SLOAD DIV MUL DUP4 MSTORE SWAP2 PUSH1 0x20 ADD SWAP2 PUSH2 0x484 JUMP JUMPDEST DUP3 ADD SWAP2 SWAP1 PUSH0 MSTORE PUSH1 0x20 PUSH0 KECCAK256 SWAP1 JUMPDEST DUP2 SLOAD DUP2 MSTORE SWAP1 PUSH1 0x1 ADD SWAP1 PUSH1 0x20 ADD DUP1 DUP4 GT PUSH2 0x467 JUMPI DUP3 SWAP1 SUB PUSH1 0x1F AND DUP3 ADD SWAP2 JUMPDEST POP POP POP POP POP DUP2 MSTORE PUSH1 0x20 ADD PUSH1 0x1 DUP3 ADD DUP1 SLOAD PUSH2 0x49D SWAP1 PUSH2 0x1125 JUMP JUMPDEST DUP1 PUSH1 0x1F ADD PUSH1 0x20 DUP1 SWAP2 DIV MUL PUSH1 0x20 ADD PUSH1 0x40 MLOAD SWAP1 DUP2 ADD PUSH1 0x40 MSTORE DUP1 SWAP3 SWAP2 SWAP1 DUP2 DUP2 MSTORE PUSH1 0x20 ADD DUP3 DUP1 SLOAD PUSH2 0x4C9 SWAP1 PUSH2 0x1125 JUMP JUMPDEST DUP1 ISZERO PUSH2 0x514 JUMPI DUP1 PUSH1 0x1F LT PUSH2 0x4EB JUMPI PUSH2 0x100 DUP1 DUP4 SLOAD DIV MUL DUP4 MSTORE SWAP2 PUSH1 0x20 ADD SWAP2 PUSH2 0x514 JUMP JUMPDEST DUP3 ADD SWAP2 SWAP1 PUSH0 MSTORE PUSH1 0x20 PUSH0 KECCAK256 SWAP1 JUMPDEST DUP2 SLOAD DUP2 MSTORE SWAP1 PUSH1 0x1 ADD SWAP1 PUSH1 0x20 ADD DUP1 DUP4 GT PUSH2 0x4F7 JUMPI DUP3 SWAP1 SUB PUSH1 0x1F AND DUP3 ADD SWAP2 JUMPDEST POP POP POP POP POP DUP2 MSTORE PUSH1 0x20 ADD PUSH1 0x2 DUP3 ADD SLOAD DUP2 MSTORE PUSH1 0x20 ADD PUSH1 0x3 DUP3 ADD SLOAD DUP2 MSTORE PUSH1 0x20 ADD PUSH1 0x4 DUP3 ADD SLOAD DUP2 MSTORE PUSH1 0x20 ADD PUSH1 0x5 DUP3 ADD SLOAD DUP2 MSTORE PUSH1 0x20 ADD PUSH1 0x6 DUP3 ADD PUSH0 SWAP1 SLOAD SWAP1 PUSH2 0x100 EXP SWAP1 DIV PUSH1 0xFF AND ISZERO ISZERO ISZERO ISZERO DUP2 MSTORE PUSH1 0x20 ADD PUSH1 0x6 DUP3 ADD PUSH1 0x1 SWAP1 SLOAD SWAP1 PUSH2 0x100 EXP SWAP1 DIV PUSH1 0xFF AND ISZERO ISZERO ISZERO ISZERO DUP2 MSTORE POP POP SWAP1 POP SWAP1 JUMP JUMPDEST PUSH1 0x1 PUSH0 SWAP1 SLOAD SWAP1 PUSH2 0x100 EXP SWAP1 DIV PUSH20 0xFFFFFFFFFFFFFFFFFFFFFFFFFFFFFFFFFFFFFFFF AND PUSH20 0xFFFFFFFFFFFFFFFFFFFFFFFFFFFFFFFFFFFFFFFF AND CALLER PUSH20 0xFFFFFFFFFFFFFFFFFFFFFFFFFFFFFFFFFFFFFFFF AND EQ PUSH2 0x5D7 JUMPI PUSH0 DUP1 REVERT JUMPDEST PUSH1 0x1 ISZERO ISZERO PUSH1 0x3 PUSH0 DUP1 SLOAD DUP2 MSTORE PUSH1 0x20 ADD SWAP1 DUP2 MSTORE PUSH1 0x20 ADD PUSH0 KECCAK256 PUSH1 0x6 ADD PUSH1 0x1 SWAP1 SLOAD SWAP1 PUSH2 0x100 EXP SWAP1 DIV PUSH1 0xFF AND ISZERO ISZERO EQ PUSH2 0x640 JUMPI PUSH1 0x40 MLOAD PUSH32 0x8C379A000000000000000000000000000000000000000000000000000000000 DUP2 MSTORE PUSH1 0x4 ADD PUSH2 0x637 SWAP1 PUSH2 0x141B JUMP JUMPDEST PUSH1 0x40 MLOAD DUP1 SWAP2 SUB SWAP1 REVERT JUMPDEST PUSH0 PUSH1 0x3 PUSH0 DUP1 SLOAD DUP2 MSTORE PUSH1 0x20 ADD SWAP1 DUP2 MSTORE PUSH1 0x20 ADD PUSH0 KECCAK256 PUSH1 0x6 ADD PUSH1 0x1 PUSH2 0x100 EXP DUP2 SLOAD DUP2 PUSH1 0xFF MUL NOT AND SWAP1 DUP4 ISZERO ISZERO MUL OR SWAP1 SSTORE POP JUMP JUMPDEST PUSH0 PUSH1 0x3 PUSH0 DUP1 SLOAD DUP2 MSTORE PUSH1 0x20 ADD SWAP1 DUP2 MSTORE PUSH1 0x20 ADD PUSH0 KECCAK256 SWAP1 POP PUSH0 DUP2 PUSH1 0x4 ADD SLOAD DUP3 PUSH1 0x3 ADD SLOAD DUP4 PUSH1 0x2 ADD SLOAD PUSH2 0x69E SWAP2 SWAP1 PUSH2 0x1098 JUMP JUMPDEST PUSH2 0x6A8 SWAP2 SWAP1 PUSH2 0x1098 JUMP JUMPDEST SWAP1 POP PUSH1 0x2 CALLER SWAP1 DUP1 PUSH1 0x1 DUP2 SLOAD ADD DUP1 DUP3 SSTORE DUP1 SWAP2 POP POP PUSH1 0x1 SWAP1 SUB SWAP1 PUSH0 MSTORE PUSH1 0x20 PUSH0 KECCAK256 ADD PUSH0 SWAP1 SWAP2 SWAP1 SWAP2 SWAP1 SWAP2 PUSH2 0x100 EXP DUP2 SLOAD DUP2 PUSH20 0xFFFFFFFFFFFFFFFFFFFFFFFFFFFFFFFFFFFFFFFF MUL NOT AND SWAP1 DUP4 PUSH20 0xFFFFFFFFFFFFFFFFFFFFFFFFFFFFFFFFFFFFFFFF AND MUL OR SWAP1 SSTORE POP PUSH1 0x1 DUP4 PUSH1 0xFF AND SUB PUSH2 0x757 JUMPI PUSH1 0x1 DUP3 PUSH1 0x2 ADD PUSH0 DUP3 DUP3 SLOAD PUSH2 0x729 SWAP2 SWAP1 PUSH2 0x1098 JUMP JUMPDEST SWAP3 POP POP DUP2 SWAP1 SSTORE POP PUSH2 0x738 PUSH2 0xB09 JUMP JUMPDEST DUP3 PUSH1 0x6 ADD PUSH0 PUSH2 0x100 EXP DUP2 SLOAD DUP2 PUSH1 0xFF MUL NOT AND SWAP1 DUP4 ISZERO ISZERO MUL OR SWAP1 SSTORE POP PUSH2 0x7EE JUMP JUMPDEST PUSH1 0x2 DUP4 PUSH1 0xFF AND SUB PUSH2 0x7A4 JUMPI PUSH1 0x1 DUP3 PUSH1 0x3 ADD PUSH0 DUP3 DUP3 SLOAD PUSH2 0x776 SWAP2 SWAP1 PUSH2 0x1098 JUMP JUMPDEST SWAP3 POP POP DUP2 SWAP1 SSTORE POP PUSH2 0x785 PUSH2 0xB09 JUMP JUMPDEST DUP3 PUSH1 0x6 ADD PUSH0 PUSH2 0x100 EXP DUP2 SLOAD DUP2 PUSH1 0xFF MUL NOT AND SWAP1 DUP4 ISZERO ISZERO MUL OR SWAP1 SSTORE POP PUSH2 0x7ED JUMP JUMPDEST PUSH0 DUP4 PUSH1 0xFF AND SUB PUSH2 0x7EC JUMPI PUSH1 0x1 DUP3 PUSH1 0x4 ADD PUSH0 DUP3 DUP3 SLOAD PUSH2 0x7C2 SWAP2 SWAP1 PUSH2 0x1098 JUMP JUMPDEST SWAP3 POP POP DUP2 SWAP1 SSTORE POP PUSH2 0x7D1 PUSH2 0xB09 JUMP JUMPDEST DUP3 PUSH1 0x6 ADD PUSH0 PUSH2 0x100 EXP DUP2 SLOAD DUP2 PUSH1 0xFF MUL NOT AND SWAP1 DUP4 ISZERO ISZERO MUL OR SWAP1 SSTORE POP JUMPDEST JUMPDEST JUMPDEST PUSH1 0x1 DUP2 DUP4 PUSH1 0x5 ADD SLOAD PUSH2 0x800 SWAP2 SWAP1 PUSH2 0x1439 JUMP JUMPDEST EQ DUP1 ISZERO PUSH2 0x82B JUMPI POP PUSH1 0x1 DUP4 PUSH1 0xFF AND EQ DUP1 PUSH2 0x81D JUMPI POP PUSH1 0x2 DUP4 PUSH1 0xFF AND EQ JUMPDEST DUP1 PUSH2 0x82A JUMPI POP PUSH0 DUP4 PUSH1 0xFF AND EQ JUMPDEST JUMPDEST ISZERO PUSH2 0x8BA JUMPI PUSH0 DUP3 PUSH1 0x6 ADD PUSH1 0x1 PUSH2 0x100 EXP DUP2 SLOAD DUP2 PUSH1 0xFF MUL NOT AND SWAP1 DUP4 ISZERO ISZERO MUL OR SWAP1 SSTORE POP PUSH1 0x40 MLOAD DUP1 PUSH1 0x20 ADD PUSH1 0x40 MSTORE DUP1 PUSH1 0x1 PUSH0 SWAP1 SLOAD SWAP1 PUSH2 0x100 EXP SWAP1 DIV PUSH20 0xFFFFFFFFFFFFFFFFFFFFFFFFFFFFFFFFFFFFFFFF AND PUSH20 0xFFFFFFFFFFFFFFFFFFFFFFFFFFFFFFFFFFFFFFFF AND PUSH20 0xFFFFFFFFFFFFFFFFFFFFFFFFFFFFFFFFFFFFFFFF AND DUP2 MSTORE POP PUSH1 0x2 SWAP1 PUSH1 0x1 PUSH2 0x8B8 SWAP3 SWAP2 SWAP1 PUSH2 0xBDC JUMP JUMPDEST POP JUMPDEST POP POP POP JUMP JUMPDEST PUSH2 0x8C7 PUSH2 0xB99 JUMP JUMPDEST PUSH1 0x3 PUSH0 DUP4 DUP2 MSTORE PUSH1 0x20 ADD SWAP1 DUP2 MSTORE PUSH1 0x20 ADD PUSH0 KECCAK256 PUSH1 0x40 MLOAD DUP1 PUSH2 0x100 ADD PUSH1 0x40 MSTORE SWAP1 DUP2 PUSH0 DUP3 ADD DUP1 SLOAD PUSH2 0x8F3 SWAP1 PUSH2 0x1125 JUMP JUMPDEST DUP1 PUSH1 0x1F ADD PUSH1 0x20 DUP1 SWAP2 DIV MUL PUSH1 0x20 ADD PUSH1 0x40 MLOAD SWAP1 DUP2 ADD PUSH1 0x40 MSTORE DUP1 SWAP3 SWAP2 SWAP1 DUP2 DUP2 MSTORE PUSH1 0x20 ADD DUP3 DUP1 SLOAD PUSH2 0x91F SWAP1 PUSH2 0x1125 JUMP JUMPDEST DUP1 ISZERO PUSH2 0x96A JUMPI DUP1 PUSH1 0x1F LT PUSH2 0x941 JUMPI PUSH2 0x100 DUP1 DUP4 SLOAD DIV MUL DUP4 MSTORE SWAP2 PUSH1 0x20 ADD SWAP2 PUSH2 0x96A JUMP JUMPDEST DUP3 ADD SWAP2 SWAP1 PUSH0 MSTORE PUSH1 0x20 PUSH0 KECCAK256 SWAP1 JUMPDEST DUP2 SLOAD DUP2 MSTORE SWAP1 PUSH1 0x1 ADD SWAP1 PUSH1 0x20 ADD DUP1 DUP4 GT PUSH2 0x94D JUMPI DUP3 SWAP1 SUB PUSH1 0x1F AND DUP3 ADD SWAP2 JUMPDEST POP POP POP POP POP DUP2 MSTORE PUSH1 0x20 ADD PUSH1 0x1 DUP3 ADD DUP1 SLOAD PUSH2 0x983 SWAP1 PUSH2 0x1125 JUMP JUMPDEST DUP1 PUSH1 0x1F ADD PUSH1 0x20 DUP1 SWAP2 DIV MUL PUSH1 0x20 ADD PUSH1 0x40 MLOAD SWAP1 DUP2 ADD PUSH1 0x40 MSTORE DUP1 SWAP3 SWAP2 SWAP1 DUP2 DUP2 MSTORE PUSH1 0x20 ADD DUP3 DUP1 SLOAD PUSH2 0x9AF SWAP1 PUSH2 0x1125 JUMP JUMPDEST DUP1 ISZERO PUSH2 0x9FA JUMPI DUP1 PUSH1 0x1F LT PUSH2 0x9D1 JUMPI PUSH2 0x100 DUP1 DUP4 SLOAD DIV MUL DUP4 MSTORE SWAP2 PUSH1 0x20 ADD SWAP2 PUSH2 0x9FA JUMP JUMPDEST DUP3 ADD SWAP2 SWAP1 PUSH0 MSTORE PUSH1 0x20 PUSH0 KECCAK256 SWAP1 JUMPDEST DUP2 SLOAD DUP2 MSTORE SWAP1 PUSH1 0x1 ADD SWAP1 PUSH1 0x20 ADD DUP1 DUP4 GT PUSH2 0x9DD JUMPI DUP3 SWAP1 SUB PUSH1 0x1F AND DUP3 ADD SWAP2 JUMPDEST POP POP POP POP POP DUP2 MSTORE PUSH1 0x20 ADD PUSH1 0x2 DUP3 ADD SLOAD DUP2 MSTORE PUSH1 0x20 ADD PUSH1 0x3 DUP3 ADD SLOAD DUP2 MSTORE PUSH1 0x20 ADD PUSH1 0x4 DUP3 ADD SLOAD DUP2 MSTORE PUSH1 0x20 ADD PUSH1 0x5 DUP3 ADD SLOAD DUP2 MSTORE PUSH1 0x20 ADD PUSH1 0x6 DUP3 ADD PUSH0 SWAP1 SLOAD SWAP1 PUSH2 0x100 EXP SWAP1 DIV PUSH1 0xFF AND ISZERO ISZERO ISZERO ISZERO DUP2 MSTORE PUSH1 0x20 ADD PUSH1 0x6 DUP3 ADD PUSH1 0x1 SWAP1 SLOAD SWAP1 PUSH2 0x100 EXP SWAP1 DIV PUSH1 0xFF AND ISZERO ISZERO ISZERO ISZERO DUP2 MSTORE POP POP SWAP1 POP SWAP2 SWAP1 POP JUMP JUMPDEST PUSH0 DUP1 PUSH0 SWAP1 POP JUMPDEST PUSH1 0x2 DUP1 SLOAD SWAP1 POP DUP2 LT ISZERO PUSH2 0xAFF JUMPI DUP3 PUSH20 0xFFFFFFFFFFFFFFFFFFFFFFFFFFFFFFFFFFFFFFFF AND PUSH1 0x2 DUP3 DUP2 SLOAD DUP2 LT PUSH2 0xAA5 JUMPI PUSH2 0xAA4 PUSH2 0x146C JUMP JUMPDEST JUMPDEST SWAP1 PUSH0 MSTORE PUSH1 0x20 PUSH0 KECCAK256 ADD PUSH0 SWAP1 SLOAD SWAP1 PUSH2 0x100 EXP SWAP1 DIV PUSH20 0xFFFFFFFFFFFFFFFFFFFFFFFFFFFFFFFFFFFFFFFF AND PUSH20 0xFFFFFFFFFFFFFFFFFFFFFFFFFFFFFFFFFFFFFFFF AND SUB PUSH2 0xAF2 JUMPI PUSH1 0x1 SWAP2 POP POP PUSH2 0xB04 JUMP JUMPDEST DUP1 DUP1 PUSH1 0x1 ADD SWAP2 POP POP PUSH2 0xA6D JUMP JUMPDEST POP PUSH0 SWAP1 POP JUMPDEST SWAP2 SWAP1 POP JUMP JUMPDEST PUSH0 DUP1 PUSH1 0x3 PUSH0 DUP1 SLOAD DUP2 MSTORE PUSH1 0x20 ADD SWAP1 DUP2 MSTORE PUSH1 0x20 ADD PUSH0 KECCAK256 SWAP1 POP PUSH0 DUP2 PUSH1 0x2 ADD SLOAD SWAP1 POP PUSH0 DUP3 PUSH1 0x3 ADD SLOAD SWAP1 POP PUSH0 DUP4 PUSH1 0x4 ADD SLOAD SWAP1 POP PUSH1 0x1 PUSH1 0x2 DUP6 PUSH1 0x4 ADD SLOAD PUSH2 0xB4A SWAP2 SWAP1 PUSH2 0x14C6 JUMP JUMPDEST SUB PUSH2 0xB5F JUMPI PUSH1 0x1 DUP2 PUSH2 0xB5C SWAP2 SWAP1 PUSH2 0x1098 JUMP JUMPDEST SWAP1 POP JUMPDEST PUSH1 0x2 DUP2 PUSH2 0xB6C SWAP2 SWAP1 PUSH2 0x14F6 JUMP JUMPDEST SWAP1 POP DUP1 DUP3 PUSH2 0xB7A SWAP2 SWAP1 PUSH2 0x1098 JUMP JUMPDEST DUP4 GT ISZERO PUSH2 0xB8E JUMPI PUSH1 0x1 SWAP5 POP POP POP POP POP PUSH2 0xB96 JUMP JUMPDEST PUSH0 SWAP5 POP POP POP POP POP JUMPDEST SWAP1 JUMP JUMPDEST PUSH1 0x40 MLOAD DUP1 PUSH2 0x100 ADD PUSH1 0x40 MSTORE DUP1 PUSH1 0x60 DUP2 MSTORE PUSH1 0x20 ADD PUSH1 0x60 DUP2 MSTORE PUSH1 0x20 ADD PUSH0 DUP2 MSTORE PUSH1 0x20 ADD PUSH0 DUP2 MSTORE PUSH1 0x20 ADD PUSH0 DUP2 MSTORE PUSH1 0x20 ADD PUSH0 DUP2 MSTORE PUSH1 0x20 ADD PUSH0 ISZERO ISZERO DUP2 MSTORE PUSH1 0x20 ADD PUSH0 ISZERO ISZERO DUP2 MSTORE POP SWAP1 JUMP JUMPDEST DUP3 DUP1 SLOAD DUP3 DUP3 SSTORE SWAP1 PUSH0 MSTORE PUSH1 0x20 PUSH0 KECCAK256 SWAP1 DUP2 ADD SWAP3 DUP3 ISZERO PUSH2 0xC52 JUMPI SWAP2 PUSH1 0x20 MUL DUP3 ADD JUMPDEST DUP3 DUP2 GT ISZERO PUSH2 0xC51 JUMPI DUP3 MLOAD DUP3 PUSH0 PUSH2 0x100 EXP DUP2 SLOAD DUP2 PUSH20 0xFFFFFFFFFFFFFFFFFFFFFFFFFFFFFFFFFFFFFFFF MUL NOT AND SWAP1 DUP4 PUSH20 0xFFFFFFFFFFFFFFFFFFFFFFFFFFFFFFFFFFFFFFFF AND MUL OR SWAP1 SSTORE POP SWAP2 PUSH1 0x20 ADD SWAP2 SWAP1 PUSH1 0x1 ADD SWAP1 PUSH2 0xBFA JUMP JUMPDEST JUMPDEST POP SWAP1 POP PUSH2 0xC5F SWAP2 SWAP1 PUSH2 0xC63 JUMP JUMPDEST POP SWAP1 JUMP JUMPDEST JUMPDEST DUP1 DUP3 GT ISZERO PUSH2 0xC7A JUMPI PUSH0 DUP2 PUSH0 SWAP1 SSTORE POP PUSH1 0x1 ADD PUSH2 0xC64 JUMP JUMPDEST POP SWAP1 JUMP JUMPDEST PUSH0 DUP1 REVERT JUMPDEST PUSH0 DUP1 REVERT JUMPDEST PUSH0 PUSH20 0xFFFFFFFFFFFFFFFFFFFFFFFFFFFFFFFFFFFFFFFF DUP3 AND SWAP1 POP SWAP2 SWAP1 POP JUMP JUMPDEST PUSH0 PUSH2 0xCAF DUP3 PUSH2 0xC86 JUMP JUMPDEST SWAP1 POP SWAP2 SWAP1 POP JUMP JUMPDEST PUSH2 0xCBF DUP2 PUSH2 0xCA5 JUMP JUMPDEST DUP2 EQ PUSH2 0xCC9 JUMPI PUSH0 DUP1 REVERT JUMPDEST POP JUMP JUMPDEST PUSH0 DUP2 CALLDATALOAD SWAP1 POP PUSH2 0xCDA DUP2 PUSH2 0xCB6 JUMP JUMPDEST SWAP3 SWAP2 POP POP JUMP JUMPDEST PUSH0 PUSH1 0x20 DUP3 DUP5 SUB SLT ISZERO PUSH2 0xCF5 JUMPI PUSH2 0xCF4 PUSH2 0xC7E JUMP JUMPDEST JUMPDEST PUSH0 PUSH2 0xD02 DUP5 DUP3 DUP6 ADD PUSH2 0xCCC JUMP JUMPDEST SWAP2 POP POP SWAP3 SWAP2 POP POP JUMP JUMPDEST PUSH0 DUP1 REVERT JUMPDEST PUSH0 DUP1 REVERT JUMPDEST PUSH0 DUP1 REVERT JUMPDEST PUSH0 DUP1 DUP4 PUSH1 0x1F DUP5 ADD SLT PUSH2 0xD2C JUMPI PUSH2 0xD2B PUSH2 0xD0B JUMP JUMPDEST JUMPDEST DUP3 CALLDATALOAD SWAP1 POP PUSH8 0xFFFFFFFFFFFFFFFF DUP2 GT ISZERO PUSH2 0xD49 JUMPI PUSH2 0xD48 PUSH2 0xD0F JUMP JUMPDEST JUMPDEST PUSH1 0x20 DUP4 ADD SWAP2 POP DUP4 PUSH1 0x1 DUP3 MUL DUP4 ADD GT ISZERO PUSH2 0xD65 JUMPI PUSH2 0xD64 PUSH2 0xD13 JUMP JUMPDEST JUMPDEST SWAP3 POP SWAP3 SWAP1 POP JUMP JUMPDEST PUSH0 DUP2 SWAP1 POP SWAP2 SWAP1 POP JUMP JUMPDEST PUSH2 0xD7E DUP2 PUSH2 0xD6C JUMP JUMPDEST DUP2 EQ PUSH2 0xD88 JUMPI PUSH0 DUP1 REVERT JUMPDEST POP JUMP JUMPDEST PUSH0 DUP2 CALLDATALOAD SWAP1 POP PUSH2 0xD99 DUP2 PUSH2 0xD75 JUMP JUMPDEST SWAP3 SWAP2 POP POP JUMP JUMPDEST PUSH0 DUP1 PUSH0 DUP1 PUSH0 PUSH1 0x60 DUP7 DUP9 SUB SLT ISZERO PUSH2 0xDB8 JUMPI PUSH2 0xDB7 PUSH2 0xC7E JUMP JUMPDEST JUMPDEST PUSH0 DUP7 ADD CALLDATALOAD PUSH8 0xFFFFFFFFFFFFFFFF DUP2 GT ISZERO PUSH2 0xDD5 JUMPI PUSH2 0xDD4 PUSH2 0xC82 JUMP JUMPDEST JUMPDEST PUSH2 0xDE1 DUP9 DUP3 DUP10 ADD PUSH2 0xD17 JUMP JUMPDEST SWAP6 POP SWAP6 POP POP PUSH1 0x20 DUP7 ADD CALLDATALOAD PUSH8 0xFFFFFFFFFFFFFFFF DUP2 GT ISZERO PUSH2 0xE04 JUMPI PUSH2 0xE03 PUSH2 0xC82 JUMP JUMPDEST JUMPDEST PUSH2 0xE10 DUP9 DUP3 DUP10 ADD PUSH2 0xD17 JUMP JUMPDEST SWAP4 POP SWAP4 POP POP PUSH1 0x40 PUSH2 0xE23 DUP9 DUP3 DUP10 ADD PUSH2 0xD8B JUMP JUMPDEST SWAP2 POP POP SWAP3 SWAP6 POP SWAP3 SWAP6 SWAP1 SWAP4 POP JUMP JUMPDEST PUSH0 DUP2 MLOAD SWAP1 POP SWAP2 SWAP1 POP JUMP JUMPDEST PUSH0 DUP3 DUP3 MSTORE PUSH1 0x20 DUP3 ADD SWAP1 POP SWAP3 SWAP2 POP POP JUMP JUMPDEST PUSH0 JUMPDEST DUP4 DUP2 LT ISZERO PUSH2 0xE67 JUMPI DUP1 DUP3 ADD MLOAD DUP2 DUP5 ADD MSTORE PUSH1 0x20 DUP2 ADD SWAP1 POP PUSH2 0xE4C JUMP JUMPDEST PUSH0 DUP5 DUP5 ADD MSTORE POP POP POP POP JUMP JUMPDEST PUSH0 PUSH1 0x1F NOT PUSH1 0x1F DUP4 ADD AND SWAP1 POP SWAP2 SWAP1 POP JUMP JUMPDEST PUSH0 PUSH2 0xE8C DUP3 PUSH2 0xE30 JUMP JUMPDEST PUSH2 0xE96 DUP2 DUP6 PUSH2 0xE3A JUMP JUMPDEST SWAP4 POP PUSH2 0xEA6 DUP2 DUP6 PUSH1 0x20 DUP7 ADD PUSH2 0xE4A JUMP JUMPDEST PUSH2 0xEAF DUP2 PUSH2 0xE72 JUMP JUMPDEST DUP5 ADD SWAP2 POP POP SWAP3 SWAP2 POP POP JUMP JUMPDEST PUSH2 0xEC3 DUP2 PUSH2 0xD6C JUMP JUMPDEST DUP3 MSTORE POP POP JUMP JUMPDEST PUSH0 DUP2 ISZERO ISZERO SWAP1 POP SWAP2 SWAP1 POP JUMP JUMPDEST PUSH2 0xEDD DUP2 PUSH2 0xEC9 JUMP JUMPDEST DUP3 MSTORE POP POP JUMP JUMPDEST PUSH0 PUSH2 0x100 DUP4 ADD PUSH0 DUP4 ADD MLOAD DUP5 DUP3 SUB PUSH0 DUP7 ADD MSTORE PUSH2 0xEFE DUP3 DUP3 PUSH2 0xE82 JUMP JUMPDEST SWAP2 POP POP PUSH1 0x20 DUP4 ADD MLOAD DUP5 DUP3 SUB PUSH1 0x20 DUP7 ADD MSTORE PUSH2 0xF18 DUP3 DUP3 PUSH2 0xE82 JUMP JUMPDEST SWAP2 POP POP PUSH1 0x40 DUP4 ADD MLOAD PUSH2 0xF2D PUSH1 0x40 DUP7 ADD DUP3 PUSH2 0xEBA JUMP JUMPDEST POP PUSH1 0x60 DUP4 ADD MLOAD PUSH2 0xF40 PUSH1 0x60 DUP7 ADD DUP3 PUSH2 0xEBA JUMP JUMPDEST POP PUSH1 0x80 DUP4 ADD MLOAD PUSH2 0xF53 PUSH1 0x80 DUP7 ADD DUP3 PUSH2 0xEBA JUMP JUMPDEST POP PUSH1 0xA0 DUP4 ADD MLOAD PUSH2 0xF66 PUSH1 0xA0 DUP7 ADD DUP3 PUSH2 0xEBA JUMP JUMPDEST POP PUSH1 0xC0 DUP4 ADD MLOAD PUSH2 0xF79 PUSH1 0xC0 DUP7 ADD DUP3 PUSH2 0xED4 JUMP JUMPDEST POP PUSH1 0xE0 DUP4 ADD MLOAD PUSH2 0xF8C PUSH1 0xE0 DUP7 ADD DUP3 PUSH2 0xED4 JUMP JUMPDEST POP DUP1 SWAP2 POP POP SWAP3 SWAP2 POP POP JUMP JUMPDEST PUSH0 PUSH1 0x20 DUP3 ADD SWAP1 POP DUP2 DUP2 SUB PUSH0 DUP4 ADD MSTORE PUSH2 0xFAF DUP2 DUP5 PUSH2 0xEE3 JUMP JUMPDEST SWAP1 POP SWAP3 SWAP2 POP POP JUMP JUMPDEST PUSH0 PUSH1 0xFF DUP3 AND SWAP1 POP SWAP2 SWAP1 POP JUMP JUMPDEST PUSH2 0xFCC DUP2 PUSH2 0xFB7 JUMP JUMPDEST DUP2 EQ PUSH2 0xFD6 JUMPI PUSH0 DUP1 REVERT JUMPDEST POP JUMP JUMPDEST PUSH0 DUP2 CALLDATALOAD SWAP1 POP PUSH2 0xFE7 DUP2 PUSH2 0xFC3 JUMP JUMPDEST SWAP3 SWAP2 POP POP JUMP JUMPDEST PUSH0 PUSH1 0x20 DUP3 DUP5 SUB SLT ISZERO PUSH2 0x1002 JUMPI PUSH2 0x1001 PUSH2 0xC7E JUMP JUMPDEST JUMPDEST PUSH0 PUSH2 0x100F DUP5 DUP3 DUP6 ADD PUSH2 0xFD9 JUMP JUMPDEST SWAP2 POP POP SWAP3 SWAP2 POP POP JUMP JUMPDEST PUSH0 PUSH1 0x20 DUP3 DUP5 SUB SLT ISZERO PUSH2 0x102D JUMPI PUSH2 0x102C PUSH2 0xC7E JUMP JUMPDEST JUMPDEST PUSH0 PUSH2 0x103A DUP5 DUP3 DUP6 ADD PUSH2 0xD8B JUMP JUMPDEST SWAP2 POP POP SWAP3 SWAP2 POP POP JUMP JUMPDEST PUSH2 0x104C DUP2 PUSH2 0xEC9 JUMP JUMPDEST DUP3 MSTORE POP POP JUMP JUMPDEST PUSH0 PUSH1 0x20 DUP3 ADD SWAP1 POP PUSH2 0x1065 PUSH0 DUP4 ADD DUP5 PUSH2 0x1043 JUMP JUMPDEST SWAP3 SWAP2 POP POP JUMP JUMPDEST PUSH32 0x4E487B7100000000000000000000000000000000000000000000000000000000 PUSH0 MSTORE PUSH1 0x11 PUSH1 0x4 MSTORE PUSH1 0x24 PUSH0 REVERT JUMPDEST PUSH0 PUSH2 0x10A2 DUP3 PUSH2 0xD6C JUMP JUMPDEST SWAP2 POP PUSH2 0x10AD DUP4 PUSH2 0xD6C JUMP JUMPDEST SWAP3 POP DUP3 DUP3 ADD SWAP1 POP DUP1 DUP3 GT ISZERO PUSH2 0x10C5 JUMPI PUSH2 0x10C4 PUSH2 0x106B JUMP JUMPDEST JUMPDEST SWAP3 SWAP2 POP POP JUMP JUMPDEST PUSH32 0x4E487B7100000000000000000000000000000000000000000000000000000000 PUSH0 MSTORE PUSH1 0x41 PUSH1 0x4 MSTORE PUSH1 0x24 PUSH0 REVERT JUMPDEST PUSH32 0x4E487B7100000000000000000000000000000000000000000000000000000000 PUSH0 MSTORE PUSH1 0x22 PUSH1 0x4 MSTORE PUSH1 0x24 PUSH0 REVERT JUMPDEST PUSH0 PUSH1 0x2 DUP3 DIV SWAP1 POP PUSH1 0x1 DUP3 AND DUP1 PUSH2 0x113C JUMPI PUSH1 0x7F DUP3 AND SWAP2 POP JUMPDEST PUSH1 0x20 DUP3 LT DUP2 SUB PUSH2 0x114F JUMPI PUSH2 0x114E PUSH2 0x10F8 JUMP JUMPDEST JUMPDEST POP SWAP2 SWAP1 POP JUMP JUMPDEST PUSH0 DUP2 SWAP1 POP DUP2 PUSH0 MSTORE PUSH1 0x20 PUSH0 KECCAK256 SWAP1 POP SWAP2 SWAP1 POP JUMP JUMPDEST PUSH0 PUSH1 0x20 PUSH1 0x1F DUP4 ADD DIV SWAP1 POP SWAP2 SWAP1 POP JUMP JUMPDEST PUSH0 DUP3 DUP3 SHL SWAP1 POP SWAP3 SWAP2 POP POP JUMP JUMPDEST PUSH0 PUSH1 0x8 DUP4 MUL PUSH2 0x11B1 PUSH32 0xFFFFFFFFFFFFFFFFFFFFFFFFFFFFFFFFFFFFFFFFFFFFFFFFFFFFFFFFFFFFFFFF DUP3 PUSH2 0x1176 JUMP JUMPDEST PUSH2 0x11BB DUP7 DUP4 PUSH2 0x1176 JUMP JUMPDEST SWAP6 POP DUP1 NOT DUP5 AND SWAP4 POP DUP1 DUP7 AND DUP5 OR SWAP3 POP POP POP SWAP4 SWAP3 POP POP POP JUMP JUMPDEST PUSH0 DUP2 SWAP1 POP SWAP2 SWAP1 POP JUMP JUMPDEST PUSH0 PUSH2 0x11F6 PUSH2 0x11F1 PUSH2 0x11EC DUP5 PUSH2 0xD6C JUMP JUMPDEST PUSH2 0x11D3 JUMP JUMPDEST PUSH2 0xD6C JUMP JUMPDEST SWAP1 POP SWAP2 SWAP1 POP JUMP JUMPDEST PUSH0 DUP2 SWAP1 POP SWAP2 SWAP1 POP JUMP JUMPDEST PUSH2 0x120F DUP4 PUSH2 0x11DC JUMP JUMPDEST PUSH2 0x1223 PUSH2 0x121B DUP3 PUSH2 0x11FD JUMP JUMPDEST DUP5 DUP5 SLOAD PUSH2 0x1182 JUMP JUMPDEST DUP3 SSTORE POP POP POP POP JUMP JUMPDEST PUSH0 SWAP1 JUMP JUMPDEST PUSH2 0x1237 PUSH2 0x122B JUMP JUMPDEST PUSH2 0x1242 DUP2 DUP5 DUP5 PUSH2 0x1206 JUMP JUMPDEST POP POP POP JUMP JUMPDEST JUMPDEST DUP2 DUP2 LT ISZERO PUSH2 0x1265 JUMPI PUSH2 0x125A PUSH0 DUP3 PUSH2 0x122F JUMP JUMPDEST PUSH1 0x1 DUP2 ADD SWAP1 POP PUSH2 0x1248 JUMP JUMPDEST POP POP JUMP JUMPDEST PUSH1 0x1F DUP3 GT ISZERO PUSH2 0x12AA JUMPI PUSH2 0x127B DUP2 PUSH2 0x1155 JUMP JUMPDEST PUSH2 0x1284 DUP5 PUSH2 0x1167 JUMP JUMPDEST DUP2 ADD PUSH1 0x20 DUP6 LT ISZERO PUSH2 0x1293 JUMPI DUP2 SWAP1 POP JUMPDEST PUSH2 0x12A7 PUSH2 0x129F DUP6 PUSH2 0x1167 JUMP JUMPDEST DUP4 ADD DUP3 PUSH2 0x1247 JUMP JUMPDEST POP POP JUMPDEST POP POP POP JUMP JUMPDEST PUSH0 DUP3 DUP3 SHR SWAP1 POP SWAP3 SWAP2 POP POP JUMP JUMPDEST PUSH0 PUSH2 0x12CA PUSH0 NOT DUP5 PUSH1 0x8 MUL PUSH2 0x12AF JUMP JUMPDEST NOT DUP1 DUP4 AND SWAP2 POP POP SWAP3 SWAP2 POP POP JUMP JUMPDEST PUSH0 PUSH2 0x12E2 DUP4 DUP4 PUSH2 0x12BB JUMP JUMPDEST SWAP2 POP DUP3 PUSH1 0x2 MUL DUP3 OR SWAP1 POP SWAP3 SWAP2 POP POP JUMP JUMPDEST PUSH2 0x12FB DUP3 PUSH2 0xE30 JUMP JUMPDEST PUSH8 0xFFFFFFFFFFFFFFFF DUP2 GT ISZERO PUSH2 0x1314 JUMPI PUSH2 0x1313 PUSH2 0x10CB JUMP JUMPDEST JUMPDEST PUSH2 0x131E DUP3 SLOAD PUSH2 0x1125 JUMP JUMPDEST PUSH2 0x1329 DUP3 DUP3 DUP6 PUSH2 0x1269 JUMP JUMPDEST PUSH0 PUSH1 0x20 SWAP1 POP PUSH1 0x1F DUP4 GT PUSH1 0x1 DUP2 EQ PUSH2 0x135A JUMPI PUSH0 DUP5 ISZERO PUSH2 0x1348 JUMPI DUP3 DUP8 ADD MLOAD SWAP1 POP JUMPDEST PUSH2 0x1352 DUP6 DUP3 PUSH2 0x12D7 JUMP JUMPDEST DUP7 SSTORE POP PUSH2 0x13B9 JUMP JUMPDEST PUSH1 0x1F NOT DUP5 AND PUSH2 0x1368 DUP7 PUSH2 0x1155 JUMP JUMPDEST PUSH0 JUMPDEST DUP3 DUP2 LT ISZERO PUSH2 0x138F JUMPI DUP5 DUP10 ADD MLOAD DUP3 SSTORE PUSH1 0x1 DUP3 ADD SWAP2 POP PUSH1 0x20 DUP6 ADD SWAP5 POP PUSH1 0x20 DUP2 ADD SWAP1 POP PUSH2 0x136A JUMP JUMPDEST DUP7 DUP4 LT ISZERO PUSH2 0x13AC JUMPI DUP5 DUP10 ADD MLOAD PUSH2 0x13A8 PUSH1 0x1F DUP10 AND DUP3 PUSH2 0x12BB JUMP JUMPDEST DUP4 SSTORE POP JUMPDEST PUSH1 0x1 PUSH1 0x2 DUP9 MUL ADD DUP9 SSTORE POP POP POP JUMPDEST POP POP POP POP POP POP JUMP JUMPDEST PUSH0 DUP3 DUP3 MSTORE PUSH1 0x20 DUP3 ADD SWAP1 POP SWAP3 SWAP2 POP POP JUMP JUMPDEST PUSH32 0x5468652070726F706F73616C206973206E6F7420616374697665000000000000 PUSH0 DUP3 ADD MSTORE POP JUMP JUMPDEST PUSH0 PUSH2 0x1405 PUSH1 0x1A DUP4 PUSH2 0x13C1 JUMP JUMPDEST SWAP2 POP PUSH2 0x1410 DUP3 PUSH2 0x13D1 JUMP JUMPDEST PUSH1 0x20 DUP3 ADD SWAP1 POP SWAP2 SWAP1 POP JUMP JUMPDEST PUSH0 PUSH1 0x20 DUP3 ADD SWAP1 POP DUP2 DUP2 SUB PUSH0 DUP4 ADD MSTORE PUSH2 0x1432 DUP2 PUSH2 0x13F9 JUMP JUMPDEST SWAP1 POP SWAP2 SWAP1 POP JUMP JUMPDEST PUSH0 PUSH2 0x1443 DUP3 PUSH2 0xD6C JUMP JUMPDEST SWAP2 POP PUSH2 0x144E DUP4 PUSH2 0xD6C JUMP JUMPDEST SWAP3 POP DUP3 DUP3 SUB SWAP1 POP DUP2 DUP2 GT ISZERO PUSH2 0x1466 JUMPI PUSH2 0x1465 PUSH2 0x106B JUMP JUMPDEST JUMPDEST SWAP3 SWAP2 POP POP JUMP JUMPDEST PUSH32 0x4E487B7100000000000000000000000000000000000000000000000000000000 PUSH0 MSTORE PUSH1 0x32 PUSH1 0x4 MSTORE PUSH1 0x24 PUSH0 REVERT JUMPDEST PUSH32 0x4E487B7100000000000000000000000000000000000000000000000000000000 PUSH0 MSTORE PUSH1 0x12 PUSH1 0x4 MSTORE PUSH1 0x24 PUSH0 REVERT JUMPDEST PUSH0 PUSH2 0x14D0 DUP3 PUSH2 0xD6C JUMP JUMPDEST SWAP2 POP PUSH2 0x14DB DUP4 PUSH2 0xD6C JUMP JUMPDEST SWAP3 POP DUP3 PUSH2 0x14EB JUMPI PUSH2 0x14EA PUSH2 0x1499 JUMP JUMPDEST JUMPDEST DUP3 DUP3 MOD SWAP1 POP SWAP3 SWAP2 POP POP JUMP JUMPDEST PUSH0 PUSH2 0x1500 DUP3 PUSH2 0xD6C JUMP JUMPDEST SWAP2 POP PUSH2 0x150B DUP4 PUSH2 0xD6C JUMP JUMPDEST SWAP3 POP DUP3 PUSH2 0x151B JUMPI PUSH2 0x151A PUSH2 0x1499 JUMP JUMPDEST JUMPDEST DUP3 DUP3 DIV SWAP1 POP SWAP3 SWAP2 POP POP JUMP INVALID LOG2 PUSH5 0x6970667358 0x22 SLT KECCAK256 0xCC 0xEB SWAP5 MSTORE8 0xDF CREATE DUP13 POP 0xF 0xC6 0xF9 PUSH28 0x2206D1C7551E2177237B098950E2C26EAE1B5ADC64736F6C63430008 AND STOP CALLER "
				},
				"gasEstimates": {
					"creation": {
						"codeDepositCost": "1093600",
						"executionCost": "73972",
						"totalCost": "1167572"
					},
					"external": {
						"create(string,string,uint256)": "infinite",
						"getCurrentProposal()": "infinite",
						"getProposal(uint256)": "infinite",
						"isVoted(address)": "infinite",
						"setOwner(address)": "26885",
						"teminateProposal()": "33213",
						"vote(uint8)": "infinite"
					},
					"internal": {
						"calculateCurrentState()": "infinite",
						"isSupermajority()": "infinite"
					}
				},
				"methodIdentifiers": {
					"create(string,string,uint256)": "3ca6d100",
					"getCurrentProposal()": "41ec6870",
					"getProposal(uint256)": "c7f758a8",
					"isVoted(address)": "cbff75cb",
					"setOwner(address)": "13af4035",
					"teminateProposal()": "89190393",
					"vote(uint8)": "b3f98adc"
				}
			},
			"storageLayout": {
				"storage": [
					{
						"astId": 3,
						"contract": "contracts/proposal.sol:ProposalContract",
						"label": "counter",
						"offset": 0,
						"slot": "0",
						"type": "t_uint256"
					},
					{
						"astId": 5,
						"contract": "contracts/proposal.sol:ProposalContract",
						"label": "owner",
						"offset": 0,
						"slot": "1",
						"type": "t_address"
					},
					{
						"astId": 8,
						"contract": "contracts/proposal.sol:ProposalContract",
						"label": "voted_addresses",
						"offset": 0,
						"slot": "2",
						"type": "t_array(t_address)dyn_storage"
					},
					{
						"astId": 69,
						"contract": "contracts/proposal.sol:ProposalContract",
						"label": "proposal_history",
						"offset": 0,
						"slot": "3",
						"type": "t_mapping(t_uint256,t_struct(Proposal)25_storage)"
					}
				],
				"types": {
					"t_address": {
						"encoding": "inplace",
						"label": "address",
						"numberOfBytes": "20"
					},
					"t_array(t_address)dyn_storage": {
						"base": "t_address",
						"encoding": "dynamic_array",
						"label": "address[]",
						"numberOfBytes": "32"
					},
					"t_bool": {
						"encoding": "inplace",
						"label": "bool",
						"numberOfBytes": "1"
					},
					"t_mapping(t_uint256,t_struct(Proposal)25_storage)": {
						"encoding": "mapping",
						"key": "t_uint256",
						"label": "mapping(uint256 => struct ProposalContract.Proposal)",
						"numberOfBytes": "32",
						"value": "t_struct(Proposal)25_storage"
					},
					"t_string_storage": {
						"encoding": "bytes",
						"label": "string",
						"numberOfBytes": "32"
					},
					"t_struct(Proposal)25_storage": {
						"encoding": "inplace",
						"label": "struct ProposalContract.Proposal",
						"members": [
							{
								"astId": 10,
								"contract": "contracts/proposal.sol:ProposalContract",
								"label": "title",
								"offset": 0,
								"slot": "0",
								"type": "t_string_storage"
							},
							{
								"astId": 12,
								"contract": "contracts/proposal.sol:ProposalContract",
								"label": "description",
								"offset": 0,
								"slot": "1",
								"type": "t_string_storage"
							},
							{
								"astId": 14,
								"contract": "contracts/proposal.sol:ProposalContract",
								"label": "approve",
								"offset": 0,
								"slot": "2",
								"type": "t_uint256"
							},
							{
								"astId": 16,
								"contract": "contracts/proposal.sol:ProposalContract",
								"label": "reject",
								"offset": 0,
								"slot": "3",
								"type": "t_uint256"
							},
							{
								"astId": 18,
								"contract": "contracts/proposal.sol:ProposalContract",
								"label": "pass",
								"offset": 0,
								"slot": "4",
								"type": "t_uint256"
							},
							{
								"astId": 20,
								"contract": "contracts/proposal.sol:ProposalContract",
								"label": "total_vote_to_end",
								"offset": 0,
								"slot": "5",
								"type": "t_uint256"
							},
							{
								"astId": 22,
								"contract": "contracts/proposal.sol:ProposalContract",
								"label": "current_state",
								"offset": 0,
								"slot": "6",
								"type": "t_bool"
							},
							{
								"astId": 24,
								"contract": "contracts/proposal.sol:ProposalContract",
								"label": "is_active",
								"offset": 1,
								"slot": "6",
								"type": "t_bool"
							}
						],
						"numberOfBytes": "224"
					},
					"t_uint256": {
						"encoding": "inplace",
						"label": "uint256",
						"numberOfBytes": "32"
					}
				}
			},
			"userdoc": {
				"kind": "user",
				"methods": {},
				"version": 1
			}
		}
	}
}